{
  "_format": "hh-sol-artifact-1",
  "contractName": "ArchimedesProtocol",
  "sourceName": "contracts/ArchimedesProtocol.sol",
  "abi": [
    {
      "inputs": [
        {
          "internalType": "address",
          "name": "_usdtToken",
          "type": "address"
        },
        {
          "internalType": "address",
          "name": "_arcToken",
          "type": "address"
        },
        {
          "internalType": "address",
          "name": "_desToken",
          "type": "address"
        },
        {
          "internalType": "address",
          "name": "_platformWallet",
          "type": "address"
        },
        {
          "internalType": "address",
          "name": "_lpWallet",
          "type": "address"
        }
      ],
      "stateMutability": "nonpayable",
      "type": "constructor"
    },
    {
      "inputs": [
        {
          "internalType": "address",
          "name": "owner",
          "type": "address"
        }
      ],
      "name": "OwnableInvalidOwner",
      "type": "error"
    },
    {
      "inputs": [
        {
          "internalType": "address",
          "name": "account",
          "type": "address"
        }
      ],
      "name": "OwnableUnauthorizedAccount",
      "type": "error"
    },
    {
      "inputs": [],
      "name": "ReentrancyGuardReentrantCall",
      "type": "error"
    },
    {
      "anonymous": false,
      "inputs": [
        {
          "indexed": true,
          "internalType": "address",
          "name": "user",
          "type": "address"
        },
        {
          "indexed": true,
          "internalType": "address",
          "name": "referrer",
          "type": "address"
        }
      ],
      "name": "BoundReferrer",
      "type": "event"
    },
    {
      "anonymous": false,
      "inputs": [
        {
          "indexed": false,
          "internalType": "uint256",
          "name": "amount",
          "type": "uint256"
        }
      ],
      "name": "DailyBurn",
      "type": "event"
    },
    {
      "anonymous": false,
      "inputs": [
        {
          "indexed": true,
          "internalType": "address",
          "name": "user",
          "type": "address"
        },
        {
          "indexed": false,
          "internalType": "uint256",
          "name": "amount",
          "type": "uint256"
        },
        {
          "indexed": false,
          "internalType": "uint256",
          "name": "cycleDays",
          "type": "uint256"
        }
      ],
      "name": "LiquidityStaked",
      "type": "event"
    },
    {
      "anonymous": false,
      "inputs": [
        {
          "indexed": true,
          "internalType": "address",
          "name": "previousOwner",
          "type": "address"
        },
        {
          "indexed": true,
          "internalType": "address",
          "name": "newOwner",
          "type": "address"
        }
      ],
      "name": "OwnershipTransferred",
      "type": "event"
    },
    {
      "anonymous": false,
      "inputs": [
        {
          "indexed": true,
          "internalType": "address",
          "name": "user",
          "type": "address"
        },
        {
          "indexed": false,
          "internalType": "uint256",
          "name": "principal",
          "type": "uint256"
        },
        {
          "indexed": false,
          "internalType": "uint256",
          "name": "fee",
          "type": "uint256"
        }
      ],
      "name": "Redeemed",
      "type": "event"
    },
    {
      "anonymous": false,
      "inputs": [
        {
          "indexed": true,
          "internalType": "address",
          "name": "user",
          "type": "address"
        },
        {
          "indexed": false,
          "internalType": "uint256",
          "name": "usdtAmount",
          "type": "uint256"
        },
        {
          "indexed": false,
          "internalType": "uint256",
          "name": "arcAmount",
          "type": "uint256"
        },
        {
          "indexed": false,
          "internalType": "uint256",
          "name": "cycleDays",
          "type": "uint256"
        }
      ],
      "name": "Reinvested",
      "type": "event"
    },
    {
      "anonymous": false,
      "inputs": [
        {
          "indexed": true,
          "internalType": "address",
          "name": "user",
          "type": "address"
        },
        {
          "indexed": false,
          "internalType": "uint256",
          "name": "usdtAmount",
          "type": "uint256"
        },
        {
          "indexed": false,
          "internalType": "uint256",
          "name": "arcAmount",
          "type": "uint256"
        }
      ],
      "name": "RewardClaimed",
      "type": "event"
    },
    {
      "anonymous": false,
      "inputs": [
        {
          "indexed": true,
          "internalType": "address",
          "name": "user",
          "type": "address"
        },
        {
          "indexed": false,
          "internalType": "uint256",
          "name": "arcAmount",
          "type": "uint256"
        },
        {
          "indexed": false,
          "internalType": "uint256",
          "name": "usdtAmount",
          "type": "uint256"
        },
        {
          "indexed": false,
          "internalType": "uint256",
          "name": "tax",
          "type": "uint256"
        }
      ],
      "name": "SwappedARCToUSDT",
      "type": "event"
    },
    {
      "anonymous": false,
      "inputs": [
        {
          "indexed": true,
          "internalType": "address",
          "name": "user",
          "type": "address"
        },
        {
          "indexed": false,
          "internalType": "uint256",
          "name": "desAmount",
          "type": "uint256"
        },
        {
          "indexed": false,
          "internalType": "uint256",
          "name": "usdtAmount",
          "type": "uint256"
        },
        {
          "indexed": false,
          "internalType": "uint256",
          "name": "tax",
          "type": "uint256"
        }
      ],
      "name": "SwappedDESToUSDT",
      "type": "event"
    },
    {
      "anonymous": false,
      "inputs": [
        {
          "indexed": true,
          "internalType": "address",
          "name": "user",
          "type": "address"
        },
        {
          "indexed": false,
          "internalType": "uint256",
          "name": "usdtAmount",
          "type": "uint256"
        },
        {
          "indexed": false,
          "internalType": "uint256",
          "name": "arcAmount",
          "type": "uint256"
        },
        {
          "indexed": false,
          "internalType": "uint256",
          "name": "tax",
          "type": "uint256"
        }
      ],
      "name": "SwappedUSDTToARC",
      "type": "event"
    },
    {
      "anonymous": false,
      "inputs": [
        {
          "indexed": true,
          "internalType": "address",
          "name": "user",
          "type": "address"
        },
        {
          "indexed": false,
          "internalType": "uint256",
          "name": "usdtAmount",
          "type": "uint256"
        },
        {
          "indexed": false,
          "internalType": "uint256",
          "name": "desAmount",
          "type": "uint256"
        }
      ],
      "name": "SwappedUSDTToDES",
      "type": "event"
    },
    {
      "anonymous": false,
      "inputs": [
        {
          "indexed": true,
          "internalType": "address",
          "name": "user",
          "type": "address"
        },
        {
          "indexed": false,
          "internalType": "uint256",
          "name": "amount",
          "type": "uint256"
        }
      ],
      "name": "TicketPurchased",
      "type": "event"
    },
    {
      "inputs": [],
      "name": "ARC_POOL_PERCENT",
      "outputs": [
        {
          "internalType": "uint256",
          "name": "",
          "type": "uint256"
        }
      ],
      "stateMutability": "view",
      "type": "function"
    },
    {
      "inputs": [],
      "name": "DES_BUY_BURN_PERCENT",
      "outputs": [
        {
          "internalType": "uint256",
          "name": "",
          "type": "uint256"
        }
      ],
      "stateMutability": "view",
      "type": "function"
    },
    {
      "inputs": [],
      "name": "NODE_DIVIDEND_PERCENT",
      "outputs": [
        {
          "internalType": "uint256",
          "name": "",
          "type": "uint256"
        }
      ],
      "stateMutability": "view",
      "type": "function"
    },
    {
      "inputs": [],
      "name": "OFFICE_REWARD_PERCENT",
      "outputs": [
        {
          "internalType": "uint256",
          "name": "",
          "type": "uint256"
        }
      ],
      "stateMutability": "view",
      "type": "function"
    },
    {
      "inputs": [],
      "name": "PLATFORM_PERCENT",
      "outputs": [
        {
          "internalType": "uint256",
          "name": "",
          "type": "uint256"
        }
      ],
      "stateMutability": "view",
      "type": "function"
    },
    {
      "inputs": [],
      "name": "SECONDS_IN_DAY",
      "outputs": [
        {
          "internalType": "uint256",
          "name": "",
          "type": "uint256"
        }
      ],
      "stateMutability": "view",
      "type": "function"
    },
    {
      "inputs": [
        {
          "internalType": "address",
          "name": "user",
          "type": "address"
        },
        {
          "internalType": "address",
          "name": "newReferrer",
          "type": "address"
        }
      ],
      "name": "adminSetReferrer",
      "outputs": [],
      "stateMutability": "nonpayable",
      "type": "function"
    },
    {
      "inputs": [
        {
          "internalType": "address",
          "name": "user",
          "type": "address"
        },
        {
          "internalType": "uint256",
          "name": "_activeDirects",
          "type": "uint256"
        },
        {
          "internalType": "uint256",
          "name": "_teamCount",
          "type": "uint256"
        }
      ],
      "name": "adminSetUserStats",
      "outputs": [],
      "stateMutability": "nonpayable",
      "type": "function"
    },
    {
      "inputs": [],
      "name": "arcBuyTax",
      "outputs": [
        {
          "internalType": "uint256",
          "name": "",
          "type": "uint256"
        }
      ],
      "stateMutability": "view",
      "type": "function"
    },
    {
      "inputs": [],
      "name": "arcSellTax",
      "outputs": [
        {
          "internalType": "uint256",
          "name": "",
          "type": "uint256"
        }
      ],
      "stateMutability": "view",
      "type": "function"
    },
    {
      "inputs": [],
      "name": "arcToken",
      "outputs": [
        {
          "internalType": "contract IARC",
          "name": "",
          "type": "address"
        }
      ],
      "stateMutability": "view",
      "type": "function"
    },
    {
      "inputs": [
        {
          "internalType": "address",
          "name": "_referrer",
          "type": "address"
        }
      ],
      "name": "bindReferrer",
      "outputs": [],
      "stateMutability": "nonpayable",
      "type": "function"
    },
    {
      "inputs": [
        {
          "internalType": "uint256",
          "name": "amount",
          "type": "uint256"
        }
      ],
      "name": "buyTicket",
      "outputs": [],
      "stateMutability": "nonpayable",
      "type": "function"
    },
    {
      "inputs": [],
      "name": "claimRewards",
      "outputs": [],
      "stateMutability": "nonpayable",
      "type": "function"
    },
    {
      "inputs": [],
      "name": "desFeeFixed",
      "outputs": [
        {
          "internalType": "uint256",
          "name": "",
          "type": "uint256"
        }
      ],
      "stateMutability": "view",
      "type": "function"
    },
    {
      "inputs": [],
      "name": "desFeeRate",
      "outputs": [
        {
          "internalType": "uint256",
          "name": "",
          "type": "uint256"
        }
      ],
      "stateMutability": "view",
      "type": "function"
    },
    {
      "inputs": [],
      "name": "desToken",
      "outputs": [
        {
          "internalType": "contract IERC20",
          "name": "",
          "type": "address"
        }
      ],
      "stateMutability": "view",
      "type": "function"
    },
    {
      "inputs": [
        {
          "internalType": "address",
          "name": "",
          "type": "address"
        },
        {
          "internalType": "uint256",
          "name": "",
          "type": "uint256"
        }
      ],
      "name": "directReferrals",
      "outputs": [
        {
          "internalType": "address",
          "name": "",
          "type": "address"
        }
      ],
      "stateMutability": "view",
      "type": "function"
    },
    {
      "inputs": [
        {
          "internalType": "address[]",
          "name": "users",
          "type": "address[]"
        },
        {
          "internalType": "uint256[]",
          "name": "amounts",
          "type": "uint256[]"
        }
      ],
      "name": "distributeDailyRewards",
      "outputs": [],
      "stateMutability": "nonpayable",
      "type": "function"
    },
    {
      "inputs": [
        {
          "internalType": "address",
          "name": "startUser",
          "type": "address"
        }
      ],
      "name": "findNearestOffice",
      "outputs": [
        {
          "internalType": "address",
          "name": "",
          "type": "address"
        }
      ],
      "stateMutability": "view",
      "type": "function"
    },
    {
      "inputs": [],
      "name": "getARCPrice",
      "outputs": [
        {
          "internalType": "uint256",
          "name": "",
          "type": "uint256"
        }
      ],
      "stateMutability": "view",
      "type": "function"
    },
    {
      "inputs": [
        {
          "internalType": "uint256",
          "name": "amountIn",
          "type": "uint256"
        },
        {
          "internalType": "uint256",
          "name": "reserveIn",
          "type": "uint256"
        },
        {
          "internalType": "uint256",
          "name": "reserveOut",
          "type": "uint256"
        }
      ],
      "name": "getAmountOut",
      "outputs": [
        {
          "internalType": "uint256",
          "name": "",
          "type": "uint256"
        }
      ],
      "stateMutability": "pure",
      "type": "function"
    },
    {
      "inputs": [],
      "name": "getDesPrice",
      "outputs": [
        {
          "internalType": "uint256",
          "name": "",
          "type": "uint256"
        }
      ],
      "stateMutability": "view",
      "type": "function"
    },
    {
      "inputs": [
        {
          "internalType": "address",
          "name": "_user",
          "type": "address"
        }
      ],
      "name": "getDirectReferrals",
      "outputs": [
        {
          "internalType": "address[]",
          "name": "",
          "type": "address[]"
        }
      ],
      "stateMutability": "view",
      "type": "function"
    },
    {
      "inputs": [
        {
          "internalType": "address",
          "name": "_user",
          "type": "address"
        }
      ],
      "name": "getDirectReferralsData",
      "outputs": [
        {
          "components": [
            {
              "internalType": "address",
              "name": "user",
              "type": "address"
            },
            {
              "internalType": "uint256",
              "name": "ticketAmount",
              "type": "uint256"
            },
            {
              "internalType": "uint256",
              "name": "joinTime",
              "type": "uint256"
            }
          ],
          "internalType": "struct ArchimedesProtocol.ReferralData[]",
          "name": "",
          "type": "tuple[]"
        }
      ],
      "stateMutability": "view",
      "type": "function"
    },
    {
      "inputs": [
        {
          "internalType": "address",
          "name": "",
          "type": "address"
        }
      ],
      "name": "isCommunityOffice",
      "outputs": [
        {
          "internalType": "bool",
          "name": "",
          "type": "bool"
        }
      ],
      "stateMutability": "view",
      "type": "function"
    },
    {
      "inputs": [
        {
          "internalType": "address",
          "name": "",
          "type": "address"
        }
      ],
      "name": "isWhitelist",
      "outputs": [
        {
          "internalType": "bool",
          "name": "",
          "type": "bool"
        }
      ],
      "stateMutability": "view",
      "type": "function"
    },
    {
      "inputs": [],
      "name": "lastBuybackTime",
      "outputs": [
        {
          "internalType": "uint256",
          "name": "",
          "type": "uint256"
        }
      ],
      "stateMutability": "view",
      "type": "function"
    },
    {
      "inputs": [],
      "name": "launchTime",
      "outputs": [
        {
          "internalType": "uint256",
          "name": "",
          "type": "uint256"
        }
      ],
      "stateMutability": "view",
      "type": "function"
    },
    {
      "inputs": [],
      "name": "lpWallet",
      "outputs": [
        {
          "internalType": "address",
          "name": "",
          "type": "address"
        }
      ],
      "stateMutability": "view",
      "type": "function"
    },
    {
      "inputs": [],
      "name": "owner",
      "outputs": [
        {
          "internalType": "address",
          "name": "",
          "type": "address"
        }
      ],
      "stateMutability": "view",
      "type": "function"
    },
    {
      "inputs": [
        {
          "internalType": "address",
          "name": "",
          "type": "address"
        }
      ],
      "name": "pendingRewards",
      "outputs": [
        {
          "internalType": "uint256",
          "name": "",
          "type": "uint256"
        }
      ],
      "stateMutability": "view",
      "type": "function"
    },
    {
      "inputs": [],
      "name": "platformWallet",
      "outputs": [
        {
          "internalType": "address",
          "name": "",
          "type": "address"
        }
      ],
      "stateMutability": "view",
      "type": "function"
    },
    {
      "inputs": [
        {
          "internalType": "address",
          "name": "",
          "type": "address"
        }
      ],
      "name": "privateSaleAllocation",
      "outputs": [
        {
          "internalType": "uint256",
          "name": "",
          "type": "uint256"
        }
      ],
      "stateMutability": "view",
      "type": "function"
    },
    {
      "inputs": [
        {
          "internalType": "address",
          "name": "",
          "type": "address"
        }
      ],
      "name": "privateSaleClaimed",
      "outputs": [
        {
          "internalType": "uint256",
          "name": "",
          "type": "uint256"
        }
      ],
      "stateMutability": "view",
      "type": "function"
    },
    {
      "inputs": [],
      "name": "redeem",
      "outputs": [],
      "stateMutability": "nonpayable",
      "type": "function"
    },
    {
      "inputs": [
        {
          "internalType": "uint256",
          "name": "cycleDays",
          "type": "uint256"
        }
      ],
      "name": "reinvest",
      "outputs": [],
      "stateMutability": "nonpayable",
      "type": "function"
    },
    {
      "inputs": [],
      "name": "renounceOwnership",
      "outputs": [],
      "stateMutability": "nonpayable",
      "type": "function"
    },
    {
      "inputs": [
        {
          "internalType": "address",
          "name": "office",
          "type": "address"
        },
        {
          "internalType": "bool",
          "name": "status",
          "type": "bool"
        }
      ],
      "name": "setCommunityOffice",
      "outputs": [],
      "stateMutability": "nonpayable",
      "type": "function"
    },
    {
      "inputs": [
        {
          "internalType": "address",
          "name": "_platform",
          "type": "address"
        },
        {
          "internalType": "address",
          "name": "_lp",
          "type": "address"
        }
      ],
      "name": "setWallets",
      "outputs": [],
      "stateMutability": "nonpayable",
      "type": "function"
    },
    {
      "inputs": [
        {
          "internalType": "address",
          "name": "user",
          "type": "address"
        },
        {
          "internalType": "bool",
          "name": "status",
          "type": "bool"
        }
      ],
      "name": "setWhitelist",
      "outputs": [],
      "stateMutability": "nonpayable",
      "type": "function"
    },
    {
      "inputs": [
        {
          "internalType": "uint256",
          "name": "cycleDays",
          "type": "uint256"
        }
      ],
      "name": "stakeLiquidity",
      "outputs": [],
      "stateMutability": "nonpayable",
      "type": "function"
    },
    {
      "inputs": [
        {
          "internalType": "uint256",
          "name": "arcAmount",
          "type": "uint256"
        }
      ],
      "name": "swapARCToUSDT",
      "outputs": [],
      "stateMutability": "nonpayable",
      "type": "function"
    },
    {
      "inputs": [
        {
          "internalType": "uint256",
          "name": "desAmount",
          "type": "uint256"
        }
      ],
      "name": "swapDESToUSDT",
      "outputs": [],
      "stateMutability": "nonpayable",
      "type": "function"
    },
    {
      "inputs": [
        {
          "internalType": "uint256",
          "name": "usdtAmount",
          "type": "uint256"
        }
      ],
      "name": "swapUSDTToARC",
      "outputs": [],
      "stateMutability": "nonpayable",
      "type": "function"
    },
    {
      "inputs": [
        {
          "internalType": "uint256",
          "name": "usdtAmount",
          "type": "uint256"
        }
      ],
      "name": "swapUSDTToDES",
      "outputs": [],
      "stateMutability": "nonpayable",
      "type": "function"
    },
    {
      "inputs": [
        {
          "internalType": "address",
          "name": "newOwner",
          "type": "address"
        }
      ],
      "name": "transferOwnership",
      "outputs": [],
      "stateMutability": "nonpayable",
      "type": "function"
    },
    {
      "inputs": [],
      "name": "usdtToken",
      "outputs": [
        {
          "internalType": "contract IERC20",
          "name": "",
          "type": "address"
        }
      ],
      "stateMutability": "view",
      "type": "function"
    },
    {
      "inputs": [
        {
          "internalType": "address",
          "name": "",
          "type": "address"
        }
      ],
      "name": "userInfo",
      "outputs": [
        {
          "internalType": "address",
          "name": "referrer",
          "type": "address"
        },
        {
          "internalType": "uint256",
          "name": "activeDirects",
          "type": "uint256"
        },
        {
          "internalType": "uint256",
          "name": "teamCount",
          "type": "uint256"
        },
        {
          "internalType": "uint256",
          "name": "totalRevenue",
          "type": "uint256"
        },
        {
          "internalType": "uint256",
          "name": "currentCap",
          "type": "uint256"
        },
        {
          "internalType": "bool",
          "name": "isActive",
          "type": "bool"
        }
      ],
      "stateMutability": "view",
      "type": "function"
    },
    {
      "inputs": [
        {
          "internalType": "address",
          "name": "",
          "type": "address"
        }
      ],
      "name": "userTicket",
      "outputs": [
        {
          "internalType": "uint256",
          "name": "amount",
          "type": "uint256"
        },
        {
          "internalType": "uint256",
          "name": "requiredLiquidity",
          "type": "uint256"
        },
        {
          "internalType": "uint256",
          "name": "purchaseTime",
          "type": "uint256"
        },
        {
          "internalType": "bool",
          "name": "liquidityProvided",
          "type": "bool"
        },
        {
          "internalType": "uint256",
          "name": "liquidityAmount",
          "type": "uint256"
        },
        {
          "internalType": "uint256",
          "name": "startTime",
          "type": "uint256"
        },
        {
          "internalType": "uint256",
          "name": "cycleDays",
          "type": "uint256"
        },
        {
          "internalType": "bool",
          "name": "redeemed",
          "type": "bool"
        }
      ],
      "stateMutability": "view",
      "type": "function"
    }
  ],
  "bytecode": "0x608060405260006009556005600a556729a2241af62c0000600b556005600c553480156200002c57600080fd5b5060405162003af938038062003af98339810160408190526200004f9162000156565b33806200007657604051631e4fbdf760e01b81526000600482015260240160405180910390fd5b6200008181620000e9565b5060018055600280546001600160a01b03199081166001600160a01b03978816179091556003805482169587169590951790945560048054851693861693909317909255600580548416918516919091179055600680549092169216919091179055620001c6565b600080546001600160a01b038381166001600160a01b0319831681178455604051919092169283917f8be0079c531659141344cd1fd0a4f28419497f9722a3daafe3b4186f6b6457e09190a35050565b80516001600160a01b03811681146200015157600080fd5b919050565b600080600080600060a086880312156200016f57600080fd5b6200017a8662000139565b94506200018a6020870162000139565b93506200019a6040870162000139565b9250620001aa6060870162000139565b9150620001ba6080870162000139565b90509295509295909350565b61392380620001d66000396000f3fe608060405234801561001057600080fd5b50600436106102d65760003560e01c806372367b1511610182578063be040fb0116100e9578063d2c8e0e5116100a2578063e1b68b8c1161007c578063e1b68b8c1461070f578063edbe3f1714610722578063f2fde38b14610742578063fa2af9da1461075557600080fd5b8063d2c8e0e5146106d4578063d3956630146106f4578063d3f6a157146106fc57600080fd5b8063be040fb014610665578063be0c962d1461066d578063c011267814610676578063c130ebc714610689578063c683630d14610691578063cb40fbe9146106b457600080fd5b80638da5cb5b1161013b5780638da5cb5b146106085780639ad7246c14610619578063a2af92261461062c578063a98ad46c1461063f578063af92030d1461048f578063bcc0c37d1461065257600080fd5b806372367b151461048f578063790ca41314610536578063802cf2471461053f57806383b4918b14610552578063862f4282146105655780638710bcaa1461057357600080fd5b806338729c29116102415780635c67a5e0116101fa5780636303516c116101d45780636303516c146104f557806367dd74ca146105085780636fb3c47c1461051b578063715018a61461052e57600080fd5b80635c67a5e0146104d95780636072e742146104e257806361a52a36146104eb57600080fd5b806338729c291461047c57806348981d8a1461048f578063499984fc1461049757806353d6fd59146104aa578063554f522f146104bd578063567b1ac9146104d057600080fd5b8063168227b911610293578063168227b9146103a757806316cbb34f146103af5780631959a002146103b857806331d7a262146104415780633507637314610461578063372500ab1461047457600080fd5b806304f618cb146102db578063054d50d4146102f057806305ad3935146103165780630fc4fc1a146103415780631346c90e14610361578063153936c214610394575b600080fd5b6102ee6102e93660046134d9565b610768565b005b6103036102fe3660046134fb565b6108d5565b6040519081526020015b60405180910390f35b610329610324366004613527565b6109ab565b6040516001600160a01b03909116815260200161030d565b61035461034f3660046134d9565b6109e3565b60405161030d9190613551565b61038461036f3660046134d9565b60076020526000908152604090205460ff1681565b604051901515815260200161030d565b6102ee6103a23660046135ff565b610bd3565b610303604181565b61030360145481565b6104086103c63660046134d9565b600d602052600090815260409020805460018201546002830154600384015460048501546005909501546001600160a01b039094169492939192909160ff1686565b604080516001600160a01b03909716875260208701959095529385019290925260608401526080830152151560a082015260c00161030d565b61030361044f3660046134d9565b60106020526000908152604090205481565b6102ee61046f36600461366b565b610cb9565b6102ee610f40565b6102ee61048a36600461366b565b611438565b610303600a81565b6102ee6104a536600461366b565b611742565b6102ee6104b8366004613692565b611b94565b6102ee6104cb36600461366b565b611bc7565b61030360095481565b610303600b5481565b610303600c5481565b6103036201518081565b600654610329906001600160a01b031681565b6102ee61051636600461366b565b611fcc565b6102ee6105293660046136c9565b612574565b6102ee6125a3565b61030360135481565b61032961054d3660046134d9565b6125b5565b6102ee61056036600461366b565b612657565b670de0b6b3a7640000610303565b6105cb6105813660046134d9565b600e602052600090815260409020805460018201546002830154600384015460048501546005860154600687015460079097015495969495939460ff938416949293919290911688565b604080519889526020890197909752958701949094529115156060860152608085015260a084015260c0830152151560e08201526101000161030d565b6000546001600160a01b0316610329565b6102ee61062736600461366b565b612a5c565b6102ee61063a3660046136fc565b612e14565b600254610329906001600160a01b031681565b6102ee610660366004613692565b61301a565b6102ee61304d565b610303600a5481565b600354610329906001600160a01b031681565b610303600581565b61038461069f3660046134d9565b60086020526000908152604090205460ff1681565b6103036106c23660046134d9565b60126020526000908152604090205481565b6106e76106e23660046134d9565b613215565b60405161030d919061372f565b61030361328b565b6102ee61070a3660046136fc565b6133a5565b600454610329906001600160a01b031681565b6103036107303660046134d9565b60116020526000908152604090205481565b6102ee6107503660046134d9565b6133db565b600554610329906001600160a01b031681565b336000908152600d60205260409020546001600160a01b0316156107c35760405162461bcd60e51b815260206004820152600d60248201526c105b1c9958591e48189bdd5b99609a1b60448201526064015b60405180910390fd5b336001600160a01b0382160361080e5760405162461bcd60e51b815260206004820152601060248201526f21b0b73737ba103134b7321039b2b63360811b60448201526064016107ba565b6001600160a01b0381166108575760405162461bcd60e51b815260206004820152601060248201526f24b73b30b634b2103932b332b93932b960811b60448201526064016107ba565b336000818152600d6020908152604080832080546001600160a01b0387166001600160a01b03199182168117909255818552600f8452828520805460018101825590865293852090930180549093168517909255519092917fa6dbb5aa28f35437de94d685d66edce5fb4812196b4984b91dfd5a7b38c0fb3091a350565b60008084116109265760405162461bcd60e51b815260206004820152601960248201527f496e73756666696369656e7420696e70757420616d6f756e740000000000000060448201526064016107ba565b6000831180156109365750600082115b61097b5760405162461bcd60e51b8152602060048201526016602482015275496e73756666696369656e74206c697175696469747960501b60448201526064016107ba565b60006109878386613792565b9050600061099586866137af565b90506109a181836137c2565b9695505050505050565b600f60205281600052604060002081815481106109c757600080fd5b6000918252602090912001546001600160a01b03169150829050565b6001600160a01b0381166000908152600f60209081526040808320805482518185028101850190935280835260609493830182828015610a4c57602002820191906000526020600020905b81546001600160a01b03168152600190910190602001808311610a2e575b505050505090506000815167ffffffffffffffff811115610a6f57610a6f6137e4565b604051908082528060200260200182016040528015610acd57816020015b610aba604051806060016040528060006001600160a01b0316815260200160008152602001600081525090565b815260200190600190039081610a8d5790505b50905060005b8251811015610bcb576040518060600160405280848381518110610af957610af96137fa565b60200260200101516001600160a01b03168152602001600e6000868581518110610b2557610b256137fa565b60200260200101516001600160a01b03166001600160a01b03168152602001908152602001600020600001548152602001600e6000868581518110610b6c57610b6c6137fa565b60200260200101516001600160a01b03166001600160a01b0316815260200190815260200160002060020154815250828281518110610bad57610bad6137fa565b60200260200101819052508080610bc390613810565b915050610ad3565b509392505050565b610bdb613416565b828114610c1c5760405162461bcd60e51b815260206004820152600f60248201526e098cadccee8d040dad2e6dac2e8c6d608b1b60448201526064016107ba565b60005b83811015610cb257828282818110610c3957610c396137fa565b9050602002013560106000878785818110610c5657610c566137fa565b9050602002016020810190610c6b91906134d9565b6001600160a01b03166001600160a01b031681526020019081526020016000206000828254610c9a91906137af565b90915550819050610caa81613810565b915050610c1f565b5050505050565b610cc1613443565b336000908152600e60205260409020805415801590610ce55750600381015460ff16155b610d235760405162461bcd60e51b815260206004820152600f60248201526e139bc81d985b1a59081d1a58dad95d608a1b60448201526064016107ba565b6002810154610d35906203f4806137af565b421115610d755760405162461bcd60e51b815260206004820152600e60248201526d151a58dad95d08195e1c1a5c995960921b60448201526064016107ba565b8160071480610d84575081600f145b80610d8f575081601e145b610dcb5760405162461bcd60e51b815260206004820152600d60248201526c496e76616c6964206379636c6560981b60448201526064016107ba565b60018101546002546040516323b872dd60e01b81526001600160a01b03909116906323b872dd90610e0490339030908690600401613829565b6020604051808303816000875af1158015610e23573d6000803e3d6000fd5b505050506040513d601f19601f82011682018060405250810190610e47919061384d565b5060038201805460ff191660011790556004820181905542600583015560068201839055336000908152600d60205260409020546001600160a01b03168015801590610ea65750336000908152600d602052604090206005015460ff16155b15610ef5576001600160a01b0381166000908152600d60205260408120600101805491610ed283613810565b9091555050336000908152600d60205260409020600501805460ff191660011790555b604080518381526020810186905233917f1e54d7530dad81af38adb8ca9db02add3130668375f37be85396403616fc3d4991015b60405180910390a2505050610f3d60018055565b50565b610f48613443565b3360009081526010602052604090205480610f9b5760405162461bcd60e51b81526020600482015260136024820152724e6f207265776172647320746f20636c61696d60681b60448201526064016107ba565b670de0b6b3a76400006000610fae61328b565b90506000670de0b6b3a7640000610fc58386613792565b610fcf91906137c2565b905060006064600c5483610fe39190613792565b610fed91906137c2565b905060008461100483670de0b6b3a7640000613792565b61100e91906137c2565b90506000600b548261102091906137af565b600480546040516370a0823160e01b8152339281019290925291925082916001600160a01b0316906370a0823190602401602060405180830381865afa15801561106e573d6000803e3d6000fd5b505050506040513d601f19601f82011682018060405250810190611092919061386a565b10156110e05760405162461bcd60e51b815260206004820152601860248201527f496e73756666696369656e742044455320666f7220666565000000000000000060448201526064016107ba565b336000908152600d60205260409020546001600160a01b0316801561120957821561117d57600480546040516323b872dd60e01b81526001600160a01b03909116916323b872dd916111389133918691899101613829565b6020604051808303816000875af1158015611157573d6000803e3d6000fd5b505050506040513d601f19601f8201168201806040525081019061117b919061384d565b505b600b54156112045760048054600554600b546040516323b872dd60e01b81526001600160a01b03938416946323b872dd946111bf943394911692909101613829565b6020604051808303816000875af11580156111de573d6000803e3d6000fd5b505050506040513d601f19601f82011682018060405250810190611202919061384d565b505b611285565b600480546005546040516323b872dd60e01b81526001600160a01b03928316936323b872dd93611240933393911691889101613829565b6020604051808303816000875af115801561125f573d6000803e3d6000fd5b505050506040513d601f19601f82011682018060405250810190611283919061384d565b505b336000908152601060209081526040808320839055600d909152812060030180548792906112b49084906137af565b90915550506003546040516370a0823160e01b815230600482015289916001600160a01b0316906370a0823190602401602060405180830381865afa158015611301573d6000803e3d6000fd5b505050506040513d601f19601f82011682018060405250810190611325919061386a565b10156113735760405162461bcd60e51b815260206004820152601860248201527f496e73756666696369656e742041524320696e20706f6f6c000000000000000060448201526064016107ba565b60035460405163a9059cbb60e01b81526001600160a01b039091169063a9059cbb906113a59033908c90600401613883565b6020604051808303816000875af11580156113c4573d6000803e3d6000fd5b505050506040513d601f19601f820116820180604052508101906113e8919061384d565b506040805160008152602081018a905233917ff01da32686223933d8a18a391060918c7f11a3648639edd87ae013e2e2731743910160405180910390a2505050505050505061143660018055565b565b611440613443565b600081116114605760405162461bcd60e51b81526004016107ba9061389c565b6002546040516323b872dd60e01b81526001600160a01b03909116906323b872dd9061149490339030908690600401613829565b6020604051808303816000875af11580156114b3573d6000803e3d6000fd5b505050506040513d601f19601f820116820180604052508101906114d7919061384d565b506002546040516370a0823160e01b815230600482015260009183916001600160a01b03909116906370a0823190602401602060405180830381865afa158015611525573d6000803e3d6000fd5b505050506040513d601f19601f82011682018060405250810190611549919061386a565b61155391906138c4565b600480546040516370a0823160e01b815230928101929092529192506000916001600160a01b0316906370a0823190602401602060405180830381865afa1580156115a2573d6000803e3d6000fd5b505050506040513d601f19601f820116820180604052508101906115c6919061386a565b905060006115d58484846108d5565b600480546040516370a0823160e01b8152309281019290925291925082916001600160a01b0316906370a0823190602401602060405180830381865afa158015611623573d6000803e3d6000fd5b505050506040513d601f19601f82011682018060405250810190611647919061386a565b10156116955760405162461bcd60e51b815260206004820152601a60248201527f496e73756666696369656e7420444553206c697175696469747900000000000060448201526064016107ba565b6004805460405163a9059cbb60e01b81526001600160a01b039091169163a9059cbb916116c6913391869101613883565b6020604051808303816000875af11580156116e5573d6000803e3d6000fd5b505050506040513d601f19601f82011682018060405250810190611709919061384d565b50604080518581526020810183905233917ff0aecc972a450cc802dcc2bc28856bc3ab464a5fb18d3593d82e935dc52f6cf89101610f29565b61174a613443565b6000811161176a5760405162461bcd60e51b81526004016107ba9061389c565b6003546040516323b872dd60e01b81526001600160a01b03909116906323b872dd9061179e90339030908690600401613829565b6020604051808303816000875af11580156117bd573d6000803e3d6000fd5b505050506040513d601f19601f820116820180604052508101906117e1919061384d565b5060006064600a54836117f49190613792565b6117fe91906137c2565b9050600061180c82846138c4565b90506000600561181d846002613792565b61182791906137c2565b9050600061183582856138c4565b600354604051630852cd8d60e31b8152600481018590529192506001600160a01b0316906342966c6890602401600060405180830381600087803b15801561187c57600080fd5b505af1158015611890573d6000803e3d6000fd5b505060035460055460405163a9059cbb60e01b81526001600160a01b03928316945063a9059cbb93506118cb92909116908590600401613883565b6020604051808303816000875af11580156118ea573d6000803e3d6000fd5b505050506040513d601f19601f8201168201806040525081019061190e919061384d565b506003546040516370a0823160e01b815230600482015260009185916001600160a01b03909116906370a0823190602401602060405180830381865afa15801561195c573d6000803e3d6000fd5b505050506040513d601f19601f82011682018060405250810190611980919061386a565b61198a91906138c4565b6002546040516370a0823160e01b81523060048201529192506000916001600160a01b03909116906370a0823190602401602060405180830381865afa1580156119d8573d6000803e3d6000fd5b505050506040513d601f19601f820116820180604052508101906119fc919061386a565b90506000611a0b8684846108d5565b6002546040516370a0823160e01b815230600482015291925082916001600160a01b03909116906370a0823190602401602060405180830381865afa158015611a58573d6000803e3d6000fd5b505050506040513d601f19601f82011682018060405250810190611a7c919061386a565b1015611aca5760405162461bcd60e51b815260206004820152601b60248201527f496e73756666696369656e742055534454206c6971756964697479000000000060448201526064016107ba565b60025460405163a9059cbb60e01b81526001600160a01b039091169063a9059cbb90611afc9033908590600401613883565b6020604051808303816000875af1158015611b1b573d6000803e3d6000fd5b505050506040513d601f19601f82011682018060405250810190611b3f919061384d565b50604080518981526020810183905290810188905233907f1eed3bdeee9d82340f29d468acabeb304c93cce7a28a4216224faa0b76729af2906060015b60405180910390a250505050505050610f3d60018055565b611b9c613416565b6001600160a01b03919091166000908152600860205260409020805460ff1916911515919091179055565b611bcf613443565b60008111611bef5760405162461bcd60e51b81526004016107ba9061389c565b3360009081526008602052604090205460ff16611c405760405162461bcd60e51b815260206004820152600f60248201526e139bdd081dda1a5d195b1a5cdd1959608a1b60448201526064016107ba565b6002546040516323b872dd60e01b81526001600160a01b03909116906323b872dd90611c7490339030908690600401613829565b6020604051808303816000875af1158015611c93573d6000803e3d6000fd5b505050506040513d601f19601f82011682018060405250810190611cb7919061384d565b506002546040516370a0823160e01b815230600482015260009183916001600160a01b03909116906370a0823190602401602060405180830381865afa158015611d05573d6000803e3d6000fd5b505050506040513d601f19601f82011682018060405250810190611d29919061386a565b611d3391906138c4565b6003546040516370a0823160e01b81523060048201529192506000916001600160a01b03909116906370a0823190602401602060405180830381865afa158015611d81573d6000803e3d6000fd5b505050506040513d601f19601f82011682018060405250810190611da5919061386a565b90506000611db48484846108d5565b90506000606460095483611dc89190613792565b611dd291906137c2565b90506000611de082846138c4565b6003546040516370a0823160e01b815230600482015291925084916001600160a01b03909116906370a0823190602401602060405180830381865afa158015611e2d573d6000803e3d6000fd5b505050506040513d601f19601f82011682018060405250810190611e51919061386a565b1015611e9f5760405162461bcd60e51b815260206004820152601a60248201527f496e73756666696369656e7420415243206c697175696469747900000000000060448201526064016107ba565b8115611f0457600354604051630852cd8d60e31b8152600481018490526001600160a01b03909116906342966c6890602401600060405180830381600087803b158015611eeb57600080fd5b505af1158015611eff573d6000803e3d6000fd5b505050505b60035460405163a9059cbb60e01b81526001600160a01b039091169063a9059cbb90611f369033908590600401613883565b6020604051808303816000875af1158015611f55573d6000803e3d6000fd5b505050506040513d601f19601f82011682018060405250810190611f79919061384d565b50604080518781526020810183905290810183905233907f9edc11466a9166c0daefc9317555d1d11239efee7db542e4a3104f9808ac9c48906060015b60405180910390a25050505050610f3d60018055565b611fd4613443565b8068056bc75e2d631000001480611ff3575080681043561a8829300000145b80612006575080681b1ae4d6e2ef500000145b80612019575080683635c9adc5dea00000145b61205b5760405162461bcd60e51b815260206004820152601360248201527224b73b30b634b2103a34b1b5b2ba103a34b2b960691b60448201526064016107ba565b336000908152600e602052604090206003015460ff16158061208f5750336000908152600e602052604090206007015460ff165b6120d25760405162461bcd60e51b8152602060048201526014602482015273416374697665207469636b65742065786973747360601b60448201526064016107ba565b6002546040516323b872dd60e01b81526001600160a01b03909116906323b872dd9061210690339030908690600401613829565b6020604051808303816000875af1158015612125573d6000803e3d6000fd5b505050506040513d601f19601f82011682018060405250810190612149919061384d565b50600254600580546001600160a01b039283169263a9059cbb929116906064906121739086613792565b61217d91906137c2565b6040518363ffffffff1660e01b815260040161219a929190613883565b6020604051808303816000875af11580156121b9573d6000803e3d6000fd5b505050506040513d601f19601f820116820180604052508101906121dd919061384d565b5060006121e9336125b5565b90506001600160a01b03811615612289576002546001600160a01b031663a9059cbb826064612219600a87613792565b61222391906137c2565b6040518363ffffffff1660e01b8152600401612240929190613883565b6020604051808303816000875af115801561225f573d6000803e3d6000fd5b505050506040513d601f19601f82011682018060405250810190612283919061384d565b5061231b565b6002546005546001600160a01b039182169163a9059cbb911660646122af600a87613792565b6122b991906137c2565b6040518363ffffffff1660e01b81526004016122d6929190613883565b6020604051808303816000875af11580156122f5573d6000803e3d6000fd5b505050506040513d601f19601f82011682018060405250810190612319919061384d565b505b6002546005546001600160a01b039182169163a9059cbb91166064612341600a87613792565b61234b91906137c2565b6040518363ffffffff1660e01b8152600401612368929190613883565b6020604051808303816000875af1158015612387573d6000803e3d6000fd5b505050506040513d601f19601f820116820180604052508101906123ab919061384d565b506002546006546001600160a01b039182169163a9059cbb911660646123d2600a87613792565b6123dc91906137c2565b6040518363ffffffff1660e01b81526004016123f9929190613883565b6020604051808303816000875af1158015612418573d6000803e3d6000fd5b505050506040513d601f19601f8201168201806040525081019061243c919061384d565b50604051806101000160405280838152602001606484609661245e9190613792565b61246891906137c2565b815242602080830191909152600060408084018290526060808501839052608080860184905260a080870185905260c0968701859052338552600e865293839020875181559487015160018601559186015160028501558501516003808501805492151560ff1993841617905591860151600485015591850151600584015592840151600683015560e090930151600790910180549115159190931617909155612513908390613792565b336000818152600d6020526040808220600481019490945560039093015590517f0668f5b446eb814fe35b3206f43f14bd8567ba04ddaf7a3ee56516929ab22ccb906125629085815260200190565b60405180910390a250610f3d60018055565b61257c613416565b6001600160a01b039092166000908152600d60205260409020600181019190915560020155565b6125ab613416565b611436600061346d565b6001600160a01b038082166000908152600d6020526040812054909116815b601481101561264d576001600160a01b0382166125f5575060009392505050565b6001600160a01b03821660009081526007602052604090205460ff161561261d575092915050565b6001600160a01b039182166000908152600d6020526040902054909116908061264581613810565b9150506125d4565b5060009392505050565b61265f613443565b336000908152600e6020526040902080546126ae5760405162461bcd60e51b815260206004820152600f60248201526e139bc81d985b1a59081d1a58dad95d608a1b60448201526064016107ba565b600381015460ff1615806126c65750600781015460ff165b61270a5760405162461bcd60e51b8152602060048201526015602482015274416374697665207374616b696e672065786973747360581b60448201526064016107ba565b8160071480612719575081600f145b80612724575081601e145b6127605760405162461bcd60e51b815260206004820152600d60248201526c496e76616c6964206379636c6560981b60448201526064016107ba565b600181015460006127726002836137c2565b905060006127816002846137c2565b6002546040516323b872dd60e01b81529192506001600160a01b0316906323b872dd906127b690339030908790600401613829565b6020604051808303816000875af11580156127d5573d6000803e3d6000fd5b505050506040513d601f19601f820116820180604052508101906127f9919061384d565b50600061280461328b565b90506000811161284a5760405162461bcd60e51b8152602060048201526011602482015270496e76616c69642041524320707269636560781b60448201526064016107ba565b60008161285f84670de0b6b3a7640000613792565b61286991906137c2565b6003546040516323b872dd60e01b81529192506001600160a01b0316906323b872dd9061289e90339030908690600401613829565b6020604051808303816000875af11580156128bd573d6000803e3d6000fd5b505050506040513d601f19601f820116820180604052508101906128e1919061384d565b50600354604051630852cd8d60e31b8152600481018390526001600160a01b03909116906342966c6890602401600060405180830381600087803b15801561292857600080fd5b505af115801561293c573d6000803e3d6000fd5b5050505060038681018054600160ff1991821617909155600488018790554260058901819055600689018a90556007890180549092169091556002880155865461298591613792565b336000908152600d6020526040812060048101929092556003820155546001600160a01b031680158015906129cd5750336000908152600d602052604090206005015460ff16155b15612a1c576001600160a01b0381166000908152600d602052604081206001018054916129f983613810565b9091555050336000908152600d60205260409020600501805460ff191660011790555b604080518681526020810184905290810189905233907f9cfb69573e723556113a4c1d469472ed9ef129dec950aa1680b41d930df0a78b90606001611b7c565b612a64613443565b60008111612a845760405162461bcd60e51b81526004016107ba9061389c565b600480546040516323b872dd60e01b81526001600160a01b03909116916323b872dd91612ab79133913091879101613829565b6020604051808303816000875af1158015612ad6573d6000803e3d6000fd5b505050506040513d601f19601f82011682018060405250810190612afa919061384d565b5060006064612b0a836003613792565b612b1491906137c2565b90506000612b2282846138c4565b90508115612ba2576004805460405163a9059cbb60e01b81526001600160a01b039091169163a9059cbb91612b5d9161dead91879101613883565b6020604051808303816000875af1158015612b7c573d6000803e3d6000fd5b505050506040513d601f19601f82011682018060405250810190612ba0919061384d565b505b600480546040516370a0823160e01b8152309281019290925260009183916001600160a01b0316906370a0823190602401602060405180830381865afa158015612bf0573d6000803e3d6000fd5b505050506040513d601f19601f82011682018060405250810190612c14919061386a565b612c1e91906138c4565b6002546040516370a0823160e01b81523060048201529192506000916001600160a01b03909116906370a0823190602401602060405180830381865afa158015612c6c573d6000803e3d6000fd5b505050506040513d601f19601f82011682018060405250810190612c90919061386a565b90506000612c9f8484846108d5565b6002546040516370a0823160e01b815230600482015291925082916001600160a01b03909116906370a0823190602401602060405180830381865afa158015612cec573d6000803e3d6000fd5b505050506040513d601f19601f82011682018060405250810190612d10919061386a565b1015612d5e5760405162461bcd60e51b815260206004820152601b60248201527f496e73756666696369656e742055534454206c6971756964697479000000000060448201526064016107ba565b60025460405163a9059cbb60e01b81526001600160a01b039091169063a9059cbb90612d909033908590600401613883565b6020604051808303816000875af1158015612daf573d6000803e3d6000fd5b505050506040513d601f19601f82011682018060405250810190612dd3919061384d565b50604080518781526020810183905290810186905233907f0dfd0a4092ab5d99c1109d22a6d2f9b70cb2d865e7971f7ef393e623f60295ae90606001611fb6565b612e1c613416565b806001600160a01b0316826001600160a01b031603612e705760405162461bcd60e51b815260206004820152601060248201526f21b0b73737ba103134b7321039b2b63360811b60448201526064016107ba565b6001600160a01b038083166000908152600d6020526040902080548383166001600160a01b0319821617909155168015612fc7576001600160a01b0381166000908152600f60205260408120905b8154811015612fc457846001600160a01b0316828281548110612ee357612ee36137fa565b6000918252602090912001546001600160a01b031603612fb25781548290612f0d906001906138c4565b81548110612f1d57612f1d6137fa565b9060005260206000200160009054906101000a90046001600160a01b0316828281548110612f4d57612f4d6137fa565b9060005260206000200160006101000a8154816001600160a01b0302191690836001600160a01b0316021790555081805480612f8b57612f8b6138d7565b600082815260209020810160001990810180546001600160a01b0319169055019055612fc4565b80612fbc81613810565b915050612ebe565b50505b6001600160a01b03821615613015576001600160a01b038281166000908152600f602090815260408220805460018101825590835291200180546001600160a01b0319169185169190911790555b505050565b613022613416565b6001600160a01b03919091166000908152600760205260409020805460ff1916911515919091179055565b613055613443565b336000908152600e60205260409020600381015460ff16801561307d5750600781015460ff16155b6130b95760405162461bcd60e51b815260206004820152600d60248201526c43616e6e6f742072656465656d60981b60448201526064016107ba565b60068101546130cb9062015180613792565b81600501546130da91906137af565b42101561311e5760405162461bcd60e51b815260206004820152601260248201527110de58db19481b9bdd08199a5b9a5cda195960721b60448201526064016107ba565b60025460048083015460405163a9059cbb60e01b81526001600160a01b039093169263a9059cbb92613154923392909101613883565b6020604051808303816000875af1158015613173573d6000803e3d6000fd5b505050506040513d601f19601f82011682018060405250810190613197919061384d565b5060078101805460ff19908116600117909155336000818152600d602052604080822060050180549094169093556004840154925191927ff3a670cd3af7d64b488926880889d08a8585a138ff455227af6737339a1ec262926132039290918252602082015260400190565b60405180910390a25061143660018055565b6001600160a01b0381166000908152600f602090815260409182902080548351818402810184019094528084526060939283018282801561327f57602002820191906000526020600020905b81546001600160a01b03168152600190910190602001808311613261575b50505050509050919050565b6002546040516370a0823160e01b815230600482015260009182916001600160a01b03909116906370a0823190602401602060405180830381865afa1580156132d8573d6000803e3d6000fd5b505050506040513d601f19601f820116820180604052508101906132fc919061386a565b6003546040516370a0823160e01b81523060048201529192506000916001600160a01b03909116906370a0823190602401602060405180830381865afa15801561334a573d6000803e3d6000fd5b505050506040513d601f19601f8201168201806040525081019061336e919061386a565b9050806000036133815760009250505090565b8061339483670de0b6b3a7640000613792565b61339e91906137c2565b9250505090565b6133ad613416565b600580546001600160a01b039384166001600160a01b03199182161790915560068054929093169116179055565b6133e3613416565b6001600160a01b03811661340d57604051631e4fbdf760e01b8152600060048201526024016107ba565b610f3d8161346d565b6000546001600160a01b031633146114365760405163118cdaa760e01b81523360048201526024016107ba565b60026001540361346657604051633ee5aeb560e01b815260040160405180910390fd5b6002600155565b600080546001600160a01b038381166001600160a01b0319831681178455604051919092169283917f8be0079c531659141344cd1fd0a4f28419497f9722a3daafe3b4186f6b6457e09190a35050565b80356001600160a01b03811681146134d457600080fd5b919050565b6000602082840312156134eb57600080fd5b6134f4826134bd565b9392505050565b60008060006060848603121561351057600080fd5b505081359360208301359350604090920135919050565b6000806040838503121561353a57600080fd5b613543836134bd565b946020939093013593505050565b602080825282518282018190526000919060409081850190868401855b828110156135a657815180516001600160a01b031685528681015187860152850151858501526060909301929085019060010161356e565b5091979650505050505050565b60008083601f8401126135c557600080fd5b50813567ffffffffffffffff8111156135dd57600080fd5b6020830191508360208260051b85010111156135f857600080fd5b9250929050565b6000806000806040858703121561361557600080fd5b843567ffffffffffffffff8082111561362d57600080fd5b613639888389016135b3565b9096509450602087013591508082111561365257600080fd5b5061365f878288016135b3565b95989497509550505050565b60006020828403121561367d57600080fd5b5035919050565b8015158114610f3d57600080fd5b600080604083850312156136a557600080fd5b6136ae836134bd565b915060208301356136be81613684565b809150509250929050565b6000806000606084860312156136de57600080fd5b6136e7846134bd565b95602085013595506040909401359392505050565b6000806040838503121561370f57600080fd5b613718836134bd565b9150613726602084016134bd565b90509250929050565b6020808252825182820181905260009190848201906040850190845b818110156137705783516001600160a01b03168352928401929184019160010161374b565b50909695505050505050565b634e487b7160e01b600052601160045260246000fd5b80820281158282048414176137a9576137a961377c565b92915050565b808201808211156137a9576137a961377c565b6000826137df57634e487b7160e01b600052601260045260246000fd5b500490565b634e487b7160e01b600052604160045260246000fd5b634e487b7160e01b600052603260045260246000fd5b6000600182016138225761382261377c565b5060010190565b6001600160a01b039384168152919092166020820152604081019190915260600190565b60006020828403121561385f57600080fd5b81516134f481613684565b60006020828403121561387c57600080fd5b5051919050565b6001600160a01b03929092168252602082015260400190565b6020808252600e908201526d125b9d985b1a5908185b5bdd5b9d60921b604082015260600190565b818103818111156137a9576137a961377c565b634e487b7160e01b600052603160045260246000fdfea26469706673582212209f22a9a24573657dc6253565402ace21e1bd6653d8586210026f02487fcd36e564736f6c63430008140033",
  "linkReferences": {},
  "deployedLinkReferences": {}
}