{
  "_format": "hh-sol-artifact-1",
  "contractName": "ArchimedesProtocol",
  "sourceName": "contracts/ArchimedesProtocol.sol",
  "abi": [
    {
      "inputs": [
        {
          "internalType": "address",
          "name": "_usdtToken",
          "type": "address"
        },
        {
          "internalType": "address",
          "name": "_arcToken",
          "type": "address"
        },
        {
          "internalType": "address",
          "name": "_desToken",
          "type": "address"
        },
        {
          "internalType": "address",
          "name": "_platformWallet",
          "type": "address"
        },
        {
          "internalType": "address",
          "name": "_lpWallet",
          "type": "address"
        }
      ],
      "stateMutability": "nonpayable",
      "type": "constructor"
    },
    {
      "inputs": [
        {
          "internalType": "address",
          "name": "owner",
          "type": "address"
        }
      ],
      "name": "OwnableInvalidOwner",
      "type": "error"
    },
    {
      "inputs": [
        {
          "internalType": "address",
          "name": "account",
          "type": "address"
        }
      ],
      "name": "OwnableUnauthorizedAccount",
      "type": "error"
    },
    {
      "inputs": [],
      "name": "ReentrancyGuardReentrantCall",
      "type": "error"
    },
    {
      "anonymous": false,
      "inputs": [
        {
          "indexed": true,
          "internalType": "address",
          "name": "user",
          "type": "address"
        },
        {
          "indexed": true,
          "internalType": "address",
          "name": "referrer",
          "type": "address"
        }
      ],
      "name": "BoundReferrer",
      "type": "event"
    },
    {
      "anonymous": false,
      "inputs": [
        {
          "indexed": false,
          "internalType": "uint256",
          "name": "amount",
          "type": "uint256"
        }
      ],
      "name": "DailyBurn",
      "type": "event"
    },
    {
      "anonymous": false,
      "inputs": [
        {
          "indexed": true,
          "internalType": "address",
          "name": "user",
          "type": "address"
        },
        {
          "indexed": false,
          "internalType": "uint256",
          "name": "amount",
          "type": "uint256"
        },
        {
          "indexed": false,
          "internalType": "uint256",
          "name": "cycleDays",
          "type": "uint256"
        }
      ],
      "name": "LiquidityStaked",
      "type": "event"
    },
    {
      "anonymous": false,
      "inputs": [
        {
          "indexed": true,
          "internalType": "address",
          "name": "previousOwner",
          "type": "address"
        },
        {
          "indexed": true,
          "internalType": "address",
          "name": "newOwner",
          "type": "address"
        }
      ],
      "name": "OwnershipTransferred",
      "type": "event"
    },
    {
      "anonymous": false,
      "inputs": [
        {
          "indexed": true,
          "internalType": "address",
          "name": "user",
          "type": "address"
        },
        {
          "indexed": false,
          "internalType": "uint256",
          "name": "principal",
          "type": "uint256"
        },
        {
          "indexed": false,
          "internalType": "uint256",
          "name": "fee",
          "type": "uint256"
        }
      ],
      "name": "Redeemed",
      "type": "event"
    },
    {
      "anonymous": false,
      "inputs": [
        {
          "indexed": true,
          "internalType": "address",
          "name": "user",
          "type": "address"
        },
        {
          "indexed": false,
          "internalType": "uint256",
          "name": "usdtAmount",
          "type": "uint256"
        },
        {
          "indexed": false,
          "internalType": "uint256",
          "name": "arcAmount",
          "type": "uint256"
        },
        {
          "indexed": false,
          "internalType": "uint256",
          "name": "cycleDays",
          "type": "uint256"
        }
      ],
      "name": "Reinvested",
      "type": "event"
    },
    {
      "anonymous": false,
      "inputs": [
        {
          "indexed": true,
          "internalType": "address",
          "name": "user",
          "type": "address"
        },
        {
          "indexed": false,
          "internalType": "uint256",
          "name": "usdtAmount",
          "type": "uint256"
        },
        {
          "indexed": false,
          "internalType": "uint256",
          "name": "arcAmount",
          "type": "uint256"
        }
      ],
      "name": "RewardClaimed",
      "type": "event"
    },
    {
      "anonymous": false,
      "inputs": [
        {
          "indexed": true,
          "internalType": "address",
          "name": "user",
          "type": "address"
        },
        {
          "indexed": false,
          "internalType": "uint256",
          "name": "arcAmount",
          "type": "uint256"
        },
        {
          "indexed": false,
          "internalType": "uint256",
          "name": "usdtAmount",
          "type": "uint256"
        },
        {
          "indexed": false,
          "internalType": "uint256",
          "name": "tax",
          "type": "uint256"
        }
      ],
      "name": "SwappedARCToUSDT",
      "type": "event"
    },
    {
      "anonymous": false,
      "inputs": [
        {
          "indexed": true,
          "internalType": "address",
          "name": "user",
          "type": "address"
        },
        {
          "indexed": false,
          "internalType": "uint256",
          "name": "desAmount",
          "type": "uint256"
        },
        {
          "indexed": false,
          "internalType": "uint256",
          "name": "usdtAmount",
          "type": "uint256"
        },
        {
          "indexed": false,
          "internalType": "uint256",
          "name": "tax",
          "type": "uint256"
        }
      ],
      "name": "SwappedDESToUSDT",
      "type": "event"
    },
    {
      "anonymous": false,
      "inputs": [
        {
          "indexed": true,
          "internalType": "address",
          "name": "user",
          "type": "address"
        },
        {
          "indexed": false,
          "internalType": "uint256",
          "name": "usdtAmount",
          "type": "uint256"
        },
        {
          "indexed": false,
          "internalType": "uint256",
          "name": "arcAmount",
          "type": "uint256"
        },
        {
          "indexed": false,
          "internalType": "uint256",
          "name": "tax",
          "type": "uint256"
        }
      ],
      "name": "SwappedUSDTToARC",
      "type": "event"
    },
    {
      "anonymous": false,
      "inputs": [
        {
          "indexed": true,
          "internalType": "address",
          "name": "user",
          "type": "address"
        },
        {
          "indexed": false,
          "internalType": "uint256",
          "name": "usdtAmount",
          "type": "uint256"
        },
        {
          "indexed": false,
          "internalType": "uint256",
          "name": "desAmount",
          "type": "uint256"
        }
      ],
      "name": "SwappedUSDTToDES",
      "type": "event"
    },
    {
      "anonymous": false,
      "inputs": [
        {
          "indexed": true,
          "internalType": "address",
          "name": "user",
          "type": "address"
        },
        {
          "indexed": false,
          "internalType": "uint256",
          "name": "amount",
          "type": "uint256"
        }
      ],
      "name": "TicketPurchased",
      "type": "event"
    },
    {
      "inputs": [],
      "name": "ARC_POOL_PERCENT",
      "outputs": [
        {
          "internalType": "uint256",
          "name": "",
          "type": "uint256"
        }
      ],
      "stateMutability": "view",
      "type": "function"
    },
    {
      "inputs": [],
      "name": "DES_BUY_BURN_PERCENT",
      "outputs": [
        {
          "internalType": "uint256",
          "name": "",
          "type": "uint256"
        }
      ],
      "stateMutability": "view",
      "type": "function"
    },
    {
      "inputs": [],
      "name": "NODE_DIVIDEND_PERCENT",
      "outputs": [
        {
          "internalType": "uint256",
          "name": "",
          "type": "uint256"
        }
      ],
      "stateMutability": "view",
      "type": "function"
    },
    {
      "inputs": [],
      "name": "OFFICE_REWARD_PERCENT",
      "outputs": [
        {
          "internalType": "uint256",
          "name": "",
          "type": "uint256"
        }
      ],
      "stateMutability": "view",
      "type": "function"
    },
    {
      "inputs": [],
      "name": "PLATFORM_PERCENT",
      "outputs": [
        {
          "internalType": "uint256",
          "name": "",
          "type": "uint256"
        }
      ],
      "stateMutability": "view",
      "type": "function"
    },
    {
      "inputs": [],
      "name": "SECONDS_IN_DAY",
      "outputs": [
        {
          "internalType": "uint256",
          "name": "",
          "type": "uint256"
        }
      ],
      "stateMutability": "view",
      "type": "function"
    },
    {
      "inputs": [
        {
          "internalType": "address",
          "name": "user",
          "type": "address"
        },
        {
          "internalType": "address",
          "name": "newReferrer",
          "type": "address"
        }
      ],
      "name": "adminSetReferrer",
      "outputs": [],
      "stateMutability": "nonpayable",
      "type": "function"
    },
    {
      "inputs": [
        {
          "internalType": "address",
          "name": "user",
          "type": "address"
        },
        {
          "internalType": "uint256",
          "name": "_activeDirects",
          "type": "uint256"
        },
        {
          "internalType": "uint256",
          "name": "_teamCount",
          "type": "uint256"
        }
      ],
      "name": "adminSetUserStats",
      "outputs": [],
      "stateMutability": "nonpayable",
      "type": "function"
    },
    {
      "inputs": [],
      "name": "arcBuyTax",
      "outputs": [
        {
          "internalType": "uint256",
          "name": "",
          "type": "uint256"
        }
      ],
      "stateMutability": "view",
      "type": "function"
    },
    {
      "inputs": [],
      "name": "arcSellTax",
      "outputs": [
        {
          "internalType": "uint256",
          "name": "",
          "type": "uint256"
        }
      ],
      "stateMutability": "view",
      "type": "function"
    },
    {
      "inputs": [],
      "name": "arcToken",
      "outputs": [
        {
          "internalType": "contract IARC",
          "name": "",
          "type": "address"
        }
      ],
      "stateMutability": "view",
      "type": "function"
    },
    {
      "inputs": [
        {
          "internalType": "address",
          "name": "_referrer",
          "type": "address"
        }
      ],
      "name": "bindReferrer",
      "outputs": [],
      "stateMutability": "nonpayable",
      "type": "function"
    },
    {
      "inputs": [
        {
          "internalType": "uint256",
          "name": "amount",
          "type": "uint256"
        }
      ],
      "name": "buyTicket",
      "outputs": [],
      "stateMutability": "nonpayable",
      "type": "function"
    },
    {
      "inputs": [],
      "name": "claimRewards",
      "outputs": [],
      "stateMutability": "nonpayable",
      "type": "function"
    },
    {
      "inputs": [],
      "name": "desFeeFixed",
      "outputs": [
        {
          "internalType": "uint256",
          "name": "",
          "type": "uint256"
        }
      ],
      "stateMutability": "view",
      "type": "function"
    },
    {
      "inputs": [],
      "name": "desFeeRate",
      "outputs": [
        {
          "internalType": "uint256",
          "name": "",
          "type": "uint256"
        }
      ],
      "stateMutability": "view",
      "type": "function"
    },
    {
      "inputs": [],
      "name": "desToken",
      "outputs": [
        {
          "internalType": "contract IERC20",
          "name": "",
          "type": "address"
        }
      ],
      "stateMutability": "view",
      "type": "function"
    },
    {
      "inputs": [
        {
          "internalType": "address",
          "name": "",
          "type": "address"
        },
        {
          "internalType": "uint256",
          "name": "",
          "type": "uint256"
        }
      ],
      "name": "directReferrals",
      "outputs": [
        {
          "internalType": "address",
          "name": "",
          "type": "address"
        }
      ],
      "stateMutability": "view",
      "type": "function"
    },
    {
      "inputs": [
        {
          "internalType": "address",
          "name": "startUser",
          "type": "address"
        }
      ],
      "name": "findNearestOffice",
      "outputs": [
        {
          "internalType": "address",
          "name": "",
          "type": "address"
        }
      ],
      "stateMutability": "view",
      "type": "function"
    },
    {
      "inputs": [],
      "name": "getARCPrice",
      "outputs": [
        {
          "internalType": "uint256",
          "name": "",
          "type": "uint256"
        }
      ],
      "stateMutability": "view",
      "type": "function"
    },
    {
      "inputs": [
        {
          "internalType": "uint256",
          "name": "amountIn",
          "type": "uint256"
        },
        {
          "internalType": "uint256",
          "name": "reserveIn",
          "type": "uint256"
        },
        {
          "internalType": "uint256",
          "name": "reserveOut",
          "type": "uint256"
        }
      ],
      "name": "getAmountOut",
      "outputs": [
        {
          "internalType": "uint256",
          "name": "",
          "type": "uint256"
        }
      ],
      "stateMutability": "pure",
      "type": "function"
    },
    {
      "inputs": [],
      "name": "getDesPrice",
      "outputs": [
        {
          "internalType": "uint256",
          "name": "",
          "type": "uint256"
        }
      ],
      "stateMutability": "view",
      "type": "function"
    },
    {
      "inputs": [
        {
          "internalType": "address",
          "name": "_user",
          "type": "address"
        }
      ],
      "name": "getDirectReferrals",
      "outputs": [
        {
          "internalType": "address[]",
          "name": "",
          "type": "address[]"
        }
      ],
      "stateMutability": "view",
      "type": "function"
    },
    {
      "inputs": [
        {
          "internalType": "address",
          "name": "_user",
          "type": "address"
        }
      ],
      "name": "getDirectReferralsData",
      "outputs": [
        {
          "components": [
            {
              "internalType": "address",
              "name": "user",
              "type": "address"
            },
            {
              "internalType": "uint256",
              "name": "ticketAmount",
              "type": "uint256"
            },
            {
              "internalType": "uint256",
              "name": "joinTime",
              "type": "uint256"
            }
          ],
          "internalType": "struct ArchimedesProtocol.ReferralData[]",
          "name": "",
          "type": "tuple[]"
        }
      ],
      "stateMutability": "view",
      "type": "function"
    },
    {
      "inputs": [
        {
          "internalType": "address",
          "name": "",
          "type": "address"
        }
      ],
      "name": "isCommunityOffice",
      "outputs": [
        {
          "internalType": "bool",
          "name": "",
          "type": "bool"
        }
      ],
      "stateMutability": "view",
      "type": "function"
    },
    {
      "inputs": [
        {
          "internalType": "address",
          "name": "",
          "type": "address"
        }
      ],
      "name": "isWhitelist",
      "outputs": [
        {
          "internalType": "bool",
          "name": "",
          "type": "bool"
        }
      ],
      "stateMutability": "view",
      "type": "function"
    },
    {
      "inputs": [],
      "name": "lastBurnTime",
      "outputs": [
        {
          "internalType": "uint256",
          "name": "",
          "type": "uint256"
        }
      ],
      "stateMutability": "view",
      "type": "function"
    },
    {
      "inputs": [],
      "name": "lpWallet",
      "outputs": [
        {
          "internalType": "address",
          "name": "",
          "type": "address"
        }
      ],
      "stateMutability": "view",
      "type": "function"
    },
    {
      "inputs": [],
      "name": "owner",
      "outputs": [
        {
          "internalType": "address",
          "name": "",
          "type": "address"
        }
      ],
      "stateMutability": "view",
      "type": "function"
    },
    {
      "inputs": [],
      "name": "platformWallet",
      "outputs": [
        {
          "internalType": "address",
          "name": "",
          "type": "address"
        }
      ],
      "stateMutability": "view",
      "type": "function"
    },
    {
      "inputs": [],
      "name": "redeem",
      "outputs": [],
      "stateMutability": "nonpayable",
      "type": "function"
    },
    {
      "inputs": [
        {
          "internalType": "uint256",
          "name": "cycleDays",
          "type": "uint256"
        }
      ],
      "name": "reinvest",
      "outputs": [],
      "stateMutability": "nonpayable",
      "type": "function"
    },
    {
      "inputs": [],
      "name": "renounceOwnership",
      "outputs": [],
      "stateMutability": "nonpayable",
      "type": "function"
    },
    {
      "inputs": [
        {
          "internalType": "address",
          "name": "office",
          "type": "address"
        },
        {
          "internalType": "bool",
          "name": "status",
          "type": "bool"
        }
      ],
      "name": "setCommunityOffice",
      "outputs": [],
      "stateMutability": "nonpayable",
      "type": "function"
    },
    {
      "inputs": [
        {
          "internalType": "address",
          "name": "_platform",
          "type": "address"
        },
        {
          "internalType": "address",
          "name": "_lp",
          "type": "address"
        }
      ],
      "name": "setWallets",
      "outputs": [],
      "stateMutability": "nonpayable",
      "type": "function"
    },
    {
      "inputs": [
        {
          "internalType": "address",
          "name": "user",
          "type": "address"
        },
        {
          "internalType": "bool",
          "name": "status",
          "type": "bool"
        }
      ],
      "name": "setWhitelist",
      "outputs": [],
      "stateMutability": "nonpayable",
      "type": "function"
    },
    {
      "inputs": [
        {
          "internalType": "uint256",
          "name": "cycleDays",
          "type": "uint256"
        }
      ],
      "name": "stakeLiquidity",
      "outputs": [],
      "stateMutability": "nonpayable",
      "type": "function"
    },
    {
      "inputs": [
        {
          "internalType": "uint256",
          "name": "arcAmount",
          "type": "uint256"
        }
      ],
      "name": "swapARCToUSDT",
      "outputs": [],
      "stateMutability": "nonpayable",
      "type": "function"
    },
    {
      "inputs": [
        {
          "internalType": "uint256",
          "name": "desAmount",
          "type": "uint256"
        }
      ],
      "name": "swapDESToUSDT",
      "outputs": [],
      "stateMutability": "nonpayable",
      "type": "function"
    },
    {
      "inputs": [
        {
          "internalType": "uint256",
          "name": "usdtAmount",
          "type": "uint256"
        }
      ],
      "name": "swapUSDTToARC",
      "outputs": [],
      "stateMutability": "nonpayable",
      "type": "function"
    },
    {
      "inputs": [
        {
          "internalType": "uint256",
          "name": "usdtAmount",
          "type": "uint256"
        }
      ],
      "name": "swapUSDTToDES",
      "outputs": [],
      "stateMutability": "nonpayable",
      "type": "function"
    },
    {
      "inputs": [
        {
          "internalType": "address",
          "name": "newOwner",
          "type": "address"
        }
      ],
      "name": "transferOwnership",
      "outputs": [],
      "stateMutability": "nonpayable",
      "type": "function"
    },
    {
      "inputs": [],
      "name": "usdtToken",
      "outputs": [
        {
          "internalType": "contract IERC20",
          "name": "",
          "type": "address"
        }
      ],
      "stateMutability": "view",
      "type": "function"
    },
    {
      "inputs": [
        {
          "internalType": "address",
          "name": "",
          "type": "address"
        }
      ],
      "name": "userInfo",
      "outputs": [
        {
          "internalType": "address",
          "name": "referrer",
          "type": "address"
        },
        {
          "internalType": "uint256",
          "name": "activeDirects",
          "type": "uint256"
        },
        {
          "internalType": "uint256",
          "name": "teamCount",
          "type": "uint256"
        },
        {
          "internalType": "uint256",
          "name": "totalRevenue",
          "type": "uint256"
        },
        {
          "internalType": "uint256",
          "name": "currentCap",
          "type": "uint256"
        },
        {
          "internalType": "bool",
          "name": "isActive",
          "type": "bool"
        }
      ],
      "stateMutability": "view",
      "type": "function"
    },
    {
      "inputs": [
        {
          "internalType": "address",
          "name": "",
          "type": "address"
        }
      ],
      "name": "userTicket",
      "outputs": [
        {
          "internalType": "uint256",
          "name": "amount",
          "type": "uint256"
        },
        {
          "internalType": "uint256",
          "name": "requiredLiquidity",
          "type": "uint256"
        },
        {
          "internalType": "uint256",
          "name": "purchaseTime",
          "type": "uint256"
        },
        {
          "internalType": "bool",
          "name": "liquidityProvided",
          "type": "bool"
        },
        {
          "internalType": "uint256",
          "name": "liquidityAmount",
          "type": "uint256"
        },
        {
          "internalType": "uint256",
          "name": "startTime",
          "type": "uint256"
        },
        {
          "internalType": "uint256",
          "name": "cycleDays",
          "type": "uint256"
        },
        {
          "internalType": "bool",
          "name": "redeemed",
          "type": "bool"
        }
      ],
      "stateMutability": "view",
      "type": "function"
    }
  ],
  "bytecode": "0x608060405260006009556005600a556729a2241af62c0000600b556005600c553480156200002c57600080fd5b5060405162003b4538038062003b458339810160408190526200004f9162000156565b33806200007657604051631e4fbdf760e01b81526000600482015260240160405180910390fd5b6200008181620000e9565b5060018055600280546001600160a01b03199081166001600160a01b03978816179091556003805482169587169590951790945560048054851693861693909317909255600580548416918516919091179055600680549092169216919091179055620001c6565b600080546001600160a01b038381166001600160a01b0319831681178455604051919092169283917f8be0079c531659141344cd1fd0a4f28419497f9722a3daafe3b4186f6b6457e09190a35050565b80516001600160a01b03811681146200015157600080fd5b919050565b600080600080600060a086880312156200016f57600080fd5b6200017a8662000139565b94506200018a6020870162000139565b93506200019a6040870162000139565b9250620001aa6060870162000139565b9150620001ba6080870162000139565b90509295509295909350565b61396f80620001d66000396000f3fe608060405234801561001057600080fd5b506004361061027f5760003560e01c806372367b151161015c578063be040fb0116100ce578063d395663011610087578063d395663014610638578063d3f6a15714610640578063e1b68b8c14610653578063e306744914610666578063f2fde38b1461066f578063fa2af9da1461068257600080fd5b8063be040fb0146105c9578063be0c962d146105d1578063c0112678146105da578063c130ebc7146105ed578063c683630d146105f5578063d2c8e0e51461061857600080fd5b80638da5cb5b116101205780638da5cb5b1461056c5780639ad7246c1461057d578063a2af922614610590578063a98ad46c146105a3578063af92030d146103fc578063bcc0c37d146105b657600080fd5b806372367b15146103fc578063802cf247146104a357806383b4918b146104b6578063862f4282146104c95780638710bcaa146104d757600080fd5b8063499984fc116101f55780636072e742116101b95780636072e7421461044f57806361a52a36146104585780636303516c1461046257806367dd74ca146104755780636fb3c47c14610488578063715018a61461049b57600080fd5b8063499984fc1461040457806353d6fd5914610417578063554f522f1461042a578063567b1ac91461043d5780635c67a5e01461044657600080fd5b8063168227b911610247578063168227b91461033d5780631959a0021461034557806335076373146103ce578063372500ab146103e157806338729c29146103e957806348981d8a146103fc57600080fd5b806304f618cb14610284578063054d50d41461029957806305ad3935146102bf5780630fc4fc1a146102ea5780631346c90e1461030a575b600080fd5b6102976102923660046135dd565b610695565b005b6102ac6102a73660046135ff565b610802565b6040519081526020015b60405180910390f35b6102d26102cd36600461362b565b6108d8565b6040516001600160a01b0390911681526020016102b6565b6102fd6102f83660046135dd565b610910565b6040516102b69190613655565b61032d6103183660046135dd565b60076020526000908152604090205460ff1681565b60405190151581526020016102b6565b6102ac604181565b6103956103533660046135dd565b600d602052600090815260409020805460018201546002830154600384015460048501546005909501546001600160a01b039094169492939192909160ff1686565b604080516001600160a01b03909716875260208701959095529385019290925260608401526080830152151560a082015260c0016102b6565b6102976103dc3660046136b7565b610b00565b610297610d87565b6102976103f73660046136b7565b611562565b6102ac600a81565b6102976104123660046136b7565b61186c565b6102976104253660046136de565b611cbe565b6102976104383660046136b7565b611cf1565b6102ac60095481565b6102ac600b5481565b6102ac600c5481565b6102ac6201518081565b6006546102d2906001600160a01b031681565b6102976104833660046136b7565b6120f6565b610297610496366004613715565b61269e565b6102976126cd565b6102d26104b13660046135dd565b6126df565b6102976104c43660046136b7565b612781565b670de0b6b3a76400006102ac565b61052f6104e53660046135dd565b600e602052600090815260409020805460018201546002830154600384015460048501546005860154600687015460079097015495969495939460ff938416949293919290911688565b604080519889526020890197909752958701949094529115156060860152608085015260a084015260c0830152151560e0820152610100016102b6565b6000546001600160a01b03166102d2565b61029761058b3660046136b7565b612b60565b61029761059e366004613748565b612f18565b6002546102d2906001600160a01b031681565b6102976105c43660046136de565b61311e565b610297613151565b6102ac600a5481565b6003546102d2906001600160a01b031681565b6102ac600581565b61032d6106033660046135dd565b60086020526000908152604090205460ff1681565b61062b6106263660046135dd565b613319565b6040516102b6919061377b565b6102ac61338f565b61029761064e366004613748565b6134a9565b6004546102d2906001600160a01b031681565b6102ac60105481565b61029761067d3660046135dd565b6134df565b6005546102d2906001600160a01b031681565b336000908152600d60205260409020546001600160a01b0316156106f05760405162461bcd60e51b815260206004820152600d60248201526c105b1c9958591e48189bdd5b99609a1b60448201526064015b60405180910390fd5b336001600160a01b0382160361073b5760405162461bcd60e51b815260206004820152601060248201526f21b0b73737ba103134b7321039b2b63360811b60448201526064016106e7565b6001600160a01b0381166107845760405162461bcd60e51b815260206004820152601060248201526f24b73b30b634b2103932b332b93932b960811b60448201526064016106e7565b336000818152600d6020908152604080832080546001600160a01b0387166001600160a01b03199182168117909255818552600f8452828520805460018101825590865293852090930180549093168517909255519092917fa6dbb5aa28f35437de94d685d66edce5fb4812196b4984b91dfd5a7b38c0fb3091a350565b60008084116108535760405162461bcd60e51b815260206004820152601960248201527f496e73756666696369656e7420696e70757420616d6f756e740000000000000060448201526064016106e7565b6000831180156108635750600082115b6108a85760405162461bcd60e51b8152602060048201526016602482015275496e73756666696369656e74206c697175696469747960501b60448201526064016106e7565b60006108b483866137de565b905060006108c286866137fb565b90506108ce818361380e565b9695505050505050565b600f60205281600052604060002081815481106108f457600080fd5b6000918252602090912001546001600160a01b03169150829050565b6001600160a01b0381166000908152600f6020908152604080832080548251818502810185019093528083526060949383018282801561097957602002820191906000526020600020905b81546001600160a01b0316815260019091019060200180831161095b575b505050505090506000815167ffffffffffffffff81111561099c5761099c613830565b6040519080825280602002602001820160405280156109fa57816020015b6109e7604051806060016040528060006001600160a01b0316815260200160008152602001600081525090565b8152602001906001900390816109ba5790505b50905060005b8251811015610af8576040518060600160405280848381518110610a2657610a26613846565b60200260200101516001600160a01b03168152602001600e6000868581518110610a5257610a52613846565b60200260200101516001600160a01b03166001600160a01b03168152602001908152602001600020600001548152602001600e6000868581518110610a9957610a99613846565b60200260200101516001600160a01b03166001600160a01b0316815260200190815260200160002060020154815250828281518110610ada57610ada613846565b60200260200101819052508080610af09061385c565b915050610a00565b509392505050565b610b0861351a565b336000908152600e60205260409020805415801590610b2c5750600381015460ff16155b610b6a5760405162461bcd60e51b815260206004820152600f60248201526e139bc81d985b1a59081d1a58dad95d608a1b60448201526064016106e7565b6002810154610b7c906203f4806137fb565b421115610bbc5760405162461bcd60e51b815260206004820152600e60248201526d151a58dad95d08195e1c1a5c995960921b60448201526064016106e7565b8160071480610bcb575081600f145b80610bd6575081601e145b610c125760405162461bcd60e51b815260206004820152600d60248201526c496e76616c6964206379636c6560981b60448201526064016106e7565b60018101546002546040516323b872dd60e01b81526001600160a01b03909116906323b872dd90610c4b90339030908690600401613875565b6020604051808303816000875af1158015610c6a573d6000803e3d6000fd5b505050506040513d601f19601f82011682018060405250810190610c8e9190613899565b5060038201805460ff191660011790556004820181905542600583015560068201839055336000908152600d60205260409020546001600160a01b03168015801590610ced5750336000908152600d602052604090206005015460ff16155b15610d3c576001600160a01b0381166000908152600d60205260408120600101805491610d198361385c565b9091555050336000908152600d60205260409020600501805460ff191660011790555b604080518381526020810186905233917f1e54d7530dad81af38adb8ca9db02add3130668375f37be85396403616fc3d4991015b60405180910390a2505050610d8460018055565b50565b610d8f61351a565b336000908152600e60205260409020600381015460ff168015610db75750600781015460ff16155b610df05760405162461bcd60e51b815260206004820152600a6024820152694e6f742061637469766560b01b60448201526064016106e7565b60008160060154600703610e0657506014610e2a565b8160060154600f03610e1a57506019610e2a565b8160060154601e03610e2a5750601e5b600062015180836005015442610e4091906138b6565b610e4a919061380e565b905060008111610e8d5760405162461bcd60e51b815260206004820152600e60248201526d139bc81c995dd85c991cc81e595d60921b60448201526064016106e7565b8260060154811115610ea0575060068201545b60006103e882848660000154610eb691906137de565b610ec091906137de565b610eca919061380e565b336000908152600d60205260409020600481015460039091015491925090610ef39083906137fb565b1115610f2057336000908152600d602052604090206003810154600490910154610f1d91906138b6565b90505b60008111610f665760405162461bcd60e51b81526020600482015260136024820152724e6f207265776172647320746f20636c61696d60681b60448201526064016106e7565b670de0b6b3a764000060006064600c5484610f8191906137de565b610f8b919061380e565b9050600082610fa283670de0b6b3a76400006137de565b610fac919061380e565b90506000600b5482610fbe91906137fb565b600480546040516370a0823160e01b8152339281019290925291925082916001600160a01b0316906370a0823190602401602060405180830381865afa15801561100c573d6000803e3d6000fd5b505050506040513d601f19601f8201168201806040525081019061103091906138c9565b101561107e5760405162461bcd60e51b815260206004820152601860248201527f496e73756666696369656e742044455320666f7220666565000000000000000060448201526064016106e7565b336000908152600d60205260409020546001600160a01b031680156111a757821561111b57600480546040516323b872dd60e01b81526001600160a01b03909116916323b872dd916110d69133918691899101613875565b6020604051808303816000875af11580156110f5573d6000803e3d6000fd5b505050506040513d601f19601f820116820180604052508101906111199190613899565b505b600b54156111a25760048054600554600b546040516323b872dd60e01b81526001600160a01b03938416946323b872dd9461115d943394911692909101613875565b6020604051808303816000875af115801561117c573d6000803e3d6000fd5b505050506040513d601f19601f820116820180604052508101906111a09190613899565b505b611223565b600480546005546040516323b872dd60e01b81526001600160a01b03928316936323b872dd936111de933393911691889101613875565b6020604051808303816000875af11580156111fd573d6000803e3d6000fd5b505050506040513d601f19601f820116820180604052508101906112219190613899565b505b336000908152600d6020526040812060030180548892906112459084906137fb565b909155506000905061125860028861380e565b9050600061126760028961380e565b6002546040516370a0823160e01b815230600482015291925083916001600160a01b03909116906370a0823190602401602060405180830381865afa1580156112b4573d6000803e3d6000fd5b505050506040513d601f19601f820116820180604052508101906112d891906138c9565b10156113265760405162461bcd60e51b815260206004820152601960248201527f496e73756666696369656e74205553445420696e20706f6f6c0000000000000060448201526064016106e7565b60025460405163a9059cbb60e01b81526001600160a01b039091169063a9059cbb9061135890339086906004016138e2565b6020604051808303816000875af1158015611377573d6000803e3d6000fd5b505050506040513d601f19601f8201168201806040525081019061139b9190613899565b5060006113a661338f565b9050806000036113bb5750670de0b6b3a76400005b6000816113d084670de0b6b3a76400006137de565b6113da919061380e565b6003546040516370a0823160e01b815230600482015291925082916001600160a01b03909116906370a0823190602401602060405180830381865afa158015611427573d6000803e3d6000fd5b505050506040513d601f19601f8201168201806040525081019061144b91906138c9565b10156114995760405162461bcd60e51b815260206004820152601860248201527f496e73756666696369656e742041524320696e20706f6f6c000000000000000060448201526064016106e7565b60035460405163a9059cbb60e01b81526001600160a01b039091169063a9059cbb906114cb90339085906004016138e2565b6020604051808303816000875af11580156114ea573d6000803e3d6000fd5b505050506040513d601f19601f8201168201806040525081019061150e9190613899565b50604080518581526020810183905233917ff01da32686223933d8a18a391060918c7f11a3648639edd87ae013e2e2731743910160405180910390a25050505050505050505050505061156060018055565b565b61156a61351a565b6000811161158a5760405162461bcd60e51b81526004016106e7906138fb565b6002546040516323b872dd60e01b81526001600160a01b03909116906323b872dd906115be90339030908690600401613875565b6020604051808303816000875af11580156115dd573d6000803e3d6000fd5b505050506040513d601f19601f820116820180604052508101906116019190613899565b506002546040516370a0823160e01b815230600482015260009183916001600160a01b03909116906370a0823190602401602060405180830381865afa15801561164f573d6000803e3d6000fd5b505050506040513d601f19601f8201168201806040525081019061167391906138c9565b61167d91906138b6565b600480546040516370a0823160e01b815230928101929092529192506000916001600160a01b0316906370a0823190602401602060405180830381865afa1580156116cc573d6000803e3d6000fd5b505050506040513d601f19601f820116820180604052508101906116f091906138c9565b905060006116ff848484610802565b600480546040516370a0823160e01b8152309281019290925291925082916001600160a01b0316906370a0823190602401602060405180830381865afa15801561174d573d6000803e3d6000fd5b505050506040513d601f19601f8201168201806040525081019061177191906138c9565b10156117bf5760405162461bcd60e51b815260206004820152601a60248201527f496e73756666696369656e7420444553206c697175696469747900000000000060448201526064016106e7565b6004805460405163a9059cbb60e01b81526001600160a01b039091169163a9059cbb916117f09133918691016138e2565b6020604051808303816000875af115801561180f573d6000803e3d6000fd5b505050506040513d601f19601f820116820180604052508101906118339190613899565b50604080518581526020810183905233917ff0aecc972a450cc802dcc2bc28856bc3ab464a5fb18d3593d82e935dc52f6cf89101610d70565b61187461351a565b600081116118945760405162461bcd60e51b81526004016106e7906138fb565b6003546040516323b872dd60e01b81526001600160a01b03909116906323b872dd906118c890339030908690600401613875565b6020604051808303816000875af11580156118e7573d6000803e3d6000fd5b505050506040513d601f19601f8201168201806040525081019061190b9190613899565b5060006064600a548361191e91906137de565b611928919061380e565b9050600061193682846138b6565b9050600060056119478460026137de565b611951919061380e565b9050600061195f82856138b6565b600354604051630852cd8d60e31b8152600481018590529192506001600160a01b0316906342966c6890602401600060405180830381600087803b1580156119a657600080fd5b505af11580156119ba573d6000803e3d6000fd5b505060035460055460405163a9059cbb60e01b81526001600160a01b03928316945063a9059cbb93506119f5929091169085906004016138e2565b6020604051808303816000875af1158015611a14573d6000803e3d6000fd5b505050506040513d601f19601f82011682018060405250810190611a389190613899565b506003546040516370a0823160e01b815230600482015260009185916001600160a01b03909116906370a0823190602401602060405180830381865afa158015611a86573d6000803e3d6000fd5b505050506040513d601f19601f82011682018060405250810190611aaa91906138c9565b611ab491906138b6565b6002546040516370a0823160e01b81523060048201529192506000916001600160a01b03909116906370a0823190602401602060405180830381865afa158015611b02573d6000803e3d6000fd5b505050506040513d601f19601f82011682018060405250810190611b2691906138c9565b90506000611b35868484610802565b6002546040516370a0823160e01b815230600482015291925082916001600160a01b03909116906370a0823190602401602060405180830381865afa158015611b82573d6000803e3d6000fd5b505050506040513d601f19601f82011682018060405250810190611ba691906138c9565b1015611bf45760405162461bcd60e51b815260206004820152601b60248201527f496e73756666696369656e742055534454206c6971756964697479000000000060448201526064016106e7565b60025460405163a9059cbb60e01b81526001600160a01b039091169063a9059cbb90611c2690339085906004016138e2565b6020604051808303816000875af1158015611c45573d6000803e3d6000fd5b505050506040513d601f19601f82011682018060405250810190611c699190613899565b50604080518981526020810183905290810188905233907f1eed3bdeee9d82340f29d468acabeb304c93cce7a28a4216224faa0b76729af2906060015b60405180910390a250505050505050610d8460018055565b611cc6613544565b6001600160a01b03919091166000908152600860205260409020805460ff1916911515919091179055565b611cf961351a565b60008111611d195760405162461bcd60e51b81526004016106e7906138fb565b3360009081526008602052604090205460ff16611d6a5760405162461bcd60e51b815260206004820152600f60248201526e139bdd081dda1a5d195b1a5cdd1959608a1b60448201526064016106e7565b6002546040516323b872dd60e01b81526001600160a01b03909116906323b872dd90611d9e90339030908690600401613875565b6020604051808303816000875af1158015611dbd573d6000803e3d6000fd5b505050506040513d601f19601f82011682018060405250810190611de19190613899565b506002546040516370a0823160e01b815230600482015260009183916001600160a01b03909116906370a0823190602401602060405180830381865afa158015611e2f573d6000803e3d6000fd5b505050506040513d601f19601f82011682018060405250810190611e5391906138c9565b611e5d91906138b6565b6003546040516370a0823160e01b81523060048201529192506000916001600160a01b03909116906370a0823190602401602060405180830381865afa158015611eab573d6000803e3d6000fd5b505050506040513d601f19601f82011682018060405250810190611ecf91906138c9565b90506000611ede848484610802565b90506000606460095483611ef291906137de565b611efc919061380e565b90506000611f0a82846138b6565b6003546040516370a0823160e01b815230600482015291925084916001600160a01b03909116906370a0823190602401602060405180830381865afa158015611f57573d6000803e3d6000fd5b505050506040513d601f19601f82011682018060405250810190611f7b91906138c9565b1015611fc95760405162461bcd60e51b815260206004820152601a60248201527f496e73756666696369656e7420415243206c697175696469747900000000000060448201526064016106e7565b811561202e57600354604051630852cd8d60e31b8152600481018490526001600160a01b03909116906342966c6890602401600060405180830381600087803b15801561201557600080fd5b505af1158015612029573d6000803e3d6000fd5b505050505b60035460405163a9059cbb60e01b81526001600160a01b039091169063a9059cbb9061206090339085906004016138e2565b6020604051808303816000875af115801561207f573d6000803e3d6000fd5b505050506040513d601f19601f820116820180604052508101906120a39190613899565b50604080518781526020810183905290810183905233907f9edc11466a9166c0daefc9317555d1d11239efee7db542e4a3104f9808ac9c48906060015b60405180910390a25050505050610d8460018055565b6120fe61351a565b8068056bc75e2d63100000148061211d575080681043561a8829300000145b80612130575080681b1ae4d6e2ef500000145b80612143575080683635c9adc5dea00000145b6121855760405162461bcd60e51b815260206004820152601360248201527224b73b30b634b2103a34b1b5b2ba103a34b2b960691b60448201526064016106e7565b336000908152600e602052604090206003015460ff1615806121b95750336000908152600e602052604090206007015460ff165b6121fc5760405162461bcd60e51b8152602060048201526014602482015273416374697665207469636b65742065786973747360601b60448201526064016106e7565b6002546040516323b872dd60e01b81526001600160a01b03909116906323b872dd9061223090339030908690600401613875565b6020604051808303816000875af115801561224f573d6000803e3d6000fd5b505050506040513d601f19601f820116820180604052508101906122739190613899565b50600254600580546001600160a01b039283169263a9059cbb9291169060649061229d90866137de565b6122a7919061380e565b6040518363ffffffff1660e01b81526004016122c49291906138e2565b6020604051808303816000875af11580156122e3573d6000803e3d6000fd5b505050506040513d601f19601f820116820180604052508101906123079190613899565b506000612313336126df565b90506001600160a01b038116156123b3576002546001600160a01b031663a9059cbb826064612343600a876137de565b61234d919061380e565b6040518363ffffffff1660e01b815260040161236a9291906138e2565b6020604051808303816000875af1158015612389573d6000803e3d6000fd5b505050506040513d601f19601f820116820180604052508101906123ad9190613899565b50612445565b6002546005546001600160a01b039182169163a9059cbb911660646123d9600a876137de565b6123e3919061380e565b6040518363ffffffff1660e01b81526004016124009291906138e2565b6020604051808303816000875af115801561241f573d6000803e3d6000fd5b505050506040513d601f19601f820116820180604052508101906124439190613899565b505b6002546005546001600160a01b039182169163a9059cbb9116606461246b600a876137de565b612475919061380e565b6040518363ffffffff1660e01b81526004016124929291906138e2565b6020604051808303816000875af11580156124b1573d6000803e3d6000fd5b505050506040513d601f19601f820116820180604052508101906124d59190613899565b506002546006546001600160a01b039182169163a9059cbb911660646124fc600a876137de565b612506919061380e565b6040518363ffffffff1660e01b81526004016125239291906138e2565b6020604051808303816000875af1158015612542573d6000803e3d6000fd5b505050506040513d601f19601f820116820180604052508101906125669190613899565b50604051806101000160405280838152602001606484609661258891906137de565b612592919061380e565b815242602080830191909152600060408084018290526060808501839052608080860184905260a080870185905260c0968701859052338552600e865293839020875181559487015160018601559186015160028501558501516003808501805492151560ff1993841617905591860151600485015591850151600584015592840151600683015560e09093015160079091018054911515919093161790915561263d9083906137de565b336000818152600d6020526040808220600481019490945560039093015590517f0668f5b446eb814fe35b3206f43f14bd8567ba04ddaf7a3ee56516929ab22ccb9061268c9085815260200190565b60405180910390a250610d8460018055565b6126a6613544565b6001600160a01b039092166000908152600d60205260409020600181019190915560020155565b6126d5613544565b6115606000613571565b6001600160a01b038082166000908152600d6020526040812054909116815b6014811015612777576001600160a01b03821661271f575060009392505050565b6001600160a01b03821660009081526007602052604090205460ff1615612747575092915050565b6001600160a01b039182166000908152600d6020526040902054909116908061276f8161385c565b9150506126fe565b5060009392505050565b61278961351a565b336000908152600e602052604090208054158015906127ad5750600381015460ff16155b6127eb5760405162461bcd60e51b815260206004820152600f60248201526e139bc81d985b1a59081d1a58dad95d608a1b60448201526064016106e7565b60028101546127fd906203f4806137fb565b42111561283d5760405162461bcd60e51b815260206004820152600e60248201526d151a58dad95d08195e1c1a5c995960921b60448201526064016106e7565b816007148061284c575081600f145b80612857575081601e145b6128935760405162461bcd60e51b815260206004820152600d60248201526c496e76616c6964206379636c6560981b60448201526064016106e7565b600181015460006128a560028361380e565b905060006128b460028461380e565b6002546040516323b872dd60e01b81529192506001600160a01b0316906323b872dd906128e990339030908790600401613875565b6020604051808303816000875af1158015612908573d6000803e3d6000fd5b505050506040513d601f19601f8201168201806040525081019061292c9190613899565b50600061293761338f565b90506000811161297d5760405162461bcd60e51b8152602060048201526011602482015270496e76616c69642041524320707269636560781b60448201526064016106e7565b60008161299284670de0b6b3a76400006137de565b61299c919061380e565b6003546040516323b872dd60e01b81529192506001600160a01b0316906323b872dd906129d190339030908690600401613875565b6020604051808303816000875af11580156129f0573d6000803e3d6000fd5b505050506040513d601f19601f82011682018060405250810190612a149190613899565b50600354604051630852cd8d60e31b8152600481018390526001600160a01b03909116906342966c6890602401600060405180830381600087803b158015612a5b57600080fd5b505af1158015612a6f573d6000803e3d6000fd5b50505060038701805460ff19166001179055506004860185905542600587015560068601879055336000908152600d60205260409020546001600160a01b03168015801590612ad15750336000908152600d602052604090206005015460ff16155b15612b20576001600160a01b0381166000908152600d60205260408120600101805491612afd8361385c565b9091555050336000908152600d60205260409020600501805460ff191660011790555b604080518681526020810184905290810189905233907f9cfb69573e723556113a4c1d469472ed9ef129dec950aa1680b41d930df0a78b90606001611ca6565b612b6861351a565b60008111612b885760405162461bcd60e51b81526004016106e7906138fb565b600480546040516323b872dd60e01b81526001600160a01b03909116916323b872dd91612bbb9133913091879101613875565b6020604051808303816000875af1158015612bda573d6000803e3d6000fd5b505050506040513d601f19601f82011682018060405250810190612bfe9190613899565b5060006064612c0e8360036137de565b612c18919061380e565b90506000612c2682846138b6565b90508115612ca6576004805460405163a9059cbb60e01b81526001600160a01b039091169163a9059cbb91612c619161dead918791016138e2565b6020604051808303816000875af1158015612c80573d6000803e3d6000fd5b505050506040513d601f19601f82011682018060405250810190612ca49190613899565b505b600480546040516370a0823160e01b8152309281019290925260009183916001600160a01b0316906370a0823190602401602060405180830381865afa158015612cf4573d6000803e3d6000fd5b505050506040513d601f19601f82011682018060405250810190612d1891906138c9565b612d2291906138b6565b6002546040516370a0823160e01b81523060048201529192506000916001600160a01b03909116906370a0823190602401602060405180830381865afa158015612d70573d6000803e3d6000fd5b505050506040513d601f19601f82011682018060405250810190612d9491906138c9565b90506000612da3848484610802565b6002546040516370a0823160e01b815230600482015291925082916001600160a01b03909116906370a0823190602401602060405180830381865afa158015612df0573d6000803e3d6000fd5b505050506040513d601f19601f82011682018060405250810190612e1491906138c9565b1015612e625760405162461bcd60e51b815260206004820152601b60248201527f496e73756666696369656e742055534454206c6971756964697479000000000060448201526064016106e7565b60025460405163a9059cbb60e01b81526001600160a01b039091169063a9059cbb90612e9490339085906004016138e2565b6020604051808303816000875af1158015612eb3573d6000803e3d6000fd5b505050506040513d601f19601f82011682018060405250810190612ed79190613899565b50604080518781526020810183905290810186905233907f0dfd0a4092ab5d99c1109d22a6d2f9b70cb2d865e7971f7ef393e623f60295ae906060016120e0565b612f20613544565b806001600160a01b0316826001600160a01b031603612f745760405162461bcd60e51b815260206004820152601060248201526f21b0b73737ba103134b7321039b2b63360811b60448201526064016106e7565b6001600160a01b038083166000908152600d6020526040902080548383166001600160a01b03198216179091551680156130cb576001600160a01b0381166000908152600f60205260408120905b81548110156130c857846001600160a01b0316828281548110612fe757612fe7613846565b6000918252602090912001546001600160a01b0316036130b65781548290613011906001906138b6565b8154811061302157613021613846565b9060005260206000200160009054906101000a90046001600160a01b031682828154811061305157613051613846565b9060005260206000200160006101000a8154816001600160a01b0302191690836001600160a01b031602179055508180548061308f5761308f613923565b600082815260209020810160001990810180546001600160a01b03191690550190556130c8565b806130c08161385c565b915050612fc2565b50505b6001600160a01b03821615613119576001600160a01b038281166000908152600f602090815260408220805460018101825590835291200180546001600160a01b0319169185169190911790555b505050565b613126613544565b6001600160a01b03919091166000908152600760205260409020805460ff1916911515919091179055565b61315961351a565b336000908152600e60205260409020600381015460ff1680156131815750600781015460ff16155b6131bd5760405162461bcd60e51b815260206004820152600d60248201526c43616e6e6f742072656465656d60981b60448201526064016106e7565b60068101546131cf90620151806137de565b81600501546131de91906137fb565b4210156132225760405162461bcd60e51b815260206004820152601260248201527110de58db19481b9bdd08199a5b9a5cda195960721b60448201526064016106e7565b60025460048083015460405163a9059cbb60e01b81526001600160a01b039093169263a9059cbb926132589233929091016138e2565b6020604051808303816000875af1158015613277573d6000803e3d6000fd5b505050506040513d601f19601f8201168201806040525081019061329b9190613899565b5060078101805460ff19908116600117909155336000818152600d602052604080822060050180549094169093556004840154925191927ff3a670cd3af7d64b488926880889d08a8585a138ff455227af6737339a1ec262926133079290918252602082015260400190565b60405180910390a25061156060018055565b6001600160a01b0381166000908152600f602090815260409182902080548351818402810184019094528084526060939283018282801561338357602002820191906000526020600020905b81546001600160a01b03168152600190910190602001808311613365575b50505050509050919050565b6002546040516370a0823160e01b815230600482015260009182916001600160a01b03909116906370a0823190602401602060405180830381865afa1580156133dc573d6000803e3d6000fd5b505050506040513d601f19601f8201168201806040525081019061340091906138c9565b6003546040516370a0823160e01b81523060048201529192506000916001600160a01b03909116906370a0823190602401602060405180830381865afa15801561344e573d6000803e3d6000fd5b505050506040513d601f19601f8201168201806040525081019061347291906138c9565b9050806000036134855760009250505090565b8061349883670de0b6b3a76400006137de565b6134a2919061380e565b9250505090565b6134b1613544565b600580546001600160a01b039384166001600160a01b03199182161790915560068054929093169116179055565b6134e7613544565b6001600160a01b03811661351157604051631e4fbdf760e01b8152600060048201526024016106e7565b610d8481613571565b60026001540361353d57604051633ee5aeb560e01b815260040160405180910390fd5b6002600155565b6000546001600160a01b031633146115605760405163118cdaa760e01b81523360048201526024016106e7565b600080546001600160a01b038381166001600160a01b0319831681178455604051919092169283917f8be0079c531659141344cd1fd0a4f28419497f9722a3daafe3b4186f6b6457e09190a35050565b80356001600160a01b03811681146135d857600080fd5b919050565b6000602082840312156135ef57600080fd5b6135f8826135c1565b9392505050565b60008060006060848603121561361457600080fd5b505081359360208301359350604090920135919050565b6000806040838503121561363e57600080fd5b613647836135c1565b946020939093013593505050565b602080825282518282018190526000919060409081850190868401855b828110156136aa57815180516001600160a01b0316855286810151878601528501518585015260609093019290850190600101613672565b5091979650505050505050565b6000602082840312156136c957600080fd5b5035919050565b8015158114610d8457600080fd5b600080604083850312156136f157600080fd5b6136fa836135c1565b9150602083013561370a816136d0565b809150509250929050565b60008060006060848603121561372a57600080fd5b613733846135c1565b95602085013595506040909401359392505050565b6000806040838503121561375b57600080fd5b613764836135c1565b9150613772602084016135c1565b90509250929050565b6020808252825182820181905260009190848201906040850190845b818110156137bc5783516001600160a01b031683529284019291840191600101613797565b50909695505050505050565b634e487b7160e01b600052601160045260246000fd5b80820281158282048414176137f5576137f56137c8565b92915050565b808201808211156137f5576137f56137c8565b60008261382b57634e487b7160e01b600052601260045260246000fd5b500490565b634e487b7160e01b600052604160045260246000fd5b634e487b7160e01b600052603260045260246000fd5b60006001820161386e5761386e6137c8565b5060010190565b6001600160a01b039384168152919092166020820152604081019190915260600190565b6000602082840312156138ab57600080fd5b81516135f8816136d0565b818103818111156137f5576137f56137c8565b6000602082840312156138db57600080fd5b5051919050565b6001600160a01b03929092168252602082015260400190565b6020808252600e908201526d125b9d985b1a5908185b5bdd5b9d60921b604082015260600190565b634e487b7160e01b600052603160045260246000fdfea264697066735822122021cfb983fcd8f4532f35ceb959d872b181c092d678cc3d2c6397725859d5eed164736f6c63430008140033",
  "linkReferences": {},
  "deployedLinkReferences": {}
}