{
  "_format": "hh-sol-artifact-1",
  "contractName": "ArchimedesProtocol",
  "sourceName": "contracts/ArchimedesProtocol.sol",
  "abi": [
    {
      "inputs": [
        {
          "internalType": "address",
          "name": "_usdtToken",
          "type": "address"
        },
        {
          "internalType": "address",
          "name": "_arcToken",
          "type": "address"
        },
        {
          "internalType": "address",
          "name": "_desToken",
          "type": "address"
        },
        {
          "internalType": "address",
          "name": "_platformWallet",
          "type": "address"
        },
        {
          "internalType": "address",
          "name": "_lpWallet",
          "type": "address"
        }
      ],
      "stateMutability": "nonpayable",
      "type": "constructor"
    },
    {
      "inputs": [
        {
          "internalType": "address",
          "name": "owner",
          "type": "address"
        }
      ],
      "name": "OwnableInvalidOwner",
      "type": "error"
    },
    {
      "inputs": [
        {
          "internalType": "address",
          "name": "account",
          "type": "address"
        }
      ],
      "name": "OwnableUnauthorizedAccount",
      "type": "error"
    },
    {
      "inputs": [],
      "name": "ReentrancyGuardReentrantCall",
      "type": "error"
    },
    {
      "anonymous": false,
      "inputs": [
        {
          "indexed": true,
          "internalType": "address",
          "name": "user",
          "type": "address"
        },
        {
          "indexed": true,
          "internalType": "address",
          "name": "referrer",
          "type": "address"
        }
      ],
      "name": "BoundReferrer",
      "type": "event"
    },
    {
      "anonymous": false,
      "inputs": [
        {
          "indexed": false,
          "internalType": "uint256",
          "name": "amount",
          "type": "uint256"
        }
      ],
      "name": "DailyBurn",
      "type": "event"
    },
    {
      "anonymous": false,
      "inputs": [
        {
          "indexed": true,
          "internalType": "address",
          "name": "user",
          "type": "address"
        },
        {
          "indexed": false,
          "internalType": "uint256",
          "name": "amount",
          "type": "uint256"
        },
        {
          "indexed": false,
          "internalType": "uint256",
          "name": "cycleDays",
          "type": "uint256"
        }
      ],
      "name": "LiquidityStaked",
      "type": "event"
    },
    {
      "anonymous": false,
      "inputs": [
        {
          "indexed": true,
          "internalType": "address",
          "name": "previousOwner",
          "type": "address"
        },
        {
          "indexed": true,
          "internalType": "address",
          "name": "newOwner",
          "type": "address"
        }
      ],
      "name": "OwnershipTransferred",
      "type": "event"
    },
    {
      "anonymous": false,
      "inputs": [
        {
          "indexed": true,
          "internalType": "address",
          "name": "user",
          "type": "address"
        },
        {
          "indexed": false,
          "internalType": "uint256",
          "name": "principal",
          "type": "uint256"
        },
        {
          "indexed": false,
          "internalType": "uint256",
          "name": "fee",
          "type": "uint256"
        }
      ],
      "name": "Redeemed",
      "type": "event"
    },
    {
      "anonymous": false,
      "inputs": [
        {
          "indexed": true,
          "internalType": "address",
          "name": "user",
          "type": "address"
        },
        {
          "indexed": false,
          "internalType": "uint256",
          "name": "usdtAmount",
          "type": "uint256"
        },
        {
          "indexed": false,
          "internalType": "uint256",
          "name": "arcAmount",
          "type": "uint256"
        }
      ],
      "name": "RewardClaimed",
      "type": "event"
    },
    {
      "anonymous": false,
      "inputs": [
        {
          "indexed": true,
          "internalType": "address",
          "name": "user",
          "type": "address"
        },
        {
          "indexed": false,
          "internalType": "uint256",
          "name": "arcAmount",
          "type": "uint256"
        },
        {
          "indexed": false,
          "internalType": "uint256",
          "name": "usdtAmount",
          "type": "uint256"
        },
        {
          "indexed": false,
          "internalType": "uint256",
          "name": "tax",
          "type": "uint256"
        }
      ],
      "name": "SwappedARCToUSDT",
      "type": "event"
    },
    {
      "anonymous": false,
      "inputs": [
        {
          "indexed": true,
          "internalType": "address",
          "name": "user",
          "type": "address"
        },
        {
          "indexed": false,
          "internalType": "uint256",
          "name": "usdtAmount",
          "type": "uint256"
        },
        {
          "indexed": false,
          "internalType": "uint256",
          "name": "arcAmount",
          "type": "uint256"
        },
        {
          "indexed": false,
          "internalType": "uint256",
          "name": "tax",
          "type": "uint256"
        }
      ],
      "name": "SwappedUSDTToARC",
      "type": "event"
    },
    {
      "anonymous": false,
      "inputs": [
        {
          "indexed": true,
          "internalType": "address",
          "name": "user",
          "type": "address"
        },
        {
          "indexed": false,
          "internalType": "uint256",
          "name": "amount",
          "type": "uint256"
        }
      ],
      "name": "TicketPurchased",
      "type": "event"
    },
    {
      "inputs": [],
      "name": "ARC_POOL_PERCENT",
      "outputs": [
        {
          "internalType": "uint256",
          "name": "",
          "type": "uint256"
        }
      ],
      "stateMutability": "view",
      "type": "function"
    },
    {
      "inputs": [],
      "name": "DES_BUY_BURN_PERCENT",
      "outputs": [
        {
          "internalType": "uint256",
          "name": "",
          "type": "uint256"
        }
      ],
      "stateMutability": "view",
      "type": "function"
    },
    {
      "inputs": [],
      "name": "NODE_DIVIDEND_PERCENT",
      "outputs": [
        {
          "internalType": "uint256",
          "name": "",
          "type": "uint256"
        }
      ],
      "stateMutability": "view",
      "type": "function"
    },
    {
      "inputs": [],
      "name": "OFFICE_REWARD_PERCENT",
      "outputs": [
        {
          "internalType": "uint256",
          "name": "",
          "type": "uint256"
        }
      ],
      "stateMutability": "view",
      "type": "function"
    },
    {
      "inputs": [],
      "name": "PLATFORM_PERCENT",
      "outputs": [
        {
          "internalType": "uint256",
          "name": "",
          "type": "uint256"
        }
      ],
      "stateMutability": "view",
      "type": "function"
    },
    {
      "inputs": [],
      "name": "SECONDS_IN_DAY",
      "outputs": [
        {
          "internalType": "uint256",
          "name": "",
          "type": "uint256"
        }
      ],
      "stateMutability": "view",
      "type": "function"
    },
    {
      "inputs": [
        {
          "internalType": "address",
          "name": "user",
          "type": "address"
        },
        {
          "internalType": "address",
          "name": "newReferrer",
          "type": "address"
        }
      ],
      "name": "adminSetReferrer",
      "outputs": [],
      "stateMutability": "nonpayable",
      "type": "function"
    },
    {
      "inputs": [
        {
          "internalType": "address",
          "name": "user",
          "type": "address"
        },
        {
          "internalType": "uint256",
          "name": "_activeDirects",
          "type": "uint256"
        },
        {
          "internalType": "uint256",
          "name": "_teamCount",
          "type": "uint256"
        }
      ],
      "name": "adminSetUserStats",
      "outputs": [],
      "stateMutability": "nonpayable",
      "type": "function"
    },
    {
      "inputs": [],
      "name": "arcBuyTax",
      "outputs": [
        {
          "internalType": "uint256",
          "name": "",
          "type": "uint256"
        }
      ],
      "stateMutability": "view",
      "type": "function"
    },
    {
      "inputs": [],
      "name": "arcSellTax",
      "outputs": [
        {
          "internalType": "uint256",
          "name": "",
          "type": "uint256"
        }
      ],
      "stateMutability": "view",
      "type": "function"
    },
    {
      "inputs": [],
      "name": "arcToken",
      "outputs": [
        {
          "internalType": "contract IARC",
          "name": "",
          "type": "address"
        }
      ],
      "stateMutability": "view",
      "type": "function"
    },
    {
      "inputs": [
        {
          "internalType": "address",
          "name": "_referrer",
          "type": "address"
        }
      ],
      "name": "bindReferrer",
      "outputs": [],
      "stateMutability": "nonpayable",
      "type": "function"
    },
    {
      "inputs": [
        {
          "internalType": "uint256",
          "name": "amount",
          "type": "uint256"
        }
      ],
      "name": "buyTicket",
      "outputs": [],
      "stateMutability": "nonpayable",
      "type": "function"
    },
    {
      "inputs": [],
      "name": "claimRewards",
      "outputs": [],
      "stateMutability": "nonpayable",
      "type": "function"
    },
    {
      "inputs": [],
      "name": "desFeeFixed",
      "outputs": [
        {
          "internalType": "uint256",
          "name": "",
          "type": "uint256"
        }
      ],
      "stateMutability": "view",
      "type": "function"
    },
    {
      "inputs": [],
      "name": "desFeeRate",
      "outputs": [
        {
          "internalType": "uint256",
          "name": "",
          "type": "uint256"
        }
      ],
      "stateMutability": "view",
      "type": "function"
    },
    {
      "inputs": [],
      "name": "desToken",
      "outputs": [
        {
          "internalType": "contract IERC20",
          "name": "",
          "type": "address"
        }
      ],
      "stateMutability": "view",
      "type": "function"
    },
    {
      "inputs": [
        {
          "internalType": "address",
          "name": "",
          "type": "address"
        },
        {
          "internalType": "uint256",
          "name": "",
          "type": "uint256"
        }
      ],
      "name": "directReferrals",
      "outputs": [
        {
          "internalType": "address",
          "name": "",
          "type": "address"
        }
      ],
      "stateMutability": "view",
      "type": "function"
    },
    {
      "inputs": [
        {
          "internalType": "address",
          "name": "startUser",
          "type": "address"
        }
      ],
      "name": "findNearestOffice",
      "outputs": [
        {
          "internalType": "address",
          "name": "",
          "type": "address"
        }
      ],
      "stateMutability": "view",
      "type": "function"
    },
    {
      "inputs": [],
      "name": "getARCPrice",
      "outputs": [
        {
          "internalType": "uint256",
          "name": "",
          "type": "uint256"
        }
      ],
      "stateMutability": "view",
      "type": "function"
    },
    {
      "inputs": [
        {
          "internalType": "uint256",
          "name": "amountIn",
          "type": "uint256"
        },
        {
          "internalType": "uint256",
          "name": "reserveIn",
          "type": "uint256"
        },
        {
          "internalType": "uint256",
          "name": "reserveOut",
          "type": "uint256"
        }
      ],
      "name": "getAmountOut",
      "outputs": [
        {
          "internalType": "uint256",
          "name": "",
          "type": "uint256"
        }
      ],
      "stateMutability": "pure",
      "type": "function"
    },
    {
      "inputs": [],
      "name": "getDesPrice",
      "outputs": [
        {
          "internalType": "uint256",
          "name": "",
          "type": "uint256"
        }
      ],
      "stateMutability": "view",
      "type": "function"
    },
    {
      "inputs": [
        {
          "internalType": "address",
          "name": "_user",
          "type": "address"
        }
      ],
      "name": "getDirectReferrals",
      "outputs": [
        {
          "internalType": "address[]",
          "name": "",
          "type": "address[]"
        }
      ],
      "stateMutability": "view",
      "type": "function"
    },
    {
      "inputs": [
        {
          "internalType": "address",
          "name": "_user",
          "type": "address"
        }
      ],
      "name": "getDirectReferralsData",
      "outputs": [
        {
          "components": [
            {
              "internalType": "address",
              "name": "user",
              "type": "address"
            },
            {
              "internalType": "uint256",
              "name": "ticketAmount",
              "type": "uint256"
            },
            {
              "internalType": "uint256",
              "name": "joinTime",
              "type": "uint256"
            }
          ],
          "internalType": "struct ArchimedesProtocol.ReferralData[]",
          "name": "",
          "type": "tuple[]"
        }
      ],
      "stateMutability": "view",
      "type": "function"
    },
    {
      "inputs": [
        {
          "internalType": "address",
          "name": "",
          "type": "address"
        }
      ],
      "name": "isCommunityOffice",
      "outputs": [
        {
          "internalType": "bool",
          "name": "",
          "type": "bool"
        }
      ],
      "stateMutability": "view",
      "type": "function"
    },
    {
      "inputs": [
        {
          "internalType": "address",
          "name": "",
          "type": "address"
        }
      ],
      "name": "isWhitelist",
      "outputs": [
        {
          "internalType": "bool",
          "name": "",
          "type": "bool"
        }
      ],
      "stateMutability": "view",
      "type": "function"
    },
    {
      "inputs": [],
      "name": "lastBurnTime",
      "outputs": [
        {
          "internalType": "uint256",
          "name": "",
          "type": "uint256"
        }
      ],
      "stateMutability": "view",
      "type": "function"
    },
    {
      "inputs": [],
      "name": "lpWallet",
      "outputs": [
        {
          "internalType": "address",
          "name": "",
          "type": "address"
        }
      ],
      "stateMutability": "view",
      "type": "function"
    },
    {
      "inputs": [],
      "name": "owner",
      "outputs": [
        {
          "internalType": "address",
          "name": "",
          "type": "address"
        }
      ],
      "stateMutability": "view",
      "type": "function"
    },
    {
      "inputs": [],
      "name": "platformWallet",
      "outputs": [
        {
          "internalType": "address",
          "name": "",
          "type": "address"
        }
      ],
      "stateMutability": "view",
      "type": "function"
    },
    {
      "inputs": [],
      "name": "redeem",
      "outputs": [],
      "stateMutability": "nonpayable",
      "type": "function"
    },
    {
      "inputs": [],
      "name": "renounceOwnership",
      "outputs": [],
      "stateMutability": "nonpayable",
      "type": "function"
    },
    {
      "inputs": [
        {
          "internalType": "address",
          "name": "office",
          "type": "address"
        },
        {
          "internalType": "bool",
          "name": "status",
          "type": "bool"
        }
      ],
      "name": "setCommunityOffice",
      "outputs": [],
      "stateMutability": "nonpayable",
      "type": "function"
    },
    {
      "inputs": [
        {
          "internalType": "address",
          "name": "_platform",
          "type": "address"
        },
        {
          "internalType": "address",
          "name": "_lp",
          "type": "address"
        }
      ],
      "name": "setWallets",
      "outputs": [],
      "stateMutability": "nonpayable",
      "type": "function"
    },
    {
      "inputs": [
        {
          "internalType": "address",
          "name": "user",
          "type": "address"
        },
        {
          "internalType": "bool",
          "name": "status",
          "type": "bool"
        }
      ],
      "name": "setWhitelist",
      "outputs": [],
      "stateMutability": "nonpayable",
      "type": "function"
    },
    {
      "inputs": [
        {
          "internalType": "uint256",
          "name": "cycleDays",
          "type": "uint256"
        }
      ],
      "name": "stakeLiquidity",
      "outputs": [],
      "stateMutability": "nonpayable",
      "type": "function"
    },
    {
      "inputs": [
        {
          "internalType": "uint256",
          "name": "arcAmount",
          "type": "uint256"
        }
      ],
      "name": "swapARCToUSDT",
      "outputs": [],
      "stateMutability": "nonpayable",
      "type": "function"
    },
    {
      "inputs": [
        {
          "internalType": "uint256",
          "name": "usdtAmount",
          "type": "uint256"
        }
      ],
      "name": "swapUSDTToARC",
      "outputs": [],
      "stateMutability": "nonpayable",
      "type": "function"
    },
    {
      "inputs": [
        {
          "internalType": "address",
          "name": "newOwner",
          "type": "address"
        }
      ],
      "name": "transferOwnership",
      "outputs": [],
      "stateMutability": "nonpayable",
      "type": "function"
    },
    {
      "inputs": [],
      "name": "usdtToken",
      "outputs": [
        {
          "internalType": "contract IERC20",
          "name": "",
          "type": "address"
        }
      ],
      "stateMutability": "view",
      "type": "function"
    },
    {
      "inputs": [
        {
          "internalType": "address",
          "name": "",
          "type": "address"
        }
      ],
      "name": "userInfo",
      "outputs": [
        {
          "internalType": "address",
          "name": "referrer",
          "type": "address"
        },
        {
          "internalType": "uint256",
          "name": "activeDirects",
          "type": "uint256"
        },
        {
          "internalType": "uint256",
          "name": "teamCount",
          "type": "uint256"
        },
        {
          "internalType": "uint256",
          "name": "totalRevenue",
          "type": "uint256"
        },
        {
          "internalType": "uint256",
          "name": "currentCap",
          "type": "uint256"
        },
        {
          "internalType": "bool",
          "name": "isActive",
          "type": "bool"
        }
      ],
      "stateMutability": "view",
      "type": "function"
    },
    {
      "inputs": [
        {
          "internalType": "address",
          "name": "",
          "type": "address"
        }
      ],
      "name": "userTicket",
      "outputs": [
        {
          "internalType": "uint256",
          "name": "amount",
          "type": "uint256"
        },
        {
          "internalType": "uint256",
          "name": "requiredLiquidity",
          "type": "uint256"
        },
        {
          "internalType": "uint256",
          "name": "purchaseTime",
          "type": "uint256"
        },
        {
          "internalType": "bool",
          "name": "liquidityProvided",
          "type": "bool"
        },
        {
          "internalType": "uint256",
          "name": "liquidityAmount",
          "type": "uint256"
        },
        {
          "internalType": "uint256",
          "name": "startTime",
          "type": "uint256"
        },
        {
          "internalType": "uint256",
          "name": "cycleDays",
          "type": "uint256"
        },
        {
          "internalType": "bool",
          "name": "redeemed",
          "type": "bool"
        }
      ],
      "stateMutability": "view",
      "type": "function"
    }
  ],
  "bytecode": "0x608060405260006009556005600a556729a2241af62c0000600b556005600c553480156200002c57600080fd5b5060405162003061380380620030618339810160408190526200004f9162000156565b33806200007657604051631e4fbdf760e01b81526000600482015260240160405180910390fd5b6200008181620000e9565b5060018055600280546001600160a01b03199081166001600160a01b03978816179091556003805482169587169590951790945560048054851693861693909317909255600580548416918516919091179055600680549092169216919091179055620001c6565b600080546001600160a01b038381166001600160a01b0319831681178455604051919092169283917f8be0079c531659141344cd1fd0a4f28419497f9722a3daafe3b4186f6b6457e09190a35050565b80516001600160a01b03811681146200015157600080fd5b919050565b600080600080600060a086880312156200016f57600080fd5b6200017a8662000139565b94506200018a6020870162000139565b93506200019a6040870162000139565b9250620001aa6060870162000139565b9150620001ba6080870162000139565b90509295509295909350565b612e8b80620001d66000396000f3fe608060405234801561001057600080fd5b506004361061025e5760003560e01c806372367b1511610146578063be0c962d116100c3578063d395663011610087578063d3956630146105de578063d3f6a157146105e6578063e1b68b8c146105f9578063e30674491461060c578063f2fde38b14610615578063fa2af9da1461062857600080fd5b8063be0c962d14610577578063c011267814610580578063c130ebc714610593578063c683630d1461059b578063d2c8e0e5146105be57600080fd5b8063a2af92261161010a578063a2af922614610536578063a98ad46c14610549578063af92030d146103c8578063bcc0c37d1461055c578063be040fb01461056f57600080fd5b806372367b15146103c8578063802cf2471461046f578063862f4282146104825780638710bcaa146104905780638da5cb5b1461052557600080fd5b8063499984fc116101df5780636072e742116101a35780636072e7421461041b57806361a52a36146104245780636303516c1461042e57806367dd74ca146104415780636fb3c47c14610454578063715018a61461046757600080fd5b8063499984fc146103d057806353d6fd59146103e3578063554f522f146103f6578063567b1ac9146104095780635c67a5e01461041257600080fd5b8063168227b911610226578063168227b91461031c5780631959a0021461032457806335076373146103ad578063372500ab146103c057806348981d8a146103c857600080fd5b806304f618cb14610263578063054d50d41461027857806305ad39351461029e5780630fc4fc1a146102c95780631346c90e146102e9575b600080fd5b610276610271366004612b21565b61063b565b005b61028b610286366004612b43565b6107a8565b6040519081526020015b60405180910390f35b6102b16102ac366004612b6f565b61087e565b6040516001600160a01b039091168152602001610295565b6102dc6102d7366004612b21565b6108b6565b6040516102959190612b99565b61030c6102f7366004612b21565b60076020526000908152604090205460ff1681565b6040519015158152602001610295565b61028b604181565b610374610332366004612b21565b600d602052600090815260409020805460018201546002830154600384015460048501546005909501546001600160a01b039094169492939192909160ff1686565b604080516001600160a01b03909716875260208701959095529385019290925260608401526080830152151560a082015260c001610295565b6102766103bb366004612bfb565b610aa6565b610276610d2c565b61028b600a81565b6102766103de366004612bfb565b611507565b6102766103f1366004612c22565b611979565b610276610404366004612bfb565b6119ac565b61028b60095481565b61028b600b5481565b61028b600c5481565b61028b6201518081565b6006546102b1906001600160a01b031681565b61027661044f366004612bfb565b611dd1565b610276610462366004612c59565b612379565b6102766123a8565b6102b161047d366004612b21565b6123ba565b670de0b6b3a764000061028b565b6104e861049e366004612b21565b600e602052600090815260409020805460018201546002830154600384015460048501546005860154600687015460079097015495969495939460ff938416949293919290911688565b604080519889526020890197909752958701949094529115156060860152608085015260a084015260c0830152151560e082015261010001610295565b6000546001600160a01b03166102b1565b610276610544366004612c8c565b61245c565b6002546102b1906001600160a01b031681565b61027661056a366004612c22565b612662565b610276612695565b61028b600a5481565b6003546102b1906001600160a01b031681565b61028b600581565b61030c6105a9366004612b21565b60086020526000908152604090205460ff1681565b6105d16105cc366004612b21565b61285d565b6040516102959190612cbf565b61028b6128d3565b6102766105f4366004612c8c565b6129ed565b6004546102b1906001600160a01b031681565b61028b60105481565b610276610623366004612b21565b612a23565b6005546102b1906001600160a01b031681565b336000908152600d60205260409020546001600160a01b0316156106965760405162461bcd60e51b815260206004820152600d60248201526c105b1c9958591e48189bdd5b99609a1b60448201526064015b60405180910390fd5b336001600160a01b038216036106e15760405162461bcd60e51b815260206004820152601060248201526f21b0b73737ba103134b7321039b2b63360811b604482015260640161068d565b6001600160a01b03811661072a5760405162461bcd60e51b815260206004820152601060248201526f24b73b30b634b2103932b332b93932b960811b604482015260640161068d565b336000818152600d6020908152604080832080546001600160a01b0387166001600160a01b03199182168117909255818552600f8452828520805460018101825590865293852090930180549093168517909255519092917fa6dbb5aa28f35437de94d685d66edce5fb4812196b4984b91dfd5a7b38c0fb3091a350565b60008084116107f95760405162461bcd60e51b815260206004820152601960248201527f496e73756666696369656e7420696e70757420616d6f756e7400000000000000604482015260640161068d565b6000831180156108095750600082115b61084e5760405162461bcd60e51b8152602060048201526016602482015275496e73756666696369656e74206c697175696469747960501b604482015260640161068d565b600061085a8386612d22565b905060006108688686612d3f565b90506108748183612d52565b9695505050505050565b600f602052816000526040600020818154811061089a57600080fd5b6000918252602090912001546001600160a01b03169150829050565b6001600160a01b0381166000908152600f6020908152604080832080548251818502810185019093528083526060949383018282801561091f57602002820191906000526020600020905b81546001600160a01b03168152600190910190602001808311610901575b505050505090506000815167ffffffffffffffff81111561094257610942612d74565b6040519080825280602002602001820160405280156109a057816020015b61098d604051806060016040528060006001600160a01b0316815260200160008152602001600081525090565b8152602001906001900390816109605790505b50905060005b8251811015610a9e5760405180606001604052808483815181106109cc576109cc612d8a565b60200260200101516001600160a01b03168152602001600e60008685815181106109f8576109f8612d8a565b60200260200101516001600160a01b03166001600160a01b03168152602001908152602001600020600001548152602001600e6000868581518110610a3f57610a3f612d8a565b60200260200101516001600160a01b03166001600160a01b0316815260200190815260200160002060020154815250828281518110610a8057610a80612d8a565b60200260200101819052508080610a9690612da0565b9150506109a6565b509392505050565b610aae612a5e565b336000908152600e60205260409020805415801590610ad25750600381015460ff16155b610b105760405162461bcd60e51b815260206004820152600f60248201526e139bc81d985b1a59081d1a58dad95d608a1b604482015260640161068d565b6002810154610b22906203f480612d3f565b421115610b625760405162461bcd60e51b815260206004820152600e60248201526d151a58dad95d08195e1c1a5c995960921b604482015260640161068d565b8160071480610b71575081600f145b80610b7c575081601e145b610bb85760405162461bcd60e51b815260206004820152600d60248201526c496e76616c6964206379636c6560981b604482015260640161068d565b60018101546002546040516323b872dd60e01b81526001600160a01b03909116906323b872dd90610bf190339030908690600401612db9565b6020604051808303816000875af1158015610c10573d6000803e3d6000fd5b505050506040513d601f19601f82011682018060405250810190610c349190612ddd565b5060038201805460ff191660011790556004820181905542600583015560068201839055336000908152600d60205260409020546001600160a01b03168015801590610c935750336000908152600d602052604090206005015460ff16155b15610ce2576001600160a01b0381166000908152600d60205260408120600101805491610cbf83612da0565b9091555050336000908152600d60205260409020600501805460ff191660011790555b604080518381526020810186905233917f1e54d7530dad81af38adb8ca9db02add3130668375f37be85396403616fc3d49910160405180910390a2505050610d2960018055565b50565b610d34612a5e565b336000908152600e60205260409020600381015460ff168015610d5c5750600781015460ff16155b610d955760405162461bcd60e51b815260206004820152600a6024820152694e6f742061637469766560b01b604482015260640161068d565b60008160060154600703610dab57506014610dcf565b8160060154600f03610dbf57506019610dcf565b8160060154601e03610dcf5750601e5b600062015180836005015442610de59190612dfa565b610def9190612d52565b905060008111610e325760405162461bcd60e51b815260206004820152600e60248201526d139bc81c995dd85c991cc81e595d60921b604482015260640161068d565b8260060154811115610e45575060068201545b60006103e882848660000154610e5b9190612d22565b610e659190612d22565b610e6f9190612d52565b336000908152600d60205260409020600481015460039091015491925090610e98908390612d3f565b1115610ec557336000908152600d602052604090206003810154600490910154610ec29190612dfa565b90505b60008111610f0b5760405162461bcd60e51b81526020600482015260136024820152724e6f207265776172647320746f20636c61696d60681b604482015260640161068d565b670de0b6b3a764000060006064600c5484610f269190612d22565b610f309190612d52565b9050600082610f4783670de0b6b3a7640000612d22565b610f519190612d52565b90506000600b5482610f639190612d3f565b600480546040516370a0823160e01b8152339281019290925291925082916001600160a01b0316906370a0823190602401602060405180830381865afa158015610fb1573d6000803e3d6000fd5b505050506040513d601f19601f82011682018060405250810190610fd59190612e0d565b10156110235760405162461bcd60e51b815260206004820152601860248201527f496e73756666696369656e742044455320666f72206665650000000000000000604482015260640161068d565b336000908152600d60205260409020546001600160a01b0316801561114c5782156110c057600480546040516323b872dd60e01b81526001600160a01b03909116916323b872dd9161107b9133918691899101612db9565b6020604051808303816000875af115801561109a573d6000803e3d6000fd5b505050506040513d601f19601f820116820180604052508101906110be9190612ddd565b505b600b54156111475760048054600554600b546040516323b872dd60e01b81526001600160a01b03938416946323b872dd94611102943394911692909101612db9565b6020604051808303816000875af1158015611121573d6000803e3d6000fd5b505050506040513d601f19601f820116820180604052508101906111459190612ddd565b505b6111c8565b600480546005546040516323b872dd60e01b81526001600160a01b03928316936323b872dd93611183933393911691889101612db9565b6020604051808303816000875af11580156111a2573d6000803e3d6000fd5b505050506040513d601f19601f820116820180604052508101906111c69190612ddd565b505b336000908152600d6020526040812060030180548892906111ea908490612d3f565b90915550600090506111fd600288612d52565b9050600061120c600289612d52565b6002546040516370a0823160e01b815230600482015291925083916001600160a01b03909116906370a0823190602401602060405180830381865afa158015611259573d6000803e3d6000fd5b505050506040513d601f19601f8201168201806040525081019061127d9190612e0d565b10156112cb5760405162461bcd60e51b815260206004820152601960248201527f496e73756666696369656e74205553445420696e20706f6f6c00000000000000604482015260640161068d565b60025460405163a9059cbb60e01b81526001600160a01b039091169063a9059cbb906112fd9033908690600401612e26565b6020604051808303816000875af115801561131c573d6000803e3d6000fd5b505050506040513d601f19601f820116820180604052508101906113409190612ddd565b50600061134b6128d3565b9050806000036113605750670de0b6b3a76400005b60008161137584670de0b6b3a7640000612d22565b61137f9190612d52565b6003546040516370a0823160e01b815230600482015291925082916001600160a01b03909116906370a0823190602401602060405180830381865afa1580156113cc573d6000803e3d6000fd5b505050506040513d601f19601f820116820180604052508101906113f09190612e0d565b101561143e5760405162461bcd60e51b815260206004820152601860248201527f496e73756666696369656e742041524320696e20706f6f6c0000000000000000604482015260640161068d565b60035460405163a9059cbb60e01b81526001600160a01b039091169063a9059cbb906114709033908590600401612e26565b6020604051808303816000875af115801561148f573d6000803e3d6000fd5b505050506040513d601f19601f820116820180604052508101906114b39190612ddd565b50604080518581526020810183905233917ff01da32686223933d8a18a391060918c7f11a3648639edd87ae013e2e2731743910160405180910390a25050505050505050505050505061150560018055565b565b61150f612a5e565b600081116115505760405162461bcd60e51b815260206004820152600e60248201526d125b9d985b1a5908185b5bdd5b9d60921b604482015260640161068d565b6003546040516323b872dd60e01b81526001600160a01b03909116906323b872dd9061158490339030908690600401612db9565b6020604051808303816000875af11580156115a3573d6000803e3d6000fd5b505050506040513d601f19601f820116820180604052508101906115c79190612ddd565b5060006064600a54836115da9190612d22565b6115e49190612d52565b905060006115f28284612dfa565b905060006005611603846002612d22565b61160d9190612d52565b9050600061161b8285612dfa565b600354604051630852cd8d60e31b8152600481018590529192506001600160a01b0316906342966c6890602401600060405180830381600087803b15801561166257600080fd5b505af1158015611676573d6000803e3d6000fd5b505060035460055460405163a9059cbb60e01b81526001600160a01b03928316945063a9059cbb93506116b192909116908590600401612e26565b6020604051808303816000875af11580156116d0573d6000803e3d6000fd5b505050506040513d601f19601f820116820180604052508101906116f49190612ddd565b506003546040516370a0823160e01b815230600482015260009185916001600160a01b03909116906370a0823190602401602060405180830381865afa158015611742573d6000803e3d6000fd5b505050506040513d601f19601f820116820180604052508101906117669190612e0d565b6117709190612dfa565b6002546040516370a0823160e01b81523060048201529192506000916001600160a01b03909116906370a0823190602401602060405180830381865afa1580156117be573d6000803e3d6000fd5b505050506040513d601f19601f820116820180604052508101906117e29190612e0d565b905060006117f18684846107a8565b6002546040516370a0823160e01b815230600482015291925082916001600160a01b03909116906370a0823190602401602060405180830381865afa15801561183e573d6000803e3d6000fd5b505050506040513d601f19601f820116820180604052508101906118629190612e0d565b10156118b05760405162461bcd60e51b815260206004820152601b60248201527f496e73756666696369656e742055534454206c69717569646974790000000000604482015260640161068d565b60025460405163a9059cbb60e01b81526001600160a01b039091169063a9059cbb906118e29033908590600401612e26565b6020604051808303816000875af1158015611901573d6000803e3d6000fd5b505050506040513d601f19601f820116820180604052508101906119259190612ddd565b50604080518981526020810183905290810188905233907f1eed3bdeee9d82340f29d468acabeb304c93cce7a28a4216224faa0b76729af29060600160405180910390a250505050505050610d2960018055565b611981612a88565b6001600160a01b03919091166000908152600860205260409020805460ff1916911515919091179055565b6119b4612a5e565b600081116119f55760405162461bcd60e51b815260206004820152600e60248201526d125b9d985b1a5908185b5bdd5b9d60921b604482015260640161068d565b3360009081526008602052604090205460ff16611a465760405162461bcd60e51b815260206004820152600f60248201526e139bdd081dda1a5d195b1a5cdd1959608a1b604482015260640161068d565b6002546040516323b872dd60e01b81526001600160a01b03909116906323b872dd90611a7a90339030908690600401612db9565b6020604051808303816000875af1158015611a99573d6000803e3d6000fd5b505050506040513d601f19601f82011682018060405250810190611abd9190612ddd565b506002546040516370a0823160e01b815230600482015260009183916001600160a01b03909116906370a0823190602401602060405180830381865afa158015611b0b573d6000803e3d6000fd5b505050506040513d601f19601f82011682018060405250810190611b2f9190612e0d565b611b399190612dfa565b6003546040516370a0823160e01b81523060048201529192506000916001600160a01b03909116906370a0823190602401602060405180830381865afa158015611b87573d6000803e3d6000fd5b505050506040513d601f19601f82011682018060405250810190611bab9190612e0d565b90506000611bba8484846107a8565b90506000606460095483611bce9190612d22565b611bd89190612d52565b90506000611be68284612dfa565b6003546040516370a0823160e01b815230600482015291925084916001600160a01b03909116906370a0823190602401602060405180830381865afa158015611c33573d6000803e3d6000fd5b505050506040513d601f19601f82011682018060405250810190611c579190612e0d565b1015611ca55760405162461bcd60e51b815260206004820152601a60248201527f496e73756666696369656e7420415243206c6971756964697479000000000000604482015260640161068d565b8115611d0a57600354604051630852cd8d60e31b8152600481018490526001600160a01b03909116906342966c6890602401600060405180830381600087803b158015611cf157600080fd5b505af1158015611d05573d6000803e3d6000fd5b505050505b60035460405163a9059cbb60e01b81526001600160a01b039091169063a9059cbb90611d3c9033908590600401612e26565b6020604051808303816000875af1158015611d5b573d6000803e3d6000fd5b505050506040513d601f19601f82011682018060405250810190611d7f9190612ddd565b50604080518781526020810183905290810183905233907f9edc11466a9166c0daefc9317555d1d11239efee7db542e4a3104f9808ac9c489060600160405180910390a25050505050610d2960018055565b611dd9612a5e565b8068056bc75e2d631000001480611df8575080681043561a8829300000145b80611e0b575080681b1ae4d6e2ef500000145b80611e1e575080683635c9adc5dea00000145b611e605760405162461bcd60e51b815260206004820152601360248201527224b73b30b634b2103a34b1b5b2ba103a34b2b960691b604482015260640161068d565b336000908152600e602052604090206003015460ff161580611e945750336000908152600e602052604090206007015460ff165b611ed75760405162461bcd60e51b8152602060048201526014602482015273416374697665207469636b65742065786973747360601b604482015260640161068d565b6002546040516323b872dd60e01b81526001600160a01b03909116906323b872dd90611f0b90339030908690600401612db9565b6020604051808303816000875af1158015611f2a573d6000803e3d6000fd5b505050506040513d601f19601f82011682018060405250810190611f4e9190612ddd565b50600254600580546001600160a01b039283169263a9059cbb92911690606490611f789086612d22565b611f829190612d52565b6040518363ffffffff1660e01b8152600401611f9f929190612e26565b6020604051808303816000875af1158015611fbe573d6000803e3d6000fd5b505050506040513d601f19601f82011682018060405250810190611fe29190612ddd565b506000611fee336123ba565b90506001600160a01b0381161561208e576002546001600160a01b031663a9059cbb82606461201e600a87612d22565b6120289190612d52565b6040518363ffffffff1660e01b8152600401612045929190612e26565b6020604051808303816000875af1158015612064573d6000803e3d6000fd5b505050506040513d601f19601f820116820180604052508101906120889190612ddd565b50612120565b6002546005546001600160a01b039182169163a9059cbb911660646120b4600a87612d22565b6120be9190612d52565b6040518363ffffffff1660e01b81526004016120db929190612e26565b6020604051808303816000875af11580156120fa573d6000803e3d6000fd5b505050506040513d601f19601f8201168201806040525081019061211e9190612ddd565b505b6002546005546001600160a01b039182169163a9059cbb91166064612146600a87612d22565b6121509190612d52565b6040518363ffffffff1660e01b815260040161216d929190612e26565b6020604051808303816000875af115801561218c573d6000803e3d6000fd5b505050506040513d601f19601f820116820180604052508101906121b09190612ddd565b506002546006546001600160a01b039182169163a9059cbb911660646121d7600a87612d22565b6121e19190612d52565b6040518363ffffffff1660e01b81526004016121fe929190612e26565b6020604051808303816000875af115801561221d573d6000803e3d6000fd5b505050506040513d601f19601f820116820180604052508101906122419190612ddd565b5060405180610100016040528083815260200160648460966122639190612d22565b61226d9190612d52565b815242602080830191909152600060408084018290526060808501839052608080860184905260a080870185905260c0968701859052338552600e865293839020875181559487015160018601559186015160028501558501516003808501805492151560ff1993841617905591860151600485015591850151600584015592840151600683015560e090930151600790910180549115159190931617909155612318908390612d22565b336000818152600d6020526040808220600481019490945560039093015590517f0668f5b446eb814fe35b3206f43f14bd8567ba04ddaf7a3ee56516929ab22ccb906123679085815260200190565b60405180910390a250610d2960018055565b612381612a88565b6001600160a01b039092166000908152600d60205260409020600181019190915560020155565b6123b0612a88565b6115056000612ab5565b6001600160a01b038082166000908152600d6020526040812054909116815b6014811015612452576001600160a01b0382166123fa575060009392505050565b6001600160a01b03821660009081526007602052604090205460ff1615612422575092915050565b6001600160a01b039182166000908152600d6020526040902054909116908061244a81612da0565b9150506123d9565b5060009392505050565b612464612a88565b806001600160a01b0316826001600160a01b0316036124b85760405162461bcd60e51b815260206004820152601060248201526f21b0b73737ba103134b7321039b2b63360811b604482015260640161068d565b6001600160a01b038083166000908152600d6020526040902080548383166001600160a01b031982161790915516801561260f576001600160a01b0381166000908152600f60205260408120905b815481101561260c57846001600160a01b031682828154811061252b5761252b612d8a565b6000918252602090912001546001600160a01b0316036125fa578154829061255590600190612dfa565b8154811061256557612565612d8a565b9060005260206000200160009054906101000a90046001600160a01b031682828154811061259557612595612d8a565b9060005260206000200160006101000a8154816001600160a01b0302191690836001600160a01b03160217905550818054806125d3576125d3612e3f565b600082815260209020810160001990810180546001600160a01b031916905501905561260c565b8061260481612da0565b915050612506565b50505b6001600160a01b0382161561265d576001600160a01b038281166000908152600f602090815260408220805460018101825590835291200180546001600160a01b0319169185169190911790555b505050565b61266a612a88565b6001600160a01b03919091166000908152600760205260409020805460ff1916911515919091179055565b61269d612a5e565b336000908152600e60205260409020600381015460ff1680156126c55750600781015460ff16155b6127015760405162461bcd60e51b815260206004820152600d60248201526c43616e6e6f742072656465656d60981b604482015260640161068d565b60068101546127139062015180612d22565b81600501546127229190612d3f565b4210156127665760405162461bcd60e51b815260206004820152601260248201527110de58db19481b9bdd08199a5b9a5cda195960721b604482015260640161068d565b60025460048083015460405163a9059cbb60e01b81526001600160a01b039093169263a9059cbb9261279c923392909101612e26565b6020604051808303816000875af11580156127bb573d6000803e3d6000fd5b505050506040513d601f19601f820116820180604052508101906127df9190612ddd565b5060078101805460ff19908116600117909155336000818152600d602052604080822060050180549094169093556004840154925191927ff3a670cd3af7d64b488926880889d08a8585a138ff455227af6737339a1ec2629261284b9290918252602082015260400190565b60405180910390a25061150560018055565b6001600160a01b0381166000908152600f60209081526040918290208054835181840281018401909452808452606093928301828280156128c757602002820191906000526020600020905b81546001600160a01b031681526001909101906020018083116128a9575b50505050509050919050565b6002546040516370a0823160e01b815230600482015260009182916001600160a01b03909116906370a0823190602401602060405180830381865afa158015612920573d6000803e3d6000fd5b505050506040513d601f19601f820116820180604052508101906129449190612e0d565b6003546040516370a0823160e01b81523060048201529192506000916001600160a01b03909116906370a0823190602401602060405180830381865afa158015612992573d6000803e3d6000fd5b505050506040513d601f19601f820116820180604052508101906129b69190612e0d565b9050806000036129c95760009250505090565b806129dc83670de0b6b3a7640000612d22565b6129e69190612d52565b9250505090565b6129f5612a88565b600580546001600160a01b039384166001600160a01b03199182161790915560068054929093169116179055565b612a2b612a88565b6001600160a01b038116612a5557604051631e4fbdf760e01b81526000600482015260240161068d565b610d2981612ab5565b600260015403612a8157604051633ee5aeb560e01b815260040160405180910390fd5b6002600155565b6000546001600160a01b031633146115055760405163118cdaa760e01b815233600482015260240161068d565b600080546001600160a01b038381166001600160a01b0319831681178455604051919092169283917f8be0079c531659141344cd1fd0a4f28419497f9722a3daafe3b4186f6b6457e09190a35050565b80356001600160a01b0381168114612b1c57600080fd5b919050565b600060208284031215612b3357600080fd5b612b3c82612b05565b9392505050565b600080600060608486031215612b5857600080fd5b505081359360208301359350604090920135919050565b60008060408385031215612b8257600080fd5b612b8b83612b05565b946020939093013593505050565b602080825282518282018190526000919060409081850190868401855b82811015612bee57815180516001600160a01b0316855286810151878601528501518585015260609093019290850190600101612bb6565b5091979650505050505050565b600060208284031215612c0d57600080fd5b5035919050565b8015158114610d2957600080fd5b60008060408385031215612c3557600080fd5b612c3e83612b05565b91506020830135612c4e81612c14565b809150509250929050565b600080600060608486031215612c6e57600080fd5b612c7784612b05565b95602085013595506040909401359392505050565b60008060408385031215612c9f57600080fd5b612ca883612b05565b9150612cb660208401612b05565b90509250929050565b6020808252825182820181905260009190848201906040850190845b81811015612d005783516001600160a01b031683529284019291840191600101612cdb565b50909695505050505050565b634e487b7160e01b600052601160045260246000fd5b8082028115828204841417612d3957612d39612d0c565b92915050565b80820180821115612d3957612d39612d0c565b600082612d6f57634e487b7160e01b600052601260045260246000fd5b500490565b634e487b7160e01b600052604160045260246000fd5b634e487b7160e01b600052603260045260246000fd5b600060018201612db257612db2612d0c565b5060010190565b6001600160a01b039384168152919092166020820152604081019190915260600190565b600060208284031215612def57600080fd5b8151612b3c81612c14565b81810381811115612d3957612d39612d0c565b600060208284031215612e1f57600080fd5b5051919050565b6001600160a01b03929092168252602082015260400190565b634e487b7160e01b600052603160045260246000fdfea2646970667358221220859563d09dc3a3424afd54812d3cabc7b4d26337e269c390b3ec728e5771a91e64736f6c63430008140033",
  "linkReferences": {},
  "deployedLinkReferences": {}
}