{
  "_format": "hh-sol-artifact-1",
  "contractName": "ArchimedesProtocol",
  "sourceName": "contracts/ArchimedesProtocol.sol",
  "abi": [
    {
      "inputs": [
        {
          "internalType": "address",
          "name": "_usdtToken",
          "type": "address"
        },
        {
          "internalType": "address",
          "name": "_arcToken",
          "type": "address"
        },
        {
          "internalType": "address",
          "name": "_desToken",
          "type": "address"
        },
        {
          "internalType": "address",
          "name": "_platformWallet",
          "type": "address"
        },
        {
          "internalType": "address",
          "name": "_lpWallet",
          "type": "address"
        }
      ],
      "stateMutability": "nonpayable",
      "type": "constructor"
    },
    {
      "inputs": [
        {
          "internalType": "address",
          "name": "owner",
          "type": "address"
        }
      ],
      "name": "OwnableInvalidOwner",
      "type": "error"
    },
    {
      "inputs": [
        {
          "internalType": "address",
          "name": "account",
          "type": "address"
        }
      ],
      "name": "OwnableUnauthorizedAccount",
      "type": "error"
    },
    {
      "inputs": [],
      "name": "ReentrancyGuardReentrantCall",
      "type": "error"
    },
    {
      "anonymous": false,
      "inputs": [
        {
          "indexed": true,
          "internalType": "address",
          "name": "user",
          "type": "address"
        },
        {
          "indexed": true,
          "internalType": "address",
          "name": "referrer",
          "type": "address"
        }
      ],
      "name": "BoundReferrer",
      "type": "event"
    },
    {
      "anonymous": false,
      "inputs": [
        {
          "indexed": false,
          "internalType": "uint256",
          "name": "amount",
          "type": "uint256"
        }
      ],
      "name": "DailyBurn",
      "type": "event"
    },
    {
      "anonymous": false,
      "inputs": [
        {
          "indexed": true,
          "internalType": "address",
          "name": "user",
          "type": "address"
        },
        {
          "indexed": false,
          "internalType": "uint256",
          "name": "amount",
          "type": "uint256"
        },
        {
          "indexed": false,
          "internalType": "uint256",
          "name": "cycleDays",
          "type": "uint256"
        }
      ],
      "name": "LiquidityStaked",
      "type": "event"
    },
    {
      "anonymous": false,
      "inputs": [
        {
          "indexed": true,
          "internalType": "address",
          "name": "previousOwner",
          "type": "address"
        },
        {
          "indexed": true,
          "internalType": "address",
          "name": "newOwner",
          "type": "address"
        }
      ],
      "name": "OwnershipTransferred",
      "type": "event"
    },
    {
      "anonymous": false,
      "inputs": [
        {
          "indexed": true,
          "internalType": "address",
          "name": "user",
          "type": "address"
        },
        {
          "indexed": false,
          "internalType": "uint256",
          "name": "principal",
          "type": "uint256"
        },
        {
          "indexed": false,
          "internalType": "uint256",
          "name": "fee",
          "type": "uint256"
        }
      ],
      "name": "Redeemed",
      "type": "event"
    },
    {
      "anonymous": false,
      "inputs": [
        {
          "indexed": true,
          "internalType": "address",
          "name": "user",
          "type": "address"
        },
        {
          "indexed": false,
          "internalType": "uint256",
          "name": "usdtAmount",
          "type": "uint256"
        },
        {
          "indexed": false,
          "internalType": "uint256",
          "name": "arcAmount",
          "type": "uint256"
        },
        {
          "indexed": false,
          "internalType": "uint256",
          "name": "cycleDays",
          "type": "uint256"
        }
      ],
      "name": "Reinvested",
      "type": "event"
    },
    {
      "anonymous": false,
      "inputs": [
        {
          "indexed": true,
          "internalType": "address",
          "name": "user",
          "type": "address"
        },
        {
          "indexed": false,
          "internalType": "uint256",
          "name": "usdtAmount",
          "type": "uint256"
        },
        {
          "indexed": false,
          "internalType": "uint256",
          "name": "arcAmount",
          "type": "uint256"
        }
      ],
      "name": "RewardClaimed",
      "type": "event"
    },
    {
      "anonymous": false,
      "inputs": [
        {
          "indexed": true,
          "internalType": "address",
          "name": "user",
          "type": "address"
        },
        {
          "indexed": false,
          "internalType": "uint256",
          "name": "arcAmount",
          "type": "uint256"
        },
        {
          "indexed": false,
          "internalType": "uint256",
          "name": "usdtAmount",
          "type": "uint256"
        },
        {
          "indexed": false,
          "internalType": "uint256",
          "name": "tax",
          "type": "uint256"
        }
      ],
      "name": "SwappedARCToUSDT",
      "type": "event"
    },
    {
      "anonymous": false,
      "inputs": [
        {
          "indexed": true,
          "internalType": "address",
          "name": "user",
          "type": "address"
        },
        {
          "indexed": false,
          "internalType": "uint256",
          "name": "desAmount",
          "type": "uint256"
        },
        {
          "indexed": false,
          "internalType": "uint256",
          "name": "usdtAmount",
          "type": "uint256"
        },
        {
          "indexed": false,
          "internalType": "uint256",
          "name": "tax",
          "type": "uint256"
        }
      ],
      "name": "SwappedDESToUSDT",
      "type": "event"
    },
    {
      "anonymous": false,
      "inputs": [
        {
          "indexed": true,
          "internalType": "address",
          "name": "user",
          "type": "address"
        },
        {
          "indexed": false,
          "internalType": "uint256",
          "name": "usdtAmount",
          "type": "uint256"
        },
        {
          "indexed": false,
          "internalType": "uint256",
          "name": "arcAmount",
          "type": "uint256"
        },
        {
          "indexed": false,
          "internalType": "uint256",
          "name": "tax",
          "type": "uint256"
        }
      ],
      "name": "SwappedUSDTToARC",
      "type": "event"
    },
    {
      "anonymous": false,
      "inputs": [
        {
          "indexed": true,
          "internalType": "address",
          "name": "user",
          "type": "address"
        },
        {
          "indexed": false,
          "internalType": "uint256",
          "name": "usdtAmount",
          "type": "uint256"
        },
        {
          "indexed": false,
          "internalType": "uint256",
          "name": "desAmount",
          "type": "uint256"
        }
      ],
      "name": "SwappedUSDTToDES",
      "type": "event"
    },
    {
      "anonymous": false,
      "inputs": [
        {
          "indexed": true,
          "internalType": "address",
          "name": "user",
          "type": "address"
        },
        {
          "indexed": false,
          "internalType": "uint256",
          "name": "amount",
          "type": "uint256"
        }
      ],
      "name": "TicketPurchased",
      "type": "event"
    },
    {
      "inputs": [],
      "name": "ARC_POOL_PERCENT",
      "outputs": [
        {
          "internalType": "uint256",
          "name": "",
          "type": "uint256"
        }
      ],
      "stateMutability": "view",
      "type": "function"
    },
    {
      "inputs": [],
      "name": "DES_BUY_BURN_PERCENT",
      "outputs": [
        {
          "internalType": "uint256",
          "name": "",
          "type": "uint256"
        }
      ],
      "stateMutability": "view",
      "type": "function"
    },
    {
      "inputs": [],
      "name": "NODE_DIVIDEND_PERCENT",
      "outputs": [
        {
          "internalType": "uint256",
          "name": "",
          "type": "uint256"
        }
      ],
      "stateMutability": "view",
      "type": "function"
    },
    {
      "inputs": [],
      "name": "OFFICE_REWARD_PERCENT",
      "outputs": [
        {
          "internalType": "uint256",
          "name": "",
          "type": "uint256"
        }
      ],
      "stateMutability": "view",
      "type": "function"
    },
    {
      "inputs": [],
      "name": "PLATFORM_PERCENT",
      "outputs": [
        {
          "internalType": "uint256",
          "name": "",
          "type": "uint256"
        }
      ],
      "stateMutability": "view",
      "type": "function"
    },
    {
      "inputs": [],
      "name": "SECONDS_IN_DAY",
      "outputs": [
        {
          "internalType": "uint256",
          "name": "",
          "type": "uint256"
        }
      ],
      "stateMutability": "view",
      "type": "function"
    },
    {
      "inputs": [
        {
          "internalType": "address",
          "name": "user",
          "type": "address"
        },
        {
          "internalType": "address",
          "name": "newReferrer",
          "type": "address"
        }
      ],
      "name": "adminSetReferrer",
      "outputs": [],
      "stateMutability": "nonpayable",
      "type": "function"
    },
    {
      "inputs": [
        {
          "internalType": "address",
          "name": "user",
          "type": "address"
        },
        {
          "internalType": "uint256",
          "name": "_activeDirects",
          "type": "uint256"
        },
        {
          "internalType": "uint256",
          "name": "_teamCount",
          "type": "uint256"
        }
      ],
      "name": "adminSetUserStats",
      "outputs": [],
      "stateMutability": "nonpayable",
      "type": "function"
    },
    {
      "inputs": [],
      "name": "arcBuyTax",
      "outputs": [
        {
          "internalType": "uint256",
          "name": "",
          "type": "uint256"
        }
      ],
      "stateMutability": "view",
      "type": "function"
    },
    {
      "inputs": [],
      "name": "arcSellTax",
      "outputs": [
        {
          "internalType": "uint256",
          "name": "",
          "type": "uint256"
        }
      ],
      "stateMutability": "view",
      "type": "function"
    },
    {
      "inputs": [],
      "name": "arcToken",
      "outputs": [
        {
          "internalType": "contract IARC",
          "name": "",
          "type": "address"
        }
      ],
      "stateMutability": "view",
      "type": "function"
    },
    {
      "inputs": [
        {
          "internalType": "address",
          "name": "_referrer",
          "type": "address"
        }
      ],
      "name": "bindReferrer",
      "outputs": [],
      "stateMutability": "nonpayable",
      "type": "function"
    },
    {
      "inputs": [
        {
          "internalType": "uint256",
          "name": "amount",
          "type": "uint256"
        }
      ],
      "name": "buyTicket",
      "outputs": [],
      "stateMutability": "nonpayable",
      "type": "function"
    },
    {
      "inputs": [],
      "name": "claimRewards",
      "outputs": [],
      "stateMutability": "nonpayable",
      "type": "function"
    },
    {
      "inputs": [],
      "name": "desFeeFixed",
      "outputs": [
        {
          "internalType": "uint256",
          "name": "",
          "type": "uint256"
        }
      ],
      "stateMutability": "view",
      "type": "function"
    },
    {
      "inputs": [],
      "name": "desFeeRate",
      "outputs": [
        {
          "internalType": "uint256",
          "name": "",
          "type": "uint256"
        }
      ],
      "stateMutability": "view",
      "type": "function"
    },
    {
      "inputs": [],
      "name": "desToken",
      "outputs": [
        {
          "internalType": "contract IERC20",
          "name": "",
          "type": "address"
        }
      ],
      "stateMutability": "view",
      "type": "function"
    },
    {
      "inputs": [
        {
          "internalType": "address",
          "name": "",
          "type": "address"
        },
        {
          "internalType": "uint256",
          "name": "",
          "type": "uint256"
        }
      ],
      "name": "directReferrals",
      "outputs": [
        {
          "internalType": "address",
          "name": "",
          "type": "address"
        }
      ],
      "stateMutability": "view",
      "type": "function"
    },
    {
      "inputs": [
        {
          "internalType": "address[]",
          "name": "users",
          "type": "address[]"
        },
        {
          "internalType": "uint256[]",
          "name": "amounts",
          "type": "uint256[]"
        }
      ],
      "name": "distributeDailyRewards",
      "outputs": [],
      "stateMutability": "nonpayable",
      "type": "function"
    },
    {
      "inputs": [
        {
          "internalType": "address",
          "name": "startUser",
          "type": "address"
        }
      ],
      "name": "findNearestOffice",
      "outputs": [
        {
          "internalType": "address",
          "name": "",
          "type": "address"
        }
      ],
      "stateMutability": "view",
      "type": "function"
    },
    {
      "inputs": [],
      "name": "getARCPrice",
      "outputs": [
        {
          "internalType": "uint256",
          "name": "",
          "type": "uint256"
        }
      ],
      "stateMutability": "view",
      "type": "function"
    },
    {
      "inputs": [
        {
          "internalType": "uint256",
          "name": "amountIn",
          "type": "uint256"
        },
        {
          "internalType": "uint256",
          "name": "reserveIn",
          "type": "uint256"
        },
        {
          "internalType": "uint256",
          "name": "reserveOut",
          "type": "uint256"
        }
      ],
      "name": "getAmountOut",
      "outputs": [
        {
          "internalType": "uint256",
          "name": "",
          "type": "uint256"
        }
      ],
      "stateMutability": "pure",
      "type": "function"
    },
    {
      "inputs": [],
      "name": "getDesPrice",
      "outputs": [
        {
          "internalType": "uint256",
          "name": "",
          "type": "uint256"
        }
      ],
      "stateMutability": "view",
      "type": "function"
    },
    {
      "inputs": [
        {
          "internalType": "address",
          "name": "_user",
          "type": "address"
        }
      ],
      "name": "getDirectReferrals",
      "outputs": [
        {
          "internalType": "address[]",
          "name": "",
          "type": "address[]"
        }
      ],
      "stateMutability": "view",
      "type": "function"
    },
    {
      "inputs": [
        {
          "internalType": "address",
          "name": "_user",
          "type": "address"
        }
      ],
      "name": "getDirectReferralsData",
      "outputs": [
        {
          "components": [
            {
              "internalType": "address",
              "name": "user",
              "type": "address"
            },
            {
              "internalType": "uint256",
              "name": "ticketAmount",
              "type": "uint256"
            },
            {
              "internalType": "uint256",
              "name": "joinTime",
              "type": "uint256"
            }
          ],
          "internalType": "struct ArchimedesProtocol.ReferralData[]",
          "name": "",
          "type": "tuple[]"
        }
      ],
      "stateMutability": "view",
      "type": "function"
    },
    {
      "inputs": [
        {
          "internalType": "address",
          "name": "",
          "type": "address"
        }
      ],
      "name": "isCommunityOffice",
      "outputs": [
        {
          "internalType": "bool",
          "name": "",
          "type": "bool"
        }
      ],
      "stateMutability": "view",
      "type": "function"
    },
    {
      "inputs": [
        {
          "internalType": "address",
          "name": "",
          "type": "address"
        }
      ],
      "name": "isWhitelist",
      "outputs": [
        {
          "internalType": "bool",
          "name": "",
          "type": "bool"
        }
      ],
      "stateMutability": "view",
      "type": "function"
    },
    {
      "inputs": [],
      "name": "lastBurnTime",
      "outputs": [
        {
          "internalType": "uint256",
          "name": "",
          "type": "uint256"
        }
      ],
      "stateMutability": "view",
      "type": "function"
    },
    {
      "inputs": [],
      "name": "lpWallet",
      "outputs": [
        {
          "internalType": "address",
          "name": "",
          "type": "address"
        }
      ],
      "stateMutability": "view",
      "type": "function"
    },
    {
      "inputs": [],
      "name": "owner",
      "outputs": [
        {
          "internalType": "address",
          "name": "",
          "type": "address"
        }
      ],
      "stateMutability": "view",
      "type": "function"
    },
    {
      "inputs": [
        {
          "internalType": "address",
          "name": "",
          "type": "address"
        }
      ],
      "name": "pendingRewards",
      "outputs": [
        {
          "internalType": "uint256",
          "name": "",
          "type": "uint256"
        }
      ],
      "stateMutability": "view",
      "type": "function"
    },
    {
      "inputs": [],
      "name": "platformWallet",
      "outputs": [
        {
          "internalType": "address",
          "name": "",
          "type": "address"
        }
      ],
      "stateMutability": "view",
      "type": "function"
    },
    {
      "inputs": [],
      "name": "redeem",
      "outputs": [],
      "stateMutability": "nonpayable",
      "type": "function"
    },
    {
      "inputs": [
        {
          "internalType": "uint256",
          "name": "cycleDays",
          "type": "uint256"
        }
      ],
      "name": "reinvest",
      "outputs": [],
      "stateMutability": "nonpayable",
      "type": "function"
    },
    {
      "inputs": [],
      "name": "renounceOwnership",
      "outputs": [],
      "stateMutability": "nonpayable",
      "type": "function"
    },
    {
      "inputs": [
        {
          "internalType": "address",
          "name": "office",
          "type": "address"
        },
        {
          "internalType": "bool",
          "name": "status",
          "type": "bool"
        }
      ],
      "name": "setCommunityOffice",
      "outputs": [],
      "stateMutability": "nonpayable",
      "type": "function"
    },
    {
      "inputs": [
        {
          "internalType": "address",
          "name": "_platform",
          "type": "address"
        },
        {
          "internalType": "address",
          "name": "_lp",
          "type": "address"
        }
      ],
      "name": "setWallets",
      "outputs": [],
      "stateMutability": "nonpayable",
      "type": "function"
    },
    {
      "inputs": [
        {
          "internalType": "address",
          "name": "user",
          "type": "address"
        },
        {
          "internalType": "bool",
          "name": "status",
          "type": "bool"
        }
      ],
      "name": "setWhitelist",
      "outputs": [],
      "stateMutability": "nonpayable",
      "type": "function"
    },
    {
      "inputs": [
        {
          "internalType": "uint256",
          "name": "cycleDays",
          "type": "uint256"
        }
      ],
      "name": "stakeLiquidity",
      "outputs": [],
      "stateMutability": "nonpayable",
      "type": "function"
    },
    {
      "inputs": [
        {
          "internalType": "uint256",
          "name": "arcAmount",
          "type": "uint256"
        }
      ],
      "name": "swapARCToUSDT",
      "outputs": [],
      "stateMutability": "nonpayable",
      "type": "function"
    },
    {
      "inputs": [
        {
          "internalType": "uint256",
          "name": "desAmount",
          "type": "uint256"
        }
      ],
      "name": "swapDESToUSDT",
      "outputs": [],
      "stateMutability": "nonpayable",
      "type": "function"
    },
    {
      "inputs": [
        {
          "internalType": "uint256",
          "name": "usdtAmount",
          "type": "uint256"
        }
      ],
      "name": "swapUSDTToARC",
      "outputs": [],
      "stateMutability": "nonpayable",
      "type": "function"
    },
    {
      "inputs": [
        {
          "internalType": "uint256",
          "name": "usdtAmount",
          "type": "uint256"
        }
      ],
      "name": "swapUSDTToDES",
      "outputs": [],
      "stateMutability": "nonpayable",
      "type": "function"
    },
    {
      "inputs": [
        {
          "internalType": "address",
          "name": "newOwner",
          "type": "address"
        }
      ],
      "name": "transferOwnership",
      "outputs": [],
      "stateMutability": "nonpayable",
      "type": "function"
    },
    {
      "inputs": [],
      "name": "usdtToken",
      "outputs": [
        {
          "internalType": "contract IERC20",
          "name": "",
          "type": "address"
        }
      ],
      "stateMutability": "view",
      "type": "function"
    },
    {
      "inputs": [
        {
          "internalType": "address",
          "name": "",
          "type": "address"
        }
      ],
      "name": "userInfo",
      "outputs": [
        {
          "internalType": "address",
          "name": "referrer",
          "type": "address"
        },
        {
          "internalType": "uint256",
          "name": "activeDirects",
          "type": "uint256"
        },
        {
          "internalType": "uint256",
          "name": "teamCount",
          "type": "uint256"
        },
        {
          "internalType": "uint256",
          "name": "totalRevenue",
          "type": "uint256"
        },
        {
          "internalType": "uint256",
          "name": "currentCap",
          "type": "uint256"
        },
        {
          "internalType": "bool",
          "name": "isActive",
          "type": "bool"
        }
      ],
      "stateMutability": "view",
      "type": "function"
    },
    {
      "inputs": [
        {
          "internalType": "address",
          "name": "",
          "type": "address"
        }
      ],
      "name": "userTicket",
      "outputs": [
        {
          "internalType": "uint256",
          "name": "amount",
          "type": "uint256"
        },
        {
          "internalType": "uint256",
          "name": "requiredLiquidity",
          "type": "uint256"
        },
        {
          "internalType": "uint256",
          "name": "purchaseTime",
          "type": "uint256"
        },
        {
          "internalType": "bool",
          "name": "liquidityProvided",
          "type": "bool"
        },
        {
          "internalType": "uint256",
          "name": "liquidityAmount",
          "type": "uint256"
        },
        {
          "internalType": "uint256",
          "name": "startTime",
          "type": "uint256"
        },
        {
          "internalType": "uint256",
          "name": "cycleDays",
          "type": "uint256"
        },
        {
          "internalType": "bool",
          "name": "redeemed",
          "type": "bool"
        }
      ],
      "stateMutability": "view",
      "type": "function"
    }
  ],
  "bytecode": "0x608060405260006009556005600a556729a2241af62c0000600b556005600c553480156200002c57600080fd5b5060405162003a4938038062003a498339810160408190526200004f9162000156565b33806200007657604051631e4fbdf760e01b81526000600482015260240160405180910390fd5b6200008181620000e9565b5060018055600280546001600160a01b03199081166001600160a01b03978816179091556003805482169587169590951790945560048054851693861693909317909255600580548416918516919091179055600680549092169216919091179055620001c6565b600080546001600160a01b038381166001600160a01b0319831681178455604051919092169283917f8be0079c531659141344cd1fd0a4f28419497f9722a3daafe3b4186f6b6457e09190a35050565b80516001600160a01b03811681146200015157600080fd5b919050565b600080600080600060a086880312156200016f57600080fd5b6200017a8662000139565b94506200018a6020870162000139565b93506200019a6040870162000139565b9250620001aa6060870162000139565b9150620001ba6080870162000139565b90509295509295909350565b61387380620001d66000396000f3fe608060405234801561001057600080fd5b50600436106102955760003560e01c8063715018a611610167578063be040fb0116100ce578063d395663011610087578063d395663014610681578063d3f6a15714610689578063e1b68b8c1461069c578063e3067449146106af578063f2fde38b146106b8578063fa2af9da146106cb57600080fd5b8063be040fb014610612578063be0c962d1461061a578063c011267814610623578063c130ebc714610636578063c683630d1461063e578063d2c8e0e51461066157600080fd5b80638da5cb5b116101205780638da5cb5b146105b55780639ad7246c146105c6578063a2af9226146105d9578063a98ad46c146105ec578063af92030d14610445578063bcc0c37d146105ff57600080fd5b8063715018a6146104e457806372367b1514610445578063802cf247146104ec57806383b4918b146104ff578063862f4282146105125780638710bcaa1461052057600080fd5b806338729c291161020b5780635c67a5e0116101c45780635c67a5e01461048f5780636072e7421461049857806361a52a36146104a15780636303516c146104ab57806367dd74ca146104be5780636fb3c47c146104d157600080fd5b806338729c291461043257806348981d8a14610445578063499984fc1461044d57806353d6fd5914610460578063554f522f14610473578063567b1ac91461048657600080fd5b8063153936c21161025d578063153936c214610353578063168227b9146103665780631959a0021461036e57806331d7a262146103f75780633507637314610417578063372500ab1461042a57600080fd5b806304f618cb1461029a578063054d50d4146102af57806305ad3935146102d55780630fc4fc1a146103005780631346c90e14610320575b600080fd5b6102ad6102a8366004613429565b6106de565b005b6102c26102bd36600461344b565b61084b565b6040519081526020015b60405180910390f35b6102e86102e3366004613477565b610921565b6040516001600160a01b0390911681526020016102cc565b61031361030e366004613429565b610959565b6040516102cc91906134a1565b61034361032e366004613429565b60076020526000908152604090205460ff1681565b60405190151581526020016102cc565b6102ad61036136600461354f565b610b49565b6102c2604181565b6103be61037c366004613429565b600d602052600090815260409020805460018201546002830154600384015460048501546005909501546001600160a01b039094169492939192909160ff1686565b604080516001600160a01b03909716875260208701959095529385019290925260608401526080830152151560a082015260c0016102cc565b6102c2610405366004613429565b60106020526000908152604090205481565b6102ad6104253660046135bb565b610c2f565b6102ad610eb6565b6102ad6104403660046135bb565b6113ae565b6102c2600a81565b6102ad61045b3660046135bb565b6116b8565b6102ad61046e3660046135e2565b611b0a565b6102ad6104813660046135bb565b611b3d565b6102c260095481565b6102c2600b5481565b6102c2600c5481565b6102c26201518081565b6006546102e8906001600160a01b031681565b6102ad6104cc3660046135bb565b611f42565b6102ad6104df366004613619565b6124ea565b6102ad612519565b6102e86104fa366004613429565b61252b565b6102ad61050d3660046135bb565b6125cd565b670de0b6b3a76400006102c2565b61057861052e366004613429565b600e602052600090815260409020805460018201546002830154600384015460048501546005860154600687015460079097015495969495939460ff938416949293919290911688565b604080519889526020890197909752958701949094529115156060860152608085015260a084015260c0830152151560e0820152610100016102cc565b6000546001600160a01b03166102e8565b6102ad6105d43660046135bb565b6129ac565b6102ad6105e736600461364c565b612d64565b6002546102e8906001600160a01b031681565b6102ad61060d3660046135e2565b612f6a565b6102ad612f9d565b6102c2600a5481565b6003546102e8906001600160a01b031681565b6102c2600581565b61034361064c366004613429565b60086020526000908152604090205460ff1681565b61067461066f366004613429565b613165565b6040516102cc919061367f565b6102c26131db565b6102ad61069736600461364c565b6132f5565b6004546102e8906001600160a01b031681565b6102c260115481565b6102ad6106c6366004613429565b61332b565b6005546102e8906001600160a01b031681565b336000908152600d60205260409020546001600160a01b0316156107395760405162461bcd60e51b815260206004820152600d60248201526c105b1c9958591e48189bdd5b99609a1b60448201526064015b60405180910390fd5b336001600160a01b038216036107845760405162461bcd60e51b815260206004820152601060248201526f21b0b73737ba103134b7321039b2b63360811b6044820152606401610730565b6001600160a01b0381166107cd5760405162461bcd60e51b815260206004820152601060248201526f24b73b30b634b2103932b332b93932b960811b6044820152606401610730565b336000818152600d6020908152604080832080546001600160a01b0387166001600160a01b03199182168117909255818552600f8452828520805460018101825590865293852090930180549093168517909255519092917fa6dbb5aa28f35437de94d685d66edce5fb4812196b4984b91dfd5a7b38c0fb3091a350565b600080841161089c5760405162461bcd60e51b815260206004820152601960248201527f496e73756666696369656e7420696e70757420616d6f756e74000000000000006044820152606401610730565b6000831180156108ac5750600082115b6108f15760405162461bcd60e51b8152602060048201526016602482015275496e73756666696369656e74206c697175696469747960501b6044820152606401610730565b60006108fd83866136e2565b9050600061090b86866136ff565b90506109178183613712565b9695505050505050565b600f602052816000526040600020818154811061093d57600080fd5b6000918252602090912001546001600160a01b03169150829050565b6001600160a01b0381166000908152600f602090815260408083208054825181850281018501909352808352606094938301828280156109c257602002820191906000526020600020905b81546001600160a01b031681526001909101906020018083116109a4575b505050505090506000815167ffffffffffffffff8111156109e5576109e5613734565b604051908082528060200260200182016040528015610a4357816020015b610a30604051806060016040528060006001600160a01b0316815260200160008152602001600081525090565b815260200190600190039081610a035790505b50905060005b8251811015610b41576040518060600160405280848381518110610a6f57610a6f61374a565b60200260200101516001600160a01b03168152602001600e6000868581518110610a9b57610a9b61374a565b60200260200101516001600160a01b03166001600160a01b03168152602001908152602001600020600001548152602001600e6000868581518110610ae257610ae261374a565b60200260200101516001600160a01b03166001600160a01b0316815260200190815260200160002060020154815250828281518110610b2357610b2361374a565b60200260200101819052508080610b3990613760565b915050610a49565b509392505050565b610b51613366565b828114610b925760405162461bcd60e51b815260206004820152600f60248201526e098cadccee8d040dad2e6dac2e8c6d608b1b6044820152606401610730565b60005b83811015610c2857828282818110610baf57610baf61374a565b9050602002013560106000878785818110610bcc57610bcc61374a565b9050602002016020810190610be19190613429565b6001600160a01b03166001600160a01b031681526020019081526020016000206000828254610c1091906136ff565b90915550819050610c2081613760565b915050610b95565b5050505050565b610c37613393565b336000908152600e60205260409020805415801590610c5b5750600381015460ff16155b610c995760405162461bcd60e51b815260206004820152600f60248201526e139bc81d985b1a59081d1a58dad95d608a1b6044820152606401610730565b6002810154610cab906203f4806136ff565b421115610ceb5760405162461bcd60e51b815260206004820152600e60248201526d151a58dad95d08195e1c1a5c995960921b6044820152606401610730565b8160071480610cfa575081600f145b80610d05575081601e145b610d415760405162461bcd60e51b815260206004820152600d60248201526c496e76616c6964206379636c6560981b6044820152606401610730565b60018101546002546040516323b872dd60e01b81526001600160a01b03909116906323b872dd90610d7a90339030908690600401613779565b6020604051808303816000875af1158015610d99573d6000803e3d6000fd5b505050506040513d601f19601f82011682018060405250810190610dbd919061379d565b5060038201805460ff191660011790556004820181905542600583015560068201839055336000908152600d60205260409020546001600160a01b03168015801590610e1c5750336000908152600d602052604090206005015460ff16155b15610e6b576001600160a01b0381166000908152600d60205260408120600101805491610e4883613760565b9091555050336000908152600d60205260409020600501805460ff191660011790555b604080518381526020810186905233917f1e54d7530dad81af38adb8ca9db02add3130668375f37be85396403616fc3d4991015b60405180910390a2505050610eb360018055565b50565b610ebe613393565b3360009081526010602052604090205480610f115760405162461bcd60e51b81526020600482015260136024820152724e6f207265776172647320746f20636c61696d60681b6044820152606401610730565b670de0b6b3a76400006000610f246131db565b90506000670de0b6b3a7640000610f3b83866136e2565b610f459190613712565b905060006064600c5483610f5991906136e2565b610f639190613712565b9050600084610f7a83670de0b6b3a76400006136e2565b610f849190613712565b90506000600b5482610f9691906136ff565b600480546040516370a0823160e01b8152339281019290925291925082916001600160a01b0316906370a0823190602401602060405180830381865afa158015610fe4573d6000803e3d6000fd5b505050506040513d601f19601f8201168201806040525081019061100891906137ba565b10156110565760405162461bcd60e51b815260206004820152601860248201527f496e73756666696369656e742044455320666f722066656500000000000000006044820152606401610730565b336000908152600d60205260409020546001600160a01b0316801561117f5782156110f357600480546040516323b872dd60e01b81526001600160a01b03909116916323b872dd916110ae9133918691899101613779565b6020604051808303816000875af11580156110cd573d6000803e3d6000fd5b505050506040513d601f19601f820116820180604052508101906110f1919061379d565b505b600b541561117a5760048054600554600b546040516323b872dd60e01b81526001600160a01b03938416946323b872dd94611135943394911692909101613779565b6020604051808303816000875af1158015611154573d6000803e3d6000fd5b505050506040513d601f19601f82011682018060405250810190611178919061379d565b505b6111fb565b600480546005546040516323b872dd60e01b81526001600160a01b03928316936323b872dd936111b6933393911691889101613779565b6020604051808303816000875af11580156111d5573d6000803e3d6000fd5b505050506040513d601f19601f820116820180604052508101906111f9919061379d565b505b336000908152601060209081526040808320839055600d9091528120600301805487929061122a9084906136ff565b90915550506003546040516370a0823160e01b815230600482015289916001600160a01b0316906370a0823190602401602060405180830381865afa158015611277573d6000803e3d6000fd5b505050506040513d601f19601f8201168201806040525081019061129b91906137ba565b10156112e95760405162461bcd60e51b815260206004820152601860248201527f496e73756666696369656e742041524320696e20706f6f6c00000000000000006044820152606401610730565b60035460405163a9059cbb60e01b81526001600160a01b039091169063a9059cbb9061131b9033908c906004016137d3565b6020604051808303816000875af115801561133a573d6000803e3d6000fd5b505050506040513d601f19601f8201168201806040525081019061135e919061379d565b506040805160008152602081018a905233917ff01da32686223933d8a18a391060918c7f11a3648639edd87ae013e2e2731743910160405180910390a250505050505050506113ac60018055565b565b6113b6613393565b600081116113d65760405162461bcd60e51b8152600401610730906137ec565b6002546040516323b872dd60e01b81526001600160a01b03909116906323b872dd9061140a90339030908690600401613779565b6020604051808303816000875af1158015611429573d6000803e3d6000fd5b505050506040513d601f19601f8201168201806040525081019061144d919061379d565b506002546040516370a0823160e01b815230600482015260009183916001600160a01b03909116906370a0823190602401602060405180830381865afa15801561149b573d6000803e3d6000fd5b505050506040513d601f19601f820116820180604052508101906114bf91906137ba565b6114c99190613814565b600480546040516370a0823160e01b815230928101929092529192506000916001600160a01b0316906370a0823190602401602060405180830381865afa158015611518573d6000803e3d6000fd5b505050506040513d601f19601f8201168201806040525081019061153c91906137ba565b9050600061154b84848461084b565b600480546040516370a0823160e01b8152309281019290925291925082916001600160a01b0316906370a0823190602401602060405180830381865afa158015611599573d6000803e3d6000fd5b505050506040513d601f19601f820116820180604052508101906115bd91906137ba565b101561160b5760405162461bcd60e51b815260206004820152601a60248201527f496e73756666696369656e7420444553206c69717569646974790000000000006044820152606401610730565b6004805460405163a9059cbb60e01b81526001600160a01b039091169163a9059cbb9161163c9133918691016137d3565b6020604051808303816000875af115801561165b573d6000803e3d6000fd5b505050506040513d601f19601f8201168201806040525081019061167f919061379d565b50604080518581526020810183905233917ff0aecc972a450cc802dcc2bc28856bc3ab464a5fb18d3593d82e935dc52f6cf89101610e9f565b6116c0613393565b600081116116e05760405162461bcd60e51b8152600401610730906137ec565b6003546040516323b872dd60e01b81526001600160a01b03909116906323b872dd9061171490339030908690600401613779565b6020604051808303816000875af1158015611733573d6000803e3d6000fd5b505050506040513d601f19601f82011682018060405250810190611757919061379d565b5060006064600a548361176a91906136e2565b6117749190613712565b905060006117828284613814565b9050600060056117938460026136e2565b61179d9190613712565b905060006117ab8285613814565b600354604051630852cd8d60e31b8152600481018590529192506001600160a01b0316906342966c6890602401600060405180830381600087803b1580156117f257600080fd5b505af1158015611806573d6000803e3d6000fd5b505060035460055460405163a9059cbb60e01b81526001600160a01b03928316945063a9059cbb9350611841929091169085906004016137d3565b6020604051808303816000875af1158015611860573d6000803e3d6000fd5b505050506040513d601f19601f82011682018060405250810190611884919061379d565b506003546040516370a0823160e01b815230600482015260009185916001600160a01b03909116906370a0823190602401602060405180830381865afa1580156118d2573d6000803e3d6000fd5b505050506040513d601f19601f820116820180604052508101906118f691906137ba565b6119009190613814565b6002546040516370a0823160e01b81523060048201529192506000916001600160a01b03909116906370a0823190602401602060405180830381865afa15801561194e573d6000803e3d6000fd5b505050506040513d601f19601f8201168201806040525081019061197291906137ba565b9050600061198186848461084b565b6002546040516370a0823160e01b815230600482015291925082916001600160a01b03909116906370a0823190602401602060405180830381865afa1580156119ce573d6000803e3d6000fd5b505050506040513d601f19601f820116820180604052508101906119f291906137ba565b1015611a405760405162461bcd60e51b815260206004820152601b60248201527f496e73756666696369656e742055534454206c697175696469747900000000006044820152606401610730565b60025460405163a9059cbb60e01b81526001600160a01b039091169063a9059cbb90611a7290339085906004016137d3565b6020604051808303816000875af1158015611a91573d6000803e3d6000fd5b505050506040513d601f19601f82011682018060405250810190611ab5919061379d565b50604080518981526020810183905290810188905233907f1eed3bdeee9d82340f29d468acabeb304c93cce7a28a4216224faa0b76729af2906060015b60405180910390a250505050505050610eb360018055565b611b12613366565b6001600160a01b03919091166000908152600860205260409020805460ff1916911515919091179055565b611b45613393565b60008111611b655760405162461bcd60e51b8152600401610730906137ec565b3360009081526008602052604090205460ff16611bb65760405162461bcd60e51b815260206004820152600f60248201526e139bdd081dda1a5d195b1a5cdd1959608a1b6044820152606401610730565b6002546040516323b872dd60e01b81526001600160a01b03909116906323b872dd90611bea90339030908690600401613779565b6020604051808303816000875af1158015611c09573d6000803e3d6000fd5b505050506040513d601f19601f82011682018060405250810190611c2d919061379d565b506002546040516370a0823160e01b815230600482015260009183916001600160a01b03909116906370a0823190602401602060405180830381865afa158015611c7b573d6000803e3d6000fd5b505050506040513d601f19601f82011682018060405250810190611c9f91906137ba565b611ca99190613814565b6003546040516370a0823160e01b81523060048201529192506000916001600160a01b03909116906370a0823190602401602060405180830381865afa158015611cf7573d6000803e3d6000fd5b505050506040513d601f19601f82011682018060405250810190611d1b91906137ba565b90506000611d2a84848461084b565b90506000606460095483611d3e91906136e2565b611d489190613712565b90506000611d568284613814565b6003546040516370a0823160e01b815230600482015291925084916001600160a01b03909116906370a0823190602401602060405180830381865afa158015611da3573d6000803e3d6000fd5b505050506040513d601f19601f82011682018060405250810190611dc791906137ba565b1015611e155760405162461bcd60e51b815260206004820152601a60248201527f496e73756666696369656e7420415243206c69717569646974790000000000006044820152606401610730565b8115611e7a57600354604051630852cd8d60e31b8152600481018490526001600160a01b03909116906342966c6890602401600060405180830381600087803b158015611e6157600080fd5b505af1158015611e75573d6000803e3d6000fd5b505050505b60035460405163a9059cbb60e01b81526001600160a01b039091169063a9059cbb90611eac90339085906004016137d3565b6020604051808303816000875af1158015611ecb573d6000803e3d6000fd5b505050506040513d601f19601f82011682018060405250810190611eef919061379d565b50604080518781526020810183905290810183905233907f9edc11466a9166c0daefc9317555d1d11239efee7db542e4a3104f9808ac9c48906060015b60405180910390a25050505050610eb360018055565b611f4a613393565b8068056bc75e2d631000001480611f69575080681043561a8829300000145b80611f7c575080681b1ae4d6e2ef500000145b80611f8f575080683635c9adc5dea00000145b611fd15760405162461bcd60e51b815260206004820152601360248201527224b73b30b634b2103a34b1b5b2ba103a34b2b960691b6044820152606401610730565b336000908152600e602052604090206003015460ff1615806120055750336000908152600e602052604090206007015460ff165b6120485760405162461bcd60e51b8152602060048201526014602482015273416374697665207469636b65742065786973747360601b6044820152606401610730565b6002546040516323b872dd60e01b81526001600160a01b03909116906323b872dd9061207c90339030908690600401613779565b6020604051808303816000875af115801561209b573d6000803e3d6000fd5b505050506040513d601f19601f820116820180604052508101906120bf919061379d565b50600254600580546001600160a01b039283169263a9059cbb929116906064906120e990866136e2565b6120f39190613712565b6040518363ffffffff1660e01b81526004016121109291906137d3565b6020604051808303816000875af115801561212f573d6000803e3d6000fd5b505050506040513d601f19601f82011682018060405250810190612153919061379d565b50600061215f3361252b565b90506001600160a01b038116156121ff576002546001600160a01b031663a9059cbb82606461218f600a876136e2565b6121999190613712565b6040518363ffffffff1660e01b81526004016121b69291906137d3565b6020604051808303816000875af11580156121d5573d6000803e3d6000fd5b505050506040513d601f19601f820116820180604052508101906121f9919061379d565b50612291565b6002546005546001600160a01b039182169163a9059cbb91166064612225600a876136e2565b61222f9190613712565b6040518363ffffffff1660e01b815260040161224c9291906137d3565b6020604051808303816000875af115801561226b573d6000803e3d6000fd5b505050506040513d601f19601f8201168201806040525081019061228f919061379d565b505b6002546005546001600160a01b039182169163a9059cbb911660646122b7600a876136e2565b6122c19190613712565b6040518363ffffffff1660e01b81526004016122de9291906137d3565b6020604051808303816000875af11580156122fd573d6000803e3d6000fd5b505050506040513d601f19601f82011682018060405250810190612321919061379d565b506002546006546001600160a01b039182169163a9059cbb91166064612348600a876136e2565b6123529190613712565b6040518363ffffffff1660e01b815260040161236f9291906137d3565b6020604051808303816000875af115801561238e573d6000803e3d6000fd5b505050506040513d601f19601f820116820180604052508101906123b2919061379d565b5060405180610100016040528083815260200160648460966123d491906136e2565b6123de9190613712565b815242602080830191909152600060408084018290526060808501839052608080860184905260a080870185905260c0968701859052338552600e865293839020875181559487015160018601559186015160028501558501516003808501805492151560ff1993841617905591860151600485015591850151600584015592840151600683015560e0909301516007909101805491151591909316179091556124899083906136e2565b336000818152600d6020526040808220600481019490945560039093015590517f0668f5b446eb814fe35b3206f43f14bd8567ba04ddaf7a3ee56516929ab22ccb906124d89085815260200190565b60405180910390a250610eb360018055565b6124f2613366565b6001600160a01b039092166000908152600d60205260409020600181019190915560020155565b612521613366565b6113ac60006133bd565b6001600160a01b038082166000908152600d6020526040812054909116815b60148110156125c3576001600160a01b03821661256b575060009392505050565b6001600160a01b03821660009081526007602052604090205460ff1615612593575092915050565b6001600160a01b039182166000908152600d602052604090205490911690806125bb81613760565b91505061254a565b5060009392505050565b6125d5613393565b336000908152600e602052604090208054158015906125f95750600381015460ff16155b6126375760405162461bcd60e51b815260206004820152600f60248201526e139bc81d985b1a59081d1a58dad95d608a1b6044820152606401610730565b6002810154612649906203f4806136ff565b4211156126895760405162461bcd60e51b815260206004820152600e60248201526d151a58dad95d08195e1c1a5c995960921b6044820152606401610730565b8160071480612698575081600f145b806126a3575081601e145b6126df5760405162461bcd60e51b815260206004820152600d60248201526c496e76616c6964206379636c6560981b6044820152606401610730565b600181015460006126f1600283613712565b90506000612700600284613712565b6002546040516323b872dd60e01b81529192506001600160a01b0316906323b872dd9061273590339030908790600401613779565b6020604051808303816000875af1158015612754573d6000803e3d6000fd5b505050506040513d601f19601f82011682018060405250810190612778919061379d565b5060006127836131db565b9050600081116127c95760405162461bcd60e51b8152602060048201526011602482015270496e76616c69642041524320707269636560781b6044820152606401610730565b6000816127de84670de0b6b3a76400006136e2565b6127e89190613712565b6003546040516323b872dd60e01b81529192506001600160a01b0316906323b872dd9061281d90339030908690600401613779565b6020604051808303816000875af115801561283c573d6000803e3d6000fd5b505050506040513d601f19601f82011682018060405250810190612860919061379d565b50600354604051630852cd8d60e31b8152600481018390526001600160a01b03909116906342966c6890602401600060405180830381600087803b1580156128a757600080fd5b505af11580156128bb573d6000803e3d6000fd5b50505060038701805460ff19166001179055506004860185905542600587015560068601879055336000908152600d60205260409020546001600160a01b0316801580159061291d5750336000908152600d602052604090206005015460ff16155b1561296c576001600160a01b0381166000908152600d6020526040812060010180549161294983613760565b9091555050336000908152600d60205260409020600501805460ff191660011790555b604080518681526020810184905290810189905233907f9cfb69573e723556113a4c1d469472ed9ef129dec950aa1680b41d930df0a78b90606001611af2565b6129b4613393565b600081116129d45760405162461bcd60e51b8152600401610730906137ec565b600480546040516323b872dd60e01b81526001600160a01b03909116916323b872dd91612a079133913091879101613779565b6020604051808303816000875af1158015612a26573d6000803e3d6000fd5b505050506040513d601f19601f82011682018060405250810190612a4a919061379d565b5060006064612a5a8360036136e2565b612a649190613712565b90506000612a728284613814565b90508115612af2576004805460405163a9059cbb60e01b81526001600160a01b039091169163a9059cbb91612aad9161dead918791016137d3565b6020604051808303816000875af1158015612acc573d6000803e3d6000fd5b505050506040513d601f19601f82011682018060405250810190612af0919061379d565b505b600480546040516370a0823160e01b8152309281019290925260009183916001600160a01b0316906370a0823190602401602060405180830381865afa158015612b40573d6000803e3d6000fd5b505050506040513d601f19601f82011682018060405250810190612b6491906137ba565b612b6e9190613814565b6002546040516370a0823160e01b81523060048201529192506000916001600160a01b03909116906370a0823190602401602060405180830381865afa158015612bbc573d6000803e3d6000fd5b505050506040513d601f19601f82011682018060405250810190612be091906137ba565b90506000612bef84848461084b565b6002546040516370a0823160e01b815230600482015291925082916001600160a01b03909116906370a0823190602401602060405180830381865afa158015612c3c573d6000803e3d6000fd5b505050506040513d601f19601f82011682018060405250810190612c6091906137ba565b1015612cae5760405162461bcd60e51b815260206004820152601b60248201527f496e73756666696369656e742055534454206c697175696469747900000000006044820152606401610730565b60025460405163a9059cbb60e01b81526001600160a01b039091169063a9059cbb90612ce090339085906004016137d3565b6020604051808303816000875af1158015612cff573d6000803e3d6000fd5b505050506040513d601f19601f82011682018060405250810190612d23919061379d565b50604080518781526020810183905290810186905233907f0dfd0a4092ab5d99c1109d22a6d2f9b70cb2d865e7971f7ef393e623f60295ae90606001611f2c565b612d6c613366565b806001600160a01b0316826001600160a01b031603612dc05760405162461bcd60e51b815260206004820152601060248201526f21b0b73737ba103134b7321039b2b63360811b6044820152606401610730565b6001600160a01b038083166000908152600d6020526040902080548383166001600160a01b0319821617909155168015612f17576001600160a01b0381166000908152600f60205260408120905b8154811015612f1457846001600160a01b0316828281548110612e3357612e3361374a565b6000918252602090912001546001600160a01b031603612f025781548290612e5d90600190613814565b81548110612e6d57612e6d61374a565b9060005260206000200160009054906101000a90046001600160a01b0316828281548110612e9d57612e9d61374a565b9060005260206000200160006101000a8154816001600160a01b0302191690836001600160a01b0316021790555081805480612edb57612edb613827565b600082815260209020810160001990810180546001600160a01b0319169055019055612f14565b80612f0c81613760565b915050612e0e565b50505b6001600160a01b03821615612f65576001600160a01b038281166000908152600f602090815260408220805460018101825590835291200180546001600160a01b0319169185169190911790555b505050565b612f72613366565b6001600160a01b03919091166000908152600760205260409020805460ff1916911515919091179055565b612fa5613393565b336000908152600e60205260409020600381015460ff168015612fcd5750600781015460ff16155b6130095760405162461bcd60e51b815260206004820152600d60248201526c43616e6e6f742072656465656d60981b6044820152606401610730565b600681015461301b90620151806136e2565b816005015461302a91906136ff565b42101561306e5760405162461bcd60e51b815260206004820152601260248201527110de58db19481b9bdd08199a5b9a5cda195960721b6044820152606401610730565b60025460048083015460405163a9059cbb60e01b81526001600160a01b039093169263a9059cbb926130a49233929091016137d3565b6020604051808303816000875af11580156130c3573d6000803e3d6000fd5b505050506040513d601f19601f820116820180604052508101906130e7919061379d565b5060078101805460ff19908116600117909155336000818152600d602052604080822060050180549094169093556004840154925191927ff3a670cd3af7d64b488926880889d08a8585a138ff455227af6737339a1ec262926131539290918252602082015260400190565b60405180910390a2506113ac60018055565b6001600160a01b0381166000908152600f60209081526040918290208054835181840281018401909452808452606093928301828280156131cf57602002820191906000526020600020905b81546001600160a01b031681526001909101906020018083116131b1575b50505050509050919050565b6002546040516370a0823160e01b815230600482015260009182916001600160a01b03909116906370a0823190602401602060405180830381865afa158015613228573d6000803e3d6000fd5b505050506040513d601f19601f8201168201806040525081019061324c91906137ba565b6003546040516370a0823160e01b81523060048201529192506000916001600160a01b03909116906370a0823190602401602060405180830381865afa15801561329a573d6000803e3d6000fd5b505050506040513d601f19601f820116820180604052508101906132be91906137ba565b9050806000036132d15760009250505090565b806132e483670de0b6b3a76400006136e2565b6132ee9190613712565b9250505090565b6132fd613366565b600580546001600160a01b039384166001600160a01b03199182161790915560068054929093169116179055565b613333613366565b6001600160a01b03811661335d57604051631e4fbdf760e01b815260006004820152602401610730565b610eb3816133bd565b6000546001600160a01b031633146113ac5760405163118cdaa760e01b8152336004820152602401610730565b6002600154036133b657604051633ee5aeb560e01b815260040160405180910390fd5b6002600155565b600080546001600160a01b038381166001600160a01b0319831681178455604051919092169283917f8be0079c531659141344cd1fd0a4f28419497f9722a3daafe3b4186f6b6457e09190a35050565b80356001600160a01b038116811461342457600080fd5b919050565b60006020828403121561343b57600080fd5b6134448261340d565b9392505050565b60008060006060848603121561346057600080fd5b505081359360208301359350604090920135919050565b6000806040838503121561348a57600080fd5b6134938361340d565b946020939093013593505050565b602080825282518282018190526000919060409081850190868401855b828110156134f657815180516001600160a01b03168552868101518786015285015185850152606090930192908501906001016134be565b5091979650505050505050565b60008083601f84011261351557600080fd5b50813567ffffffffffffffff81111561352d57600080fd5b6020830191508360208260051b850101111561354857600080fd5b9250929050565b6000806000806040858703121561356557600080fd5b843567ffffffffffffffff8082111561357d57600080fd5b61358988838901613503565b909650945060208701359150808211156135a257600080fd5b506135af87828801613503565b95989497509550505050565b6000602082840312156135cd57600080fd5b5035919050565b8015158114610eb357600080fd5b600080604083850312156135f557600080fd5b6135fe8361340d565b9150602083013561360e816135d4565b809150509250929050565b60008060006060848603121561362e57600080fd5b6136378461340d565b95602085013595506040909401359392505050565b6000806040838503121561365f57600080fd5b6136688361340d565b91506136766020840161340d565b90509250929050565b6020808252825182820181905260009190848201906040850190845b818110156136c05783516001600160a01b03168352928401929184019160010161369b565b50909695505050505050565b634e487b7160e01b600052601160045260246000fd5b80820281158282048414176136f9576136f96136cc565b92915050565b808201808211156136f9576136f96136cc565b60008261372f57634e487b7160e01b600052601260045260246000fd5b500490565b634e487b7160e01b600052604160045260246000fd5b634e487b7160e01b600052603260045260246000fd5b600060018201613772576137726136cc565b5060010190565b6001600160a01b039384168152919092166020820152604081019190915260600190565b6000602082840312156137af57600080fd5b8151613444816135d4565b6000602082840312156137cc57600080fd5b5051919050565b6001600160a01b03929092168252602082015260400190565b6020808252600e908201526d125b9d985b1a5908185b5bdd5b9d60921b604082015260600190565b818103818111156136f9576136f96136cc565b634e487b7160e01b600052603160045260246000fdfea2646970667358221220c9043d36894a2e91089449bc8f7de8a7a29d4d7f0dcb07e4a1accdf7cbb2565164736f6c63430008140033",
  "linkReferences": {},
  "deployedLinkReferences": {}
}