{
  "_format": "hh-sol-artifact-1",
  "contractName": "DES",
  "sourceName": "contracts/DES.sol",
  "abi": [
    {
      "inputs": [
        {
          "internalType": "address",
          "name": "initialOwner",
          "type": "address"
        }
      ],
      "stateMutability": "nonpayable",
      "type": "constructor"
    },
    {
      "inputs": [
        {
          "internalType": "address",
          "name": "spender",
          "type": "address"
        },
        {
          "internalType": "uint256",
          "name": "allowance",
          "type": "uint256"
        },
        {
          "internalType": "uint256",
          "name": "needed",
          "type": "uint256"
        }
      ],
      "name": "ERC20InsufficientAllowance",
      "type": "error"
    },
    {
      "inputs": [
        {
          "internalType": "address",
          "name": "sender",
          "type": "address"
        },
        {
          "internalType": "uint256",
          "name": "balance",
          "type": "uint256"
        },
        {
          "internalType": "uint256",
          "name": "needed",
          "type": "uint256"
        }
      ],
      "name": "ERC20InsufficientBalance",
      "type": "error"
    },
    {
      "inputs": [
        {
          "internalType": "address",
          "name": "approver",
          "type": "address"
        }
      ],
      "name": "ERC20InvalidApprover",
      "type": "error"
    },
    {
      "inputs": [
        {
          "internalType": "address",
          "name": "receiver",
          "type": "address"
        }
      ],
      "name": "ERC20InvalidReceiver",
      "type": "error"
    },
    {
      "inputs": [
        {
          "internalType": "address",
          "name": "sender",
          "type": "address"
        }
      ],
      "name": "ERC20InvalidSender",
      "type": "error"
    },
    {
      "inputs": [
        {
          "internalType": "address",
          "name": "spender",
          "type": "address"
        }
      ],
      "name": "ERC20InvalidSpender",
      "type": "error"
    },
    {
      "inputs": [
        {
          "internalType": "address",
          "name": "owner",
          "type": "address"
        }
      ],
      "name": "OwnableInvalidOwner",
      "type": "error"
    },
    {
      "inputs": [
        {
          "internalType": "address",
          "name": "account",
          "type": "address"
        }
      ],
      "name": "OwnableUnauthorizedAccount",
      "type": "error"
    },
    {
      "anonymous": false,
      "inputs": [
        {
          "indexed": true,
          "internalType": "address",
          "name": "owner",
          "type": "address"
        },
        {
          "indexed": true,
          "internalType": "address",
          "name": "spender",
          "type": "address"
        },
        {
          "indexed": false,
          "internalType": "uint256",
          "name": "value",
          "type": "uint256"
        }
      ],
      "name": "Approval",
      "type": "event"
    },
    {
      "anonymous": false,
      "inputs": [
        {
          "indexed": true,
          "internalType": "address",
          "name": "previousOwner",
          "type": "address"
        },
        {
          "indexed": true,
          "internalType": "address",
          "name": "newOwner",
          "type": "address"
        }
      ],
      "name": "OwnershipTransferred",
      "type": "event"
    },
    {
      "anonymous": false,
      "inputs": [
        {
          "indexed": true,
          "internalType": "address",
          "name": "from",
          "type": "address"
        },
        {
          "indexed": true,
          "internalType": "address",
          "name": "to",
          "type": "address"
        },
        {
          "indexed": false,
          "internalType": "uint256",
          "name": "value",
          "type": "uint256"
        }
      ],
      "name": "Transfer",
      "type": "event"
    },
    {
      "inputs": [],
      "name": "BLACK_HOLE",
      "outputs": [
        {
          "internalType": "address",
          "name": "",
          "type": "address"
        }
      ],
      "stateMutability": "view",
      "type": "function"
    },
    {
      "inputs": [],
      "name": "BUY_TAX",
      "outputs": [
        {
          "internalType": "uint256",
          "name": "",
          "type": "uint256"
        }
      ],
      "stateMutability": "view",
      "type": "function"
    },
    {
      "inputs": [],
      "name": "SELL_TAX",
      "outputs": [
        {
          "internalType": "uint256",
          "name": "",
          "type": "uint256"
        }
      ],
      "stateMutability": "view",
      "type": "function"
    },
    {
      "inputs": [
        {
          "internalType": "address",
          "name": "owner",
          "type": "address"
        },
        {
          "internalType": "address",
          "name": "spender",
          "type": "address"
        }
      ],
      "name": "allowance",
      "outputs": [
        {
          "internalType": "uint256",
          "name": "",
          "type": "uint256"
        }
      ],
      "stateMutability": "view",
      "type": "function"
    },
    {
      "inputs": [
        {
          "internalType": "address",
          "name": "spender",
          "type": "address"
        },
        {
          "internalType": "uint256",
          "name": "value",
          "type": "uint256"
        }
      ],
      "name": "approve",
      "outputs": [
        {
          "internalType": "bool",
          "name": "",
          "type": "bool"
        }
      ],
      "stateMutability": "nonpayable",
      "type": "function"
    },
    {
      "inputs": [
        {
          "internalType": "address",
          "name": "account",
          "type": "address"
        }
      ],
      "name": "balanceOf",
      "outputs": [
        {
          "internalType": "uint256",
          "name": "",
          "type": "uint256"
        }
      ],
      "stateMutability": "view",
      "type": "function"
    },
    {
      "inputs": [
        {
          "internalType": "uint256",
          "name": "amount",
          "type": "uint256"
        }
      ],
      "name": "burn",
      "outputs": [],
      "stateMutability": "nonpayable",
      "type": "function"
    },
    {
      "inputs": [],
      "name": "decimals",
      "outputs": [
        {
          "internalType": "uint8",
          "name": "",
          "type": "uint8"
        }
      ],
      "stateMutability": "view",
      "type": "function"
    },
    {
      "inputs": [],
      "name": "name",
      "outputs": [
        {
          "internalType": "string",
          "name": "",
          "type": "string"
        }
      ],
      "stateMutability": "view",
      "type": "function"
    },
    {
      "inputs": [],
      "name": "owner",
      "outputs": [
        {
          "internalType": "address",
          "name": "",
          "type": "address"
        }
      ],
      "stateMutability": "view",
      "type": "function"
    },
    {
      "inputs": [],
      "name": "protocolAddress",
      "outputs": [
        {
          "internalType": "address",
          "name": "",
          "type": "address"
        }
      ],
      "stateMutability": "view",
      "type": "function"
    },
    {
      "inputs": [],
      "name": "renounceOwnership",
      "outputs": [],
      "stateMutability": "nonpayable",
      "type": "function"
    },
    {
      "inputs": [
        {
          "internalType": "address",
          "name": "_pair",
          "type": "address"
        }
      ],
      "name": "setPair",
      "outputs": [],
      "stateMutability": "nonpayable",
      "type": "function"
    },
    {
      "inputs": [
        {
          "internalType": "address",
          "name": "_protocol",
          "type": "address"
        }
      ],
      "name": "setProtocol",
      "outputs": [],
      "stateMutability": "nonpayable",
      "type": "function"
    },
    {
      "inputs": [],
      "name": "symbol",
      "outputs": [
        {
          "internalType": "string",
          "name": "",
          "type": "string"
        }
      ],
      "stateMutability": "view",
      "type": "function"
    },
    {
      "inputs": [],
      "name": "totalSupply",
      "outputs": [
        {
          "internalType": "uint256",
          "name": "",
          "type": "uint256"
        }
      ],
      "stateMutability": "view",
      "type": "function"
    },
    {
      "inputs": [
        {
          "internalType": "address",
          "name": "to",
          "type": "address"
        },
        {
          "internalType": "uint256",
          "name": "value",
          "type": "uint256"
        }
      ],
      "name": "transfer",
      "outputs": [
        {
          "internalType": "bool",
          "name": "",
          "type": "bool"
        }
      ],
      "stateMutability": "nonpayable",
      "type": "function"
    },
    {
      "inputs": [
        {
          "internalType": "address",
          "name": "from",
          "type": "address"
        },
        {
          "internalType": "address",
          "name": "to",
          "type": "address"
        },
        {
          "internalType": "uint256",
          "name": "value",
          "type": "uint256"
        }
      ],
      "name": "transferFrom",
      "outputs": [
        {
          "internalType": "bool",
          "name": "",
          "type": "bool"
        }
      ],
      "stateMutability": "nonpayable",
      "type": "function"
    },
    {
      "inputs": [
        {
          "internalType": "address",
          "name": "newOwner",
          "type": "address"
        }
      ],
      "name": "transferOwnership",
      "outputs": [],
      "stateMutability": "nonpayable",
      "type": "function"
    },
    {
      "inputs": [],
      "name": "uniswapV2Pair",
      "outputs": [
        {
          "internalType": "address",
          "name": "",
          "type": "address"
        }
      ],
      "stateMutability": "view",
      "type": "function"
    }
  ],
  "bytecode": "0x60806040523480156200001157600080fd5b5060405162001246380380620012468339810160408190526200003491620003d4565b806040518060400160405280601081526020016f44414f2045717569747920536861726560801b8152506040518060400160405280600381526020016244455360e81b81525081600390816200008b9190620004aa565b5060046200009a8282620004aa565b5050506001600160a01b038116620000cd57604051631e4fbdf760e01b8152600060048201526024015b60405180910390fd5b620000d88162000109565b506200010233620000ec6012600a6200068b565b620000fc906305f5e1006200069c565b6200015b565b5062000705565b600580546001600160a01b038381166001600160a01b0319831681179093556040519116919082907f8be0079c531659141344cd1fd0a4f28419497f9722a3daafe3b4186f6b6457e090600090a35050565b6001600160a01b038216620001875760405163ec442f0560e01b815260006004820152602401620000c4565b620001956000838362000199565b5050565b6005546001600160a01b0384811691161480620001c357506005546001600160a01b038381169116145b80620001dc57506007546001600160a01b038481169116145b80620001f557506007546001600160a01b038381169116145b806200020a57506006546001600160a01b0316155b1562000222576200021d838383620002a1565b505050565b6006546000906001600160a01b03908116908416036200025a5760646200024b6003846200069c565b620002579190620006b6565b90505b80156200028e57620002708461dead83620002a1565b620002888484620002828486620006d9565b620002a1565b6200029b565b6200029b848484620002a1565b50505050565b6001600160a01b038316620002d0578060026000828254620002c49190620006ef565b90915550620003449050565b6001600160a01b03831660009081526020819052604090205481811015620003255760405163391434e360e21b81526001600160a01b03851660048201526024810182905260448101839052606401620000c4565b6001600160a01b03841660009081526020819052604090209082900390555b6001600160a01b038216620003625760028054829003905562000381565b6001600160a01b03821660009081526020819052604090208054820190555b816001600160a01b0316836001600160a01b03167fddf252ad1be2c89b69c2b068fc378daa952ba7f163c4a11628f55a4df523b3ef83604051620003c791815260200190565b60405180910390a3505050565b600060208284031215620003e757600080fd5b81516001600160a01b0381168114620003ff57600080fd5b9392505050565b634e487b7160e01b600052604160045260246000fd5b600181811c908216806200043157607f821691505b6020821081036200045257634e487b7160e01b600052602260045260246000fd5b50919050565b601f8211156200021d57600081815260208120601f850160051c81016020861015620004815750805b601f850160051c820191505b81811015620004a2578281556001016200048d565b505050505050565b81516001600160401b03811115620004c657620004c662000406565b620004de81620004d784546200041c565b8462000458565b602080601f831160018114620005165760008415620004fd5750858301515b600019600386901b1c1916600185901b178555620004a2565b600085815260208120601f198616915b82811015620005475788860151825594840194600190910190840162000526565b5085821015620005665787850151600019600388901b60f8161c191681555b5050505050600190811b01905550565b634e487b7160e01b600052601160045260246000fd5b600181815b80851115620005cd578160001904821115620005b157620005b162000576565b80851615620005bf57918102915b93841c939080029062000591565b509250929050565b600082620005e65750600162000685565b81620005f55750600062000685565b81600181146200060e5760028114620006195762000639565b600191505062000685565b60ff8411156200062d576200062d62000576565b50506001821b62000685565b5060208310610133831016604e8410600b84101617156200065e575081810a62000685565b6200066a83836200058c565b806000190482111562000681576200068162000576565b0290505b92915050565b6000620003ff60ff841683620005d5565b808202811582820484141762000685576200068562000576565b600082620006d457634e487b7160e01b600052601260045260246000fd5b500490565b8181038181111562000685576200068562000576565b8082018082111562000685576200068562000576565b610b3180620007156000396000f3fe608060405234801561001057600080fd5b506004361061012c5760003560e01c806354ad8aee116100ad5780638da5cb5b116100715780638da5cb5b1461026957806395d89b411461027a578063a9059cbb14610282578063dd62ed3e14610295578063f2fde38b146102ce57600080fd5b806354ad8aee1461021457806355eda4e81461021c57806370a0823114610225578063715018a61461024e5780638187f5161461025657600080fd5b806318160ddd116100f457806318160ddd146101c457806323b872dd146101cc578063313ce567146101df57806342966c68146101ee57806349bd5a5e1461020157600080fd5b806302af37bb146101315780630676c1b71461014c57806306fdde0314610177578063095ea7b31461018c5780630a9d793d146101af575b600080fd5b610139600081565b6040519081526020015b60405180910390f35b60075461015f906001600160a01b031681565b6040516001600160a01b039091168152602001610143565b61017f6102e1565b604051610143919061090e565b61019f61019a366004610978565b610373565b6040519015158152602001610143565b6101c26101bd3660046109a2565b61038d565b005b600254610139565b61019f6101da3660046109c4565b6103b7565b60405160128152602001610143565b6101c26101fc366004610a00565b6103db565b60065461015f906001600160a01b031681565b610139600381565b61015f61dead81565b6101396102333660046109a2565b6001600160a01b031660009081526020819052604090205490565b6101c26103e8565b6101c26102643660046109a2565b6103fc565b6005546001600160a01b031661015f565b61017f610426565b61019f610290366004610978565b610435565b6101396102a3366004610a19565b6001600160a01b03918216600090815260016020908152604080832093909416825291909152205490565b6101c26102dc3660046109a2565b610443565b6060600380546102f090610a4c565b80601f016020809104026020016040519081016040528092919081815260200182805461031c90610a4c565b80156103695780601f1061033e57610100808354040283529160200191610369565b820191906000526020600020905b81548152906001019060200180831161034c57829003601f168201915b5050505050905090565b600033610381818585610483565b60019150505b92915050565b610395610495565b600780546001600160a01b0319166001600160a01b0392909216919091179055565b6000336103c58582856104c2565b6103d0858585610541565b506001949350505050565b6103e533826105a0565b50565b6103f0610495565b6103fa60006105da565b565b610404610495565b600680546001600160a01b0319166001600160a01b0392909216919091179055565b6060600480546102f090610a4c565b600033610381818585610541565b61044b610495565b6001600160a01b03811661047a57604051631e4fbdf760e01b8152600060048201526024015b60405180910390fd5b6103e5816105da565b610490838383600161062c565b505050565b6005546001600160a01b031633146103fa5760405163118cdaa760e01b8152336004820152602401610471565b6001600160a01b0383811660009081526001602090815260408083209386168352929052205460001981101561053b578181101561052c57604051637dc7a0d960e11b81526001600160a01b03841660048201526024810182905260448101839052606401610471565b61053b8484848403600061062c565b50505050565b6001600160a01b03831661056b57604051634b637e8f60e11b815260006004820152602401610471565b6001600160a01b0382166105955760405163ec442f0560e01b815260006004820152602401610471565b610490838383610701565b6001600160a01b0382166105ca57604051634b637e8f60e11b815260006004820152602401610471565b6105d682600083610701565b5050565b600580546001600160a01b038381166001600160a01b0319831681179093556040519116919082907f8be0079c531659141344cd1fd0a4f28419497f9722a3daafe3b4186f6b6457e090600090a35050565b6001600160a01b0384166106565760405163e602df0560e01b815260006004820152602401610471565b6001600160a01b03831661068057604051634a1406b160e11b815260006004820152602401610471565b6001600160a01b038085166000908152600160209081526040808320938716835292905220829055801561053b57826001600160a01b0316846001600160a01b03167f8c5be1e5ebec7d5bd14f71427d1e84f3dd0314c0f7b2291e5b200ac8c7c3b925846040516106f391815260200190565b60405180910390a350505050565b6005546001600160a01b038481169116148061072a57506005546001600160a01b038381169116145b8061074257506007546001600160a01b038481169116145b8061075a57506007546001600160a01b038381169116145b8061076e57506006546001600160a01b0316155b1561077e576104908383836107e4565b6006546000906001600160a01b03908116908416036107b15760646107a4600384610a9c565b6107ae9190610ab3565b90505b80156107dd576107c48461dead836107e4565b6107d884846107d38486610ad5565b6107e4565b61053b565b61053b8484845b6001600160a01b03831661080f5780600260008282546108049190610ae8565b909155506108819050565b6001600160a01b038316600090815260208190526040902054818110156108625760405163391434e360e21b81526001600160a01b03851660048201526024810182905260448101839052606401610471565b6001600160a01b03841660009081526020819052604090209082900390555b6001600160a01b03821661089d576002805482900390556108bc565b6001600160a01b03821660009081526020819052604090208054820190555b816001600160a01b0316836001600160a01b03167fddf252ad1be2c89b69c2b068fc378daa952ba7f163c4a11628f55a4df523b3ef8360405161090191815260200190565b60405180910390a3505050565b600060208083528351808285015260005b8181101561093b5785810183015185820160400152820161091f565b506000604082860101526040601f19601f8301168501019250505092915050565b80356001600160a01b038116811461097357600080fd5b919050565b6000806040838503121561098b57600080fd5b6109948361095c565b946020939093013593505050565b6000602082840312156109b457600080fd5b6109bd8261095c565b9392505050565b6000806000606084860312156109d957600080fd5b6109e28461095c565b92506109f06020850161095c565b9150604084013590509250925092565b600060208284031215610a1257600080fd5b5035919050565b60008060408385031215610a2c57600080fd5b610a358361095c565b9150610a436020840161095c565b90509250929050565b600181811c90821680610a6057607f821691505b602082108103610a8057634e487b7160e01b600052602260045260246000fd5b50919050565b634e487b7160e01b600052601160045260246000fd5b808202811582820484141761038757610387610a86565b600082610ad057634e487b7160e01b600052601260045260246000fd5b500490565b8181038181111561038757610387610a86565b8082018082111561038757610387610a8656fea264697066735822122071003a411f6cbcf54252689e1f41e9bdf8f1ccb0cf5a84cce6de2455fe9b1fe164736f6c63430008140033",
  "linkReferences": {},
  "deployedLinkReferences": {}
}